{
  "contractName": "Bet",
  "abi": [
    {
      "inputs": [
        {
          "internalType": "string",
          "name": "_symbol",
          "type": "string"
        },
        {
          "internalType": "int256",
          "name": "_line",
          "type": "int256"
        },
        {
          "internalType": "int256",
          "name": "_spread",
          "type": "int256"
        },
        {
          "internalType": "int256",
          "name": "_maxBetSize",
          "type": "int256"
        },
        {
          "internalType": "int256",
          "name": "_multiplier",
          "type": "int256"
        },
        {
          "internalType": "uint256",
          "name": "_expiration",
          "type": "uint256"
        }
      ],
      "stateMutability": "nonpayable",
      "type": "constructor"
    },
    {
      "anonymous": false,
      "inputs": [
        {
          "indexed": false,
          "internalType": "address",
          "name": "_payout",
          "type": "address"
        },
        {
          "indexed": false,
          "internalType": "uint256",
          "name": "_amount",
          "type": "uint256"
        }
      ],
      "name": "LogPayoutToUser",
      "type": "event"
    },
    {
      "anonymous": false,
      "inputs": [
        {
          "indexed": false,
          "internalType": "address",
          "name": "_address",
          "type": "address"
        },
        {
          "indexed": false,
          "internalType": "enum Bet.SideOfBet",
          "name": "_side",
          "type": "uint8"
        }
      ],
      "name": "LogUserCancelledBet",
      "type": "event"
    },
    {
      "anonymous": false,
      "inputs": [
        {
          "indexed": false,
          "internalType": "address",
          "name": "_address",
          "type": "address"
        },
        {
          "indexed": false,
          "internalType": "enum Bet.SideOfBet",
          "name": "_side",
          "type": "uint8"
        }
      ],
      "name": "LogUserPlacedBet",
      "type": "event"
    },
    {
      "inputs": [
        {
          "internalType": "address",
          "name": "",
          "type": "address"
        }
      ],
      "name": "betsByUser",
      "outputs": [
        {
          "internalType": "address",
          "name": "bettor",
          "type": "address"
        },
        {
          "internalType": "enum Bet.SideOfBet",
          "name": "side",
          "type": "uint8"
        },
        {
          "internalType": "uint256",
          "name": "betSize",
          "type": "uint256"
        },
        {
          "internalType": "bool",
          "name": "isBetting",
          "type": "bool"
        }
      ],
      "stateMutability": "view",
      "type": "function"
    },
    {
      "inputs": [],
      "name": "contractBalance",
      "outputs": [
        {
          "internalType": "uint256",
          "name": "",
          "type": "uint256"
        }
      ],
      "stateMutability": "view",
      "type": "function"
    },
    {
      "inputs": [],
      "name": "expiration",
      "outputs": [
        {
          "internalType": "uint256",
          "name": "",
          "type": "uint256"
        }
      ],
      "stateMutability": "view",
      "type": "function"
    },
    {
      "inputs": [],
      "name": "isLive",
      "outputs": [
        {
          "internalType": "bool",
          "name": "",
          "type": "bool"
        }
      ],
      "stateMutability": "view",
      "type": "function"
    },
    {
      "inputs": [],
      "name": "line",
      "outputs": [
        {
          "internalType": "int256",
          "name": "",
          "type": "int256"
        }
      ],
      "stateMutability": "view",
      "type": "function"
    },
    {
      "inputs": [],
      "name": "maxBetSize",
      "outputs": [
        {
          "internalType": "int256",
          "name": "",
          "type": "int256"
        }
      ],
      "stateMutability": "view",
      "type": "function"
    },
    {
      "inputs": [],
      "name": "numberOfBets",
      "outputs": [
        {
          "internalType": "uint8",
          "name": "",
          "type": "uint8"
        }
      ],
      "stateMutability": "view",
      "type": "function"
    },
    {
      "inputs": [],
      "name": "owner",
      "outputs": [
        {
          "internalType": "address payable",
          "name": "",
          "type": "address"
        }
      ],
      "stateMutability": "view",
      "type": "function"
    },
    {
      "inputs": [],
      "name": "payoutMultiplier",
      "outputs": [
        {
          "internalType": "int256",
          "name": "",
          "type": "int256"
        }
      ],
      "stateMutability": "view",
      "type": "function"
    },
    {
      "inputs": [],
      "name": "spread",
      "outputs": [
        {
          "internalType": "int256",
          "name": "",
          "type": "int256"
        }
      ],
      "stateMutability": "view",
      "type": "function"
    },
    {
      "inputs": [],
      "name": "symbol",
      "outputs": [
        {
          "internalType": "string",
          "name": "",
          "type": "string"
        }
      ],
      "stateMutability": "view",
      "type": "function"
    },
    {
      "inputs": [
        {
          "internalType": "uint256",
          "name": "",
          "type": "uint256"
        }
      ],
      "name": "usersBetting",
      "outputs": [
        {
          "internalType": "address",
          "name": "",
          "type": "address"
        }
      ],
      "stateMutability": "view",
      "type": "function"
    },
    {
      "inputs": [],
      "name": "cancelBet",
      "outputs": [],
      "stateMutability": "nonpayable",
      "type": "function"
    },
    {
      "inputs": [
        {
          "internalType": "string",
          "name": "_side",
          "type": "string"
        }
      ],
      "name": "placeBet",
      "outputs": [],
      "stateMutability": "payable",
      "type": "function"
    },
    {
      "inputs": [],
      "name": "getAllUsersBetting",
      "outputs": [
        {
          "internalType": "address[]",
          "name": "",
          "type": "address[]"
        }
      ],
      "stateMutability": "view",
      "type": "function"
    },
    {
      "inputs": [],
      "name": "getBetDetails",
      "outputs": [
        {
          "internalType": "string",
          "name": "",
          "type": "string"
        },
        {
          "internalType": "int256",
          "name": "",
          "type": "int256"
        },
        {
          "internalType": "int256",
          "name": "",
          "type": "int256"
        },
        {
          "internalType": "uint256",
          "name": "",
          "type": "uint256"
        }
      ],
      "stateMutability": "view",
      "type": "function"
    },
    {
      "inputs": [],
      "name": "getCurrentPrice",
      "outputs": [
        {
          "internalType": "int256",
          "name": "",
          "type": "int256"
        }
      ],
      "stateMutability": "view",
      "type": "function"
    },
    {
      "inputs": [
        {
          "internalType": "uint256",
          "name": "_outstandingBets",
          "type": "uint256"
        }
      ],
      "name": "kill",
      "outputs": [],
      "stateMutability": "nonpayable",
      "type": "function"
    },
    {
      "inputs": [],
      "name": "resolveBet",
      "outputs": [],
      "stateMutability": "nonpayable",
      "type": "function"
    }
  ],
  "bytecode": "0x608060405233600160006101000a81548173ffffffffffffffffffffffffffffffffffffffff021916908373ffffffffffffffffffffffffffffffffffffffff16021790555060018060146101000a81548160ff0219169083151502179055506000600960006101000a81548160ff021916908360ff1602179055503480156200008857600080fd5b50604051620030c1380380620030c18339818101604052810190620000ae919062000453565b8560029080519060200190620000c692919062000190565b50670de0b6b3a764000085620000dd91906200053d565b6003819055506012600a85620000f491906200053d565b6200010091906200053d565b600481905550670de0b6b3a7640000836200011c91906200053d565b6005819055508160078190555080600681905550739326bfa02add2366b30bacb125260af6410313316000806101000a81548173ffffffffffffffffffffffffffffffffffffffff021916908373ffffffffffffffffffffffffffffffffffffffff160217905550505050505050620006c9565b8280546200019e9062000693565b90600052602060002090601f016020900481019282620001c257600085556200020e565b82601f10620001dd57805160ff19168380011785556200020e565b828001600101855582156200020e579182015b828111156200020d578251825591602001919060010190620001f0565b5b5090506200021d919062000221565b5090565b5b808211156200023c57600081600090555060010162000222565b5090565b6000604051905090565b600080fd5b600080fd5b600080fd5b600080fd5b6000601f19601f8301169050919050565b7f4e487b7100000000000000000000000000000000000000000000000000000000600052604160045260246000fd5b620002a9826200025e565b810181811067ffffffffffffffff82111715620002cb57620002ca6200026f565b5b80604052505050565b6000620002e062000240565b9050620002ee82826200029e565b919050565b600067ffffffffffffffff8211156200031157620003106200026f565b5b6200031c826200025e565b9050602081019050919050565b60005b83811015620003495780820151818401526020810190506200032c565b8381111562000359576000848401525b50505050565b6000620003766200037084620002f3565b620002d4565b90508281526020810184848401111562000395576200039462000259565b5b620003a284828562000329565b509392505050565b600082601f830112620003c257620003c162000254565b5b8151620003d48482602086016200035f565b91505092915050565b6000819050919050565b620003f281620003dd565b8114620003fe57600080fd5b50565b6000815190506200041281620003e7565b92915050565b6000819050919050565b6200042d8162000418565b81146200043957600080fd5b50565b6000815190506200044d8162000422565b92915050565b60008060008060008060c087890312156200047357620004726200024a565b5b600087015167ffffffffffffffff8111156200049457620004936200024f565b5b620004a289828a01620003aa565b9650506020620004b589828a0162000401565b9550506040620004c889828a0162000401565b9450506060620004db89828a0162000401565b9350506080620004ee89828a0162000401565b92505060a06200050189828a016200043c565b9150509295509295509295565b7f4e487b7100000000000000000000000000000000000000000000000000000000600052601160045260246000fd5b60006200054a82620003dd565b91506200055783620003dd565b9250827f7fffffffffffffffffffffffffffffffffffffffffffffffffffffffffffffff04821160008413600084131616156200059957620005986200050e565b5b817f80000000000000000000000000000000000000000000000000000000000000000583126000841260008413161615620005d957620005d86200050e565b5b827f800000000000000000000000000000000000000000000000000000000000000005821260008413600084121616156200061957620006186200050e565b5b827f7fffffffffffffffffffffffffffffffffffffffffffffffffffffffffffffff05821260008412600084121616156200065957620006586200050e565b5b828202905092915050565b7f4e487b7100000000000000000000000000000000000000000000000000000000600052602260045260246000fd5b60006002820490506001821680620006ac57607f821691505b60208210811415620006c357620006c262000664565b5b50919050565b6129e880620006d96000396000f3fe6080604052600436106101145760003560e01c80638b7afe2e116100a0578063b56b835311610064578063b56b835314610354578063b8f7a6651461037f578063cfc2ca32146103aa578063d29a0025146103e7578063eb91d37e1461041057610114565b80638b7afe2e146102a05780638da5cb5b146102cb5780638fced626146102f657806395d89b411461030d57806397bfeb881461033857610114565b8063473fede8116100e7578063473fede8146101da5780635c25c76c146102055780635c812737146102305780637b6d79f11461025b5780638a2fd0291461027257610114565b80632ca8c6d3146101195780632f37290714610144578063419ae937146101845780634665096d146101af575b600080fd5b34801561012557600080fd5b5061012e61043b565b60405161013b91906115a6565b60405180910390f35b34801561015057600080fd5b5061016b60048036038101906101669190611633565b61044e565b60405161017b949392919061171a565b60405180910390f35b34801561019057600080fd5b506101996104b8565b6040516101a6919061181d565b60405180910390f35b3480156101bb57600080fd5b506101c4610546565b6040516101d1919061183f565b60405180910390f35b3480156101e657600080fd5b506101ef61054c565b6040516101fc9190611873565b60405180910390f35b34801561021157600080fd5b5061021a610552565b6040516102279190611873565b60405180910390f35b34801561023c57600080fd5b50610245610558565b6040516102529190611873565b60405180910390f35b34801561026757600080fd5b5061027061055e565b005b34801561027e57600080fd5b50610287610851565b6040516102979493929190611927565b60405180910390f35b3480156102ac57600080fd5b506102b56108fd565b6040516102c2919061183f565b60405180910390f35b3480156102d757600080fd5b506102e0610903565b6040516102ed9190611994565b60405180910390f35b34801561030257600080fd5b5061030b610929565b005b34801561031957600080fd5b50610322610b70565b60405161032f91906119af565b60405180910390f35b610352600480360381019061034d9190611b06565b610bfe565b005b34801561036057600080fd5b50610369610f57565b6040516103769190611873565b60405180910390f35b34801561038b57600080fd5b50610394610f5d565b6040516103a19190611b4f565b60405180910390f35b3480156103b657600080fd5b506103d160048036038101906103cc9190611b96565b610f70565b6040516103de9190611bc3565b60405180910390f35b3480156103f357600080fd5b5061040e60048036038101906104099190611b96565b610faf565b005b34801561041c57600080fd5b506104256110c6565b6040516104329190611873565b60405180910390f35b600960009054906101000a900460ff1681565b60086020528060005260406000206000915090508060000160009054906101000a900473ffffffffffffffffffffffffffffffffffffffff16908060000160149054906101000a900460ff16908060010154908060020160009054906101000a900460ff16905084565b6060600b80548060200260200160405190810160405280929190818152602001828054801561053c57602002820191906000526020600020905b8160009054906101000a900473ffffffffffffffffffffffffffffffffffffffff1673ffffffffffffffffffffffffffffffffffffffff16815260200190600101908083116104f2575b5050505050905090565b60065481565b60055481565b60045481565b60075481565b60011515600860003373ffffffffffffffffffffffffffffffffffffffff1673ffffffffffffffffffffffffffffffffffffffff16815260200190815260200160002060020160009054906101000a900460ff161515146105f4576040517f08c379a00000000000000000000000000000000000000000000000000000000081526004016105eb90611c2a565b60405180910390fd5b6000600860003373ffffffffffffffffffffffffffffffffffffffff1673ffffffffffffffffffffffffffffffffffffffff168152602001908152602001600020905060008160010154905080600a541015610685576040517f08c379a000000000000000000000000000000000000000000000000000000000815260040161067c90611cbc565b60405180910390fd5b60008260020160006101000a81548160ff0219169083151502179055506000826001018190555060028260000160146101000a81548160ff021916908360028111156106d4576106d361166f565b5b02179055506001600960008282829054906101000a900460ff166106f89190611d0b565b92506101000a81548160ff021916908360ff16021790555080600a60008282546107229190611d3f565b9250508190555061073233611165565b60008260000160009054906101000a900473ffffffffffffffffffffffffffffffffffffffff1673ffffffffffffffffffffffffffffffffffffffff168260405161077c90611da4565b60006040518083038185875af1925050503d80600081146107b9576040519150601f19603f3d011682016040523d82523d6000602084013e6107be565b606091505b5050905080610802576040517f08c379a00000000000000000000000000000000000000000000000000000000081526004016107f990611e05565b60405180910390fd5b7f5c0ede0ff70e8d91413ba60230ee5b241c5f1d8c42a7ddff28700b94be01c0d4338460000160149054906101000a900460ff16604051610844929190611e25565b60405180910390a1505050565b60606000806000600260035460045460065483805461086f90611e7d565b80601f016020809104026020016040519081016040528092919081815260200182805461089b90611e7d565b80156108e85780601f106108bd576101008083540402835291602001916108e8565b820191906000526020600020905b8154815290600101906020018083116108cb57829003601f168201915b50505050509350935093509350935090919293565b600a5481565b600160009054906101000a900473ffffffffffffffffffffffffffffffffffffffff1681565b600160009054906101000a900473ffffffffffffffffffffffffffffffffffffffff1673ffffffffffffffffffffffffffffffffffffffff163373ffffffffffffffffffffffffffffffffffffffff16146109b9576040517f08c379a00000000000000000000000000000000000000000000000000000000081526004016109b090611f21565b60405180910390fd5b60006402540be4006109c96110c6565b6109d39190611f41565b90506000600290506004546003546109eb9190612058565b8213156109fb5760009050610a18565b600454600354610a0b91906120ec565b821215610a1757600190505b5b6000600960009054906101000a900460ff1660ff16905060005b600960009054906101000a900460ff1660ff168160ff161015610b61576000600b8260ff1681548110610a6857610a67612180565b5b9060005260206000200160009054906101000a900473ffffffffffffffffffffffffffffffffffffffff1690506000600860008373ffffffffffffffffffffffffffffffffffffffff1673ffffffffffffffffffffffffffffffffffffffff16815260200190815260200160002090508060020160009054906101000a900460ff168015610b2a5750846002811115610b0457610b0361166f565b5b8160000160149054906101000a900460ff166002811115610b2857610b2761166f565b5b145b15610b3e57610b3d8282600101546112fb565b5b8380610b49906121af565b94505050508080610b59906121d9565b915050610a32565b50610b6b81610faf565b505050565b60028054610b7d90611e7d565b80601f0160208091040260200160405190810160405280929190818152602001828054610ba990611e7d565b8015610bf65780601f10610bcb57610100808354040283529160200191610bf6565b820191906000526020600020905b815481529060010190602001808311610bd957829003601f168201915b505050505081565b600160009054906101000a900473ffffffffffffffffffffffffffffffffffffffff1673ffffffffffffffffffffffffffffffffffffffff163373ffffffffffffffffffffffffffffffffffffffff161415610c8f576040517f08c379a0000000000000000000000000000000000000000000000000000000008152600401610c869061224f565b60405180910390fd5b60001515600860003373ffffffffffffffffffffffffffffffffffffffff1673ffffffffffffffffffffffffffffffffffffffff16815260200190815260200160002060020160009054906101000a900460ff16151514610d25576040517f08c379a0000000000000000000000000000000000000000000000000000000008152600401610d1c906122bb565b60405180910390fd5b6000610d308261148b565b9050600b339080600181540180825580915050600190039060005260206000200160009091909190916101000a81548173ffffffffffffffffffffffffffffffffffffffff021916908373ffffffffffffffffffffffffffffffffffffffff160217905550600060405180608001604052803373ffffffffffffffffffffffffffffffffffffffff168152602001836002811115610dd157610dd061166f565b5b815260200134815260200160011515815250905080600860003373ffffffffffffffffffffffffffffffffffffffff1673ffffffffffffffffffffffffffffffffffffffff16815260200190815260200160002060008201518160000160006101000a81548173ffffffffffffffffffffffffffffffffffffffff021916908373ffffffffffffffffffffffffffffffffffffffff16021790555060208201518160000160146101000a81548160ff02191690836002811115610e9757610e9661166f565b5b02179055506040820151816001015560608201518160020160006101000a81548160ff0219169083151502179055509050506001600960008282829054906101000a900460ff16610ee891906122db565b92506101000a81548160ff021916908360ff16021790555034600a6000828254610f129190612312565b925050819055507f5c0ede0ff70e8d91413ba60230ee5b241c5f1d8c42a7ddff28700b94be01c0d43383604051610f4a929190611e25565b60405180910390a1505050565b60035481565b600160149054906101000a900460ff1681565b600b8181548110610f8057600080fd5b906000526020600020016000915054906101000a900473ffffffffffffffffffffffffffffffffffffffff1681565b60008114610ff2576040517f08c379a0000000000000000000000000000000000000000000000000000000008152600401610fe9906123da565b60405180910390fd5b6000600160009054906101000a900473ffffffffffffffffffffffffffffffffffffffff1673ffffffffffffffffffffffffffffffffffffffff16600a5460405161103c90611da4565b60006040518083038185875af1925050503d8060008114611079576040519150601f19603f3d011682016040523d82523d6000602084013e61107e565b606091505b50509050806110c2576040517f08c379a00000000000000000000000000000000000000000000000000000000081526004016110b990612446565b60405180910390fd5b5050565b60008060008054906101000a900473ffffffffffffffffffffffffffffffffffffffff1673ffffffffffffffffffffffffffffffffffffffff1663feaf968c6040518163ffffffff1660e01b815260040160a060405180830381865afa158015611134573d6000803e3d6000fd5b505050506040513d601f19601f8201168201806040525081019061115891906124e9565b5050509150508091505090565b600080600090505b600b80549050811015611203578273ffffffffffffffffffffffffffffffffffffffff16600b82815481106111a5576111a4612180565b5b9060005260206000200160009054906101000a900473ffffffffffffffffffffffffffffffffffffffff1673ffffffffffffffffffffffffffffffffffffffff1614156111f0578091505b80806111fb90612564565b91505061116d565b50600b6001600b805490506112189190611d3f565b8154811061122957611228612180565b5b9060005260206000200160009054906101000a900473ffffffffffffffffffffffffffffffffffffffff16600b828154811061126857611267612180565b5b9060005260206000200160006101000a81548173ffffffffffffffffffffffffffffffffffffffff021916908373ffffffffffffffffffffffffffffffffffffffff160217905550600b8054806112c2576112c16125ad565b5b6001900381819060005260206000200160006101000a81549073ffffffffffffffffffffffffffffffffffffffff021916905590555050565b6000600a6007548361130d91906125dc565b6113179190612665565b905080600a54101561135e576040517f08c379a0000000000000000000000000000000000000000000000000000000008152600401611355906126e2565b60405180910390fd5b80600a60008282546113709190611d3f565b9250508190555060008373ffffffffffffffffffffffffffffffffffffffff168260405161139d90611da4565b60006040518083038185875af1925050503d80600081146113da576040519150601f19603f3d011682016040523d82523d6000602084013e6113df565b606091505b505090506000846040516020016113f691906127c7565b604051602081830303815290604052905081819061144a576040517f08c379a000000000000000000000000000000000000000000000000000000000815260040161144191906119af565b60405180910390fd5b507fa3ca6c6f1413e28d2a8c7aaa386259e7c61bbe6970cfb14720b44ec9a0ddceed858460405161147c9291906127ed565b60405180910390a15050505050565b600060405160200161149c90612862565b60405160208183030381529060405280519060200120826040516020016114c391906128a8565b6040516020818303038152906040528051906020012014156114e85760009050611585565b6040516020016114f79061290b565b604051602081830303815290604052805190602001208260405160200161151e91906128a8565b6040516020818303038152906040528051906020012014156115435760019050611585565b6000611584576040517f08c379a000000000000000000000000000000000000000000000000000000000815260040161157b90612992565b60405180910390fd5b5b919050565b600060ff82169050919050565b6115a08161158a565b82525050565b60006020820190506115bb6000830184611597565b92915050565b6000604051905090565b600080fd5b600080fd5b600073ffffffffffffffffffffffffffffffffffffffff82169050919050565b6000611600826115d5565b9050919050565b611610816115f5565b811461161b57600080fd5b50565b60008135905061162d81611607565b92915050565b600060208284031215611649576116486115cb565b5b60006116578482850161161e565b91505092915050565b611669816115f5565b82525050565b7f4e487b7100000000000000000000000000000000000000000000000000000000600052602160045260246000fd5b600381106116af576116ae61166f565b5b50565b60008190506116c08261169e565b919050565b60006116d0826116b2565b9050919050565b6116e0816116c5565b82525050565b6000819050919050565b6116f9816116e6565b82525050565b60008115159050919050565b611714816116ff565b82525050565b600060808201905061172f6000830187611660565b61173c60208301866116d7565b61174960408301856116f0565b611756606083018461170b565b95945050505050565b600081519050919050565b600082825260208201905092915050565b6000819050602082019050919050565b611794816115f5565b82525050565b60006117a6838361178b565b60208301905092915050565b6000602082019050919050565b60006117ca8261175f565b6117d4818561176a565b93506117df8361177b565b8060005b838110156118105781516117f7888261179a565b9750611802836117b2565b9250506001810190506117e3565b5085935050505092915050565b6000602082019050818103600083015261183781846117bf565b905092915050565b600060208201905061185460008301846116f0565b92915050565b6000819050919050565b61186d8161185a565b82525050565b60006020820190506118886000830184611864565b92915050565b600081519050919050565b600082825260208201905092915050565b60005b838110156118c85780820151818401526020810190506118ad565b838111156118d7576000848401525b50505050565b6000601f19601f8301169050919050565b60006118f98261188e565b6119038185611899565b93506119138185602086016118aa565b61191c816118dd565b840191505092915050565b6000608082019050818103600083015261194181876118ee565b90506119506020830186611864565b61195d6040830185611864565b61196a60608301846116f0565b95945050505050565b600061197e826115d5565b9050919050565b61198e81611973565b82525050565b60006020820190506119a96000830184611985565b92915050565b600060208201905081810360008301526119c981846118ee565b905092915050565b600080fd5b600080fd5b7f4e487b7100000000000000000000000000000000000000000000000000000000600052604160045260246000fd5b611a13826118dd565b810181811067ffffffffffffffff82111715611a3257611a316119db565b5b80604052505050565b6000611a456115c1565b9050611a518282611a0a565b919050565b600067ffffffffffffffff821115611a7157611a706119db565b5b611a7a826118dd565b9050602081019050919050565b82818337600083830152505050565b6000611aa9611aa484611a56565b611a3b565b905082815260208101848484011115611ac557611ac46119d6565b5b611ad0848285611a87565b509392505050565b600082601f830112611aed57611aec6119d1565b5b8135611afd848260208601611a96565b91505092915050565b600060208284031215611b1c57611b1b6115cb565b5b600082013567ffffffffffffffff811115611b3a57611b396115d0565b5b611b4684828501611ad8565b91505092915050565b6000602082019050611b64600083018461170b565b92915050565b611b73816116e6565b8114611b7e57600080fd5b50565b600081359050611b9081611b6a565b92915050565b600060208284031215611bac57611bab6115cb565b5b6000611bba84828501611b81565b91505092915050565b6000602082019050611bd86000830184611660565b92915050565b7f5573657220686173206e6f2062657420746f2063616e63656c2e000000000000600082015250565b6000611c14601a83611899565b9150611c1f82611bde565b602082019050919050565b60006020820190508181036000830152611c4381611c07565b9050919050565b7f596f752061726520747279696e6720746f20776974686472617720746f6f206d60008201527f7563682045746865722e00000000000000000000000000000000000000000000602082015250565b6000611ca6602a83611899565b9150611cb182611c4a565b604082019050919050565b60006020820190508181036000830152611cd581611c99565b9050919050565b7f4e487b7100000000000000000000000000000000000000000000000000000000600052601160045260246000fd5b6000611d168261158a565b9150611d218361158a565b925082821015611d3457611d33611cdc565b5b828203905092915050565b6000611d4a826116e6565b9150611d55836116e6565b925082821015611d6857611d67611cdc565b5b828203905092915050565b600081905092915050565b50565b6000611d8e600083611d73565b9150611d9982611d7e565b600082019050919050565b6000611daf82611d81565b9150819050919050565b7f4661696c656420746f2072657475726e20457468657200000000000000000000600082015250565b6000611def601683611899565b9150611dfa82611db9565b602082019050919050565b60006020820190508181036000830152611e1e81611de2565b9050919050565b6000604082019050611e3a6000830185611660565b611e4760208301846116d7565b9392505050565b7f4e487b7100000000000000000000000000000000000000000000000000000000600052602260045260246000fd5b60006002820490506001821680611e9557607f821691505b60208210811415611ea957611ea8611e4e565b5b50919050565b7f4f6e6c7920636f6e7472616374206f776e65722063616e207265736f6c76652060008201527f6265742e00000000000000000000000000000000000000000000000000000000602082015250565b6000611f0b602483611899565b9150611f1682611eaf565b604082019050919050565b60006020820190508181036000830152611f3a81611efe565b9050919050565b6000611f4c8261185a565b9150611f578361185a565b9250827f7fffffffffffffffffffffffffffffffffffffffffffffffffffffffffffffff0482116000841360008413161615611f9657611f95611cdc565b5b817f80000000000000000000000000000000000000000000000000000000000000000583126000841260008413161615611fd357611fd2611cdc565b5b827f800000000000000000000000000000000000000000000000000000000000000005821260008413600084121616156120105761200f611cdc565b5b827f7fffffffffffffffffffffffffffffffffffffffffffffffffffffffffffffff058212600084126000841216161561204d5761204c611cdc565b5b828202905092915050565b60006120638261185a565b915061206e8361185a565b9250817f7fffffffffffffffffffffffffffffffffffffffffffffffffffffffffffffff038313600083121516156120a9576120a8611cdc565b5b817f80000000000000000000000000000000000000000000000000000000000000000383126000831216156120e1576120e0611cdc565b5b828201905092915050565b60006120f78261185a565b91506121028361185a565b9250827f80000000000000000000000000000000000000000000000000000000000000000182126000841215161561213d5761213c611cdc565b5b827f7fffffffffffffffffffffffffffffffffffffffffffffffffffffffffffffff01821360008412161561217557612174611cdc565b5b828203905092915050565b7f4e487b7100000000000000000000000000000000000000000000000000000000600052603260045260246000fd5b60006121ba826116e6565b915060008214156121ce576121cd611cdc565b5b600182039050919050565b60006121e48261158a565b915060ff8214156121f8576121f7611cdc565b5b600182019050919050565b7f43726561746f722063616e6e6f7420706c616365206265742e00000000000000600082015250565b6000612239601983611899565b915061224482612203565b602082019050919050565b600060208201905081810360008301526122688161222c565b9050919050565b7f5573657220616c72656164792068617320706c616365642061206265742e0000600082015250565b60006122a5601e83611899565b91506122b08261226f565b602082019050919050565b600060208201905081810360008301526122d481612298565b9050919050565b60006122e68261158a565b91506122f18361158a565b92508260ff0382111561230757612306611cdc565b5b828201905092915050565b600061231d826116e6565b9150612328836116e6565b9250827fffffffffffffffffffffffffffffffffffffffffffffffffffffffffffffffff0382111561235d5761235c611cdc565b5b828201905092915050565b7f436f6e7472616374207374696c6c2068617320756e7265736f6c76656420626560008201527f7473000000000000000000000000000000000000000000000000000000000000602082015250565b60006123c4602283611899565b91506123cf82612368565b604082019050919050565b600060208201905081810360008301526123f3816123b7565b9050919050565b7f4661696c656420746f2073656e64204574686572000000000000000000000000600082015250565b6000612430601483611899565b915061243b826123fa565b602082019050919050565b6000602082019050818103600083015261245f81612423565b9050919050565b600069ffffffffffffffffffff82169050919050565b61248581612466565b811461249057600080fd5b50565b6000815190506124a28161247c565b92915050565b6124b18161185a565b81146124bc57600080fd5b50565b6000815190506124ce816124a8565b92915050565b6000815190506124e381611b6a565b92915050565b600080600080600060a08688031215612505576125046115cb565b5b600061251388828901612493565b9550506020612524888289016124bf565b9450506040612535888289016124d4565b9350506060612546888289016124d4565b925050608061255788828901612493565b9150509295509295909350565b600061256f826116e6565b91507fffffffffffffffffffffffffffffffffffffffffffffffffffffffffffffffff8214156125a2576125a1611cdc565b5b600182019050919050565b7f4e487b7100000000000000000000000000000000000000000000000000000000600052603160045260246000fd5b60006125e7826116e6565b91506125f2836116e6565b9250817fffffffffffffffffffffffffffffffffffffffffffffffffffffffffffffffff048311821515161561262b5761262a611cdc565b5b828202905092915050565b7f4e487b7100000000000000000000000000000000000000000000000000000000600052601260045260246000fd5b6000612670826116e6565b915061267b836116e6565b92508261268b5761268a612636565b5b828204905092915050565b7f496e73756666696369656e742066756e647320746f2077697468647261772e00600082015250565b60006126cc601f83611899565b91506126d782612696565b602082019050919050565b600060208201905081810360008301526126fb816126bf565b9050919050565b600081905092915050565b7f4661696c656420746f2073656e6420457468657220746f206265742077696e6e60008201527f6572207769746820616464726573733a20000000000000000000000000000000602082015250565b6000612769603183612702565b91506127748261270d565b603182019050919050565b60008160601b9050919050565b60006127978261277f565b9050919050565b60006127a98261278c565b9050919050565b6127c16127bc826115f5565b61279e565b82525050565b60006127d28261275c565b91506127de82846127b0565b60148201915081905092915050565b60006040820190506128026000830185611660565b61280f60208301846116f0565b9392505050565b7f6f76657200000000000000000000000000000000000000000000000000000000600082015250565b600061284c600483612702565b915061285782612816565b600482019050919050565b600061286d8261283f565b9150819050919050565b60006128828261188e565b61288c8185612702565b935061289c8185602086016118aa565b80840191505092915050565b60006128b48284612877565b915081905092915050565b7f756e646572000000000000000000000000000000000000000000000000000000600082015250565b60006128f5600583612702565b9150612900826128bf565b600582019050919050565b6000612916826128e8565b9150819050919050565b7f53696465206f6620626574206d757374206265206569746865723a20276f766560008201527f7227206f722027756e646572272e000000000000000000000000000000000000602082015250565b600061297c602e83611899565b915061298782612920565b604082019050919050565b600060208201905081810360008301526129ab8161296f565b905091905056fea26469706673582212206a75b58b9ce369b880e8f30782f858ae80da354a05152bdaea86c6142106b49264736f6c634300080b0033",
  "immutableReferences": {},
  "source": "// SPDX-License-Identifier: UNLICENSED\npragma solidity 0.8.11;\n\nimport \"@chainlink/contracts/src/v0.8/interfaces/AggregatorV3Interface.sol\";\n\ncontract Bet {\n    event LogUserPlacedBet(address _address, SideOfBet _side);\n    event LogUserCancelledBet(address _address, SideOfBet _side);\n    event LogPayoutToUser(address _payout, uint _amount);\n\n    enum SideOfBet { OVER, UNDER, NONE }\n\n    AggregatorV3Interface internal priceFeed;\n\n    struct PlacedBet {\n        address bettor;\n        SideOfBet side;\n        uint betSize;\n        bool isBetting;\n    }\n\n    address payable public owner = payable(msg.sender);\n    bool public isLive = true;\n    string public symbol;\n    int public line;\n    int public spread;\n    int public maxBetSize;\n    uint public expiration;\n    int public payoutMultiplier; // Divide by 10 for float\n    mapping (address => PlacedBet) public betsByUser;\n    uint8 public numberOfBets = 0;\n    uint public contractBalance;\n    address[] public usersBetting;\n\n    constructor(string memory _symbol, int _line, int _spread, int _maxBetSize, int _multiplier, uint _expiration) {\n        symbol = _symbol;\n        line = _line * 10**18;\n        spread = _spread * 10*18;\n        maxBetSize = _maxBetSize * 10**18;\n        payoutMultiplier = _multiplier;\n        expiration = _expiration;\n        priceFeed = AggregatorV3Interface(0x9326BFA02ADD2366b30bacB125260Af641031331);\n        // Rinkeby: 0x8A753747A1Fa494EC906cE90E9f37563A8AF630e\n        // Kovan:0x9326BFA02ADD2366b30bacB125260Af641031331\n    }\n\n    function cancelBet() public {\n        require(betsByUser[msg.sender].isBetting == true, \"User has no bet to cancel.\");\n        PlacedBet storage existingBet = betsByUser[msg.sender];\n        uint valueToReturn = existingBet.betSize;\n\n        require(contractBalance >= valueToReturn, \"You are trying to withdraw too much Ether.\");\n        existingBet.isBetting = false;\n        existingBet.betSize = 0;\n        existingBet.side = SideOfBet.NONE;\n\n        numberOfBets -= 1;\n        contractBalance -= valueToReturn;\n        removeFromUsersBetting(msg.sender);\n\n        (bool sent,) = existingBet.bettor.call{value: valueToReturn}(\"\");\n        require(sent, \"Failed to return Ether\");\n\n        emit LogUserPlacedBet(msg.sender, existingBet.side);\n    }\n    \n    function placeBet(string memory _side) public payable {\n        require(msg.sender != owner, \"Creator cannot place bet.\");\n        require(betsByUser[msg.sender].isBetting == false, \"User already has placed a bet.\");\n        SideOfBet sideTaken = getSideOfBetFromString(_side);\n        usersBetting.push(msg.sender);\n        PlacedBet memory newBet = PlacedBet({\n            bettor: msg.sender,\n            side: sideTaken,\n            betSize: msg.value,\n            isBetting: true\n        });\n\n        betsByUser[msg.sender] = newBet;\n        numberOfBets += 1;\n        contractBalance += msg.value;\n\n        emit LogUserPlacedBet(msg.sender, sideTaken);\n    }\n\n    function getAllUsersBetting() public view returns (address[] memory) {\n        return usersBetting;\n    }\n\n    function getBetDetails() public view returns (string memory, int, int, uint) {\n        return (symbol, line, spread, expiration);\n    }\n\n    function getSideOfBetFromString(string memory _side) internal pure returns (SideOfBet sideOfBet) {\n        if (keccak256(abi.encodePacked((_side))) == keccak256(abi.encodePacked((\"over\")))) {\n            return SideOfBet.OVER;\n        } else if (keccak256(abi.encodePacked((_side))) == keccak256(abi.encodePacked((\"under\")))) {\n            return SideOfBet.UNDER;\n        }\n\n        require(false, \"Side of bet must be either: 'over' or 'under'.\");\n    }\n\n    function getCurrentPrice() public view returns (int) { // change to view as it won't be pure\n        (, int price, , , ) = priceFeed.latestRoundData();\n        return price;\n        // return 3500; // Test number\n    }\n\n    function kill(uint _outstandingBets) public {\n        require(_outstandingBets == 0, \"Contract still has unresolved bets\");\n        (bool success, ) = owner.call{value: contractBalance}(\"\");\n        require(success, \"Failed to send Ether\");\n    }\n\n    function resolveBet() public {\n        require(msg.sender == owner, \"Only contract owner can resolve bet.\");\n        int currentPrice = getCurrentPrice() * (10**10);\n        SideOfBet winningSide = SideOfBet.NONE;\n\n        if (currentPrice > line + spread) {\n            winningSide = SideOfBet.OVER;\n        } else if (currentPrice < line - spread) {\n            winningSide = SideOfBet.UNDER;\n        }\n\n        uint outstandingBets = numberOfBets;\n        for (uint8 i = 0; i < numberOfBets; i++) {\n            address userAddress = usersBetting[i];\n            PlacedBet storage bet = betsByUser[userAddress];\n            if (bet.isBetting && bet.side == winningSide) {\n                payout(userAddress, bet.betSize);\n            }\n\n            outstandingBets--;\n        }\n\n        kill(outstandingBets);\n    }\n\n    function payout(address _bettor, uint _betSize) internal {\n        uint toWithdraw = uint(_betSize) * uint(payoutMultiplier) / 10;\n        require(contractBalance >= toWithdraw, \"Insufficient funds to withdraw.\");\n\n        contractBalance -= toWithdraw;\n        (bool success, ) = _bettor.call{value: toWithdraw}(\"\");\n        string memory failMessage = string(\n            abi.encodePacked(\"Failed to send Ether to bet winner with address: \", _bettor)\n        );\n        require(success, failMessage);\n\n        emit LogPayoutToUser(_bettor, toWithdraw);\n    }\n\n    function removeFromUsersBetting(address _address) internal {\n        uint256 index;\n        for (uint i = 0; i < usersBetting.length; i++) {\n            if (usersBetting[i] == _address) {\n                index = i;\n            }\n        }\n        usersBetting[index] = usersBetting[usersBetting.length - 1];\n        usersBetting.pop();\n    }\n}\n",
  "sourcePath": "/Users/efecarranza/projects/sportsbetx/contracts/Bet.sol",
  "compiler": {
    "name": "solc",
    "version": "0.8.11+commit.d7f03943.Emscripten.clang"
  },
  "schemaVersion": "3.4.4",
  "updatedAt": "2022-01-15T23:29:07.559Z",
  "devdoc": {
    "kind": "dev",
    "methods": {},
    "version": 1
  },
  "userdoc": {
    "kind": "user",
    "methods": {},
    "version": 1
  }
}