{
  "contractName": "Bet",
  "abi": [
    {
      "inputs": [
        {
          "internalType": "string",
          "name": "_symbol",
          "type": "string"
        },
        {
          "internalType": "int256",
          "name": "_line",
          "type": "int256"
        },
        {
          "internalType": "int256",
          "name": "_spread",
          "type": "int256"
        },
        {
          "internalType": "int256",
          "name": "_maxBetSize",
          "type": "int256"
        },
        {
          "internalType": "int256",
          "name": "_multiplier",
          "type": "int256"
        },
        {
          "internalType": "uint256",
          "name": "_expiration",
          "type": "uint256"
        }
      ],
      "stateMutability": "nonpayable",
      "type": "constructor"
    },
    {
      "anonymous": false,
      "inputs": [
        {
          "indexed": false,
          "internalType": "address",
          "name": "_payout",
          "type": "address"
        },
        {
          "indexed": false,
          "internalType": "uint256",
          "name": "_amount",
          "type": "uint256"
        }
      ],
      "name": "LogPayoutToUser",
      "type": "event"
    },
    {
      "anonymous": false,
      "inputs": [
        {
          "indexed": false,
          "internalType": "address",
          "name": "_address",
          "type": "address"
        },
        {
          "indexed": false,
          "internalType": "enum Bet.SideOfBet",
          "name": "_side",
          "type": "uint8"
        }
      ],
      "name": "LogUserCancelledBet",
      "type": "event"
    },
    {
      "anonymous": false,
      "inputs": [
        {
          "indexed": false,
          "internalType": "address",
          "name": "_address",
          "type": "address"
        },
        {
          "indexed": false,
          "internalType": "enum Bet.SideOfBet",
          "name": "_side",
          "type": "uint8"
        }
      ],
      "name": "LogUserPlacedBet",
      "type": "event"
    },
    {
      "inputs": [
        {
          "internalType": "address",
          "name": "",
          "type": "address"
        }
      ],
      "name": "betsByUser",
      "outputs": [
        {
          "internalType": "address",
          "name": "bettor",
          "type": "address"
        },
        {
          "internalType": "enum Bet.SideOfBet",
          "name": "side",
          "type": "uint8"
        },
        {
          "internalType": "uint256",
          "name": "betSize",
          "type": "uint256"
        },
        {
          "internalType": "bool",
          "name": "isBetting",
          "type": "bool"
        }
      ],
      "stateMutability": "view",
      "type": "function"
    },
    {
      "inputs": [],
      "name": "contractBalance",
      "outputs": [
        {
          "internalType": "uint256",
          "name": "",
          "type": "uint256"
        }
      ],
      "stateMutability": "view",
      "type": "function"
    },
    {
      "inputs": [],
      "name": "expiration",
      "outputs": [
        {
          "internalType": "uint256",
          "name": "",
          "type": "uint256"
        }
      ],
      "stateMutability": "view",
      "type": "function"
    },
    {
      "inputs": [],
      "name": "isLive",
      "outputs": [
        {
          "internalType": "bool",
          "name": "",
          "type": "bool"
        }
      ],
      "stateMutability": "view",
      "type": "function"
    },
    {
      "inputs": [],
      "name": "line",
      "outputs": [
        {
          "internalType": "int256",
          "name": "",
          "type": "int256"
        }
      ],
      "stateMutability": "view",
      "type": "function"
    },
    {
      "inputs": [],
      "name": "maxBetSize",
      "outputs": [
        {
          "internalType": "int256",
          "name": "",
          "type": "int256"
        }
      ],
      "stateMutability": "view",
      "type": "function"
    },
    {
      "inputs": [],
      "name": "numberOfBets",
      "outputs": [
        {
          "internalType": "uint8",
          "name": "",
          "type": "uint8"
        }
      ],
      "stateMutability": "view",
      "type": "function"
    },
    {
      "inputs": [],
      "name": "owner",
      "outputs": [
        {
          "internalType": "address payable",
          "name": "",
          "type": "address"
        }
      ],
      "stateMutability": "view",
      "type": "function"
    },
    {
      "inputs": [],
      "name": "payoutMultiplier",
      "outputs": [
        {
          "internalType": "int256",
          "name": "",
          "type": "int256"
        }
      ],
      "stateMutability": "view",
      "type": "function"
    },
    {
      "inputs": [],
      "name": "spread",
      "outputs": [
        {
          "internalType": "int256",
          "name": "",
          "type": "int256"
        }
      ],
      "stateMutability": "view",
      "type": "function"
    },
    {
      "inputs": [],
      "name": "symbol",
      "outputs": [
        {
          "internalType": "string",
          "name": "",
          "type": "string"
        }
      ],
      "stateMutability": "view",
      "type": "function"
    },
    {
      "inputs": [
        {
          "internalType": "uint256",
          "name": "",
          "type": "uint256"
        }
      ],
      "name": "usersBetting",
      "outputs": [
        {
          "internalType": "address",
          "name": "",
          "type": "address"
        }
      ],
      "stateMutability": "view",
      "type": "function"
    },
    {
      "inputs": [],
      "name": "cancelBet",
      "outputs": [],
      "stateMutability": "nonpayable",
      "type": "function"
    },
    {
      "inputs": [
        {
          "internalType": "string",
          "name": "_side",
          "type": "string"
        }
      ],
      "name": "placeBet",
      "outputs": [],
      "stateMutability": "payable",
      "type": "function"
    },
    {
      "inputs": [],
      "name": "getAllUsersBetting",
      "outputs": [
        {
          "internalType": "address[]",
          "name": "",
          "type": "address[]"
        }
      ],
      "stateMutability": "view",
      "type": "function"
    },
    {
      "inputs": [],
      "name": "getBetDetails",
      "outputs": [
        {
          "internalType": "string",
          "name": "",
          "type": "string"
        },
        {
          "internalType": "int256",
          "name": "",
          "type": "int256"
        },
        {
          "internalType": "int256",
          "name": "",
          "type": "int256"
        },
        {
          "internalType": "uint256",
          "name": "",
          "type": "uint256"
        }
      ],
      "stateMutability": "view",
      "type": "function"
    },
    {
      "inputs": [],
      "name": "getCurrentPrice",
      "outputs": [
        {
          "internalType": "int256",
          "name": "",
          "type": "int256"
        }
      ],
      "stateMutability": "view",
      "type": "function"
    },
    {
      "inputs": [
        {
          "internalType": "uint256",
          "name": "_outstandingBets",
          "type": "uint256"
        }
      ],
      "name": "kill",
      "outputs": [],
      "stateMutability": "nonpayable",
      "type": "function"
    },
    {
      "inputs": [],
      "name": "resolveBet",
      "outputs": [],
      "stateMutability": "nonpayable",
      "type": "function"
    }
  ],
  "bytecode": "0x608060405233600160006101000a81548173ffffffffffffffffffffffffffffffffffffffff021916908373ffffffffffffffffffffffffffffffffffffffff16021790555060018060146101000a81548160ff0219169083151502179055506000600960006101000a81548160ff021916908360ff1602179055503480156200008857600080fd5b50604051620030f8380380620030f88339818101604052810190620000ae919062000453565b8560029080519060200190620000c692919062000190565b50670de0b6b3a764000085620000dd91906200053d565b6003819055506012600a85620000f491906200053d565b6200010091906200053d565b600481905550670de0b6b3a7640000836200011c91906200053d565b6005819055508160078190555080600681905550739326bfa02add2366b30bacb125260af6410313316000806101000a81548173ffffffffffffffffffffffffffffffffffffffff021916908373ffffffffffffffffffffffffffffffffffffffff160217905550505050505050620006c9565b8280546200019e9062000693565b90600052602060002090601f016020900481019282620001c257600085556200020e565b82601f10620001dd57805160ff19168380011785556200020e565b828001600101855582156200020e579182015b828111156200020d578251825591602001919060010190620001f0565b5b5090506200021d919062000221565b5090565b5b808211156200023c57600081600090555060010162000222565b5090565b6000604051905090565b600080fd5b600080fd5b600080fd5b600080fd5b6000601f19601f8301169050919050565b7f4e487b7100000000000000000000000000000000000000000000000000000000600052604160045260246000fd5b620002a9826200025e565b810181811067ffffffffffffffff82111715620002cb57620002ca6200026f565b5b80604052505050565b6000620002e062000240565b9050620002ee82826200029e565b919050565b600067ffffffffffffffff8211156200031157620003106200026f565b5b6200031c826200025e565b9050602081019050919050565b60005b83811015620003495780820151818401526020810190506200032c565b8381111562000359576000848401525b50505050565b6000620003766200037084620002f3565b620002d4565b90508281526020810184848401111562000395576200039462000259565b5b620003a284828562000329565b509392505050565b600082601f830112620003c257620003c162000254565b5b8151620003d48482602086016200035f565b91505092915050565b6000819050919050565b620003f281620003dd565b8114620003fe57600080fd5b50565b6000815190506200041281620003e7565b92915050565b6000819050919050565b6200042d8162000418565b81146200043957600080fd5b50565b6000815190506200044d8162000422565b92915050565b60008060008060008060c087890312156200047357620004726200024a565b5b600087015167ffffffffffffffff8111156200049457620004936200024f565b5b620004a289828a01620003aa565b9650506020620004b589828a0162000401565b9550506040620004c889828a0162000401565b9450506060620004db89828a0162000401565b9350506080620004ee89828a0162000401565b92505060a06200050189828a016200043c565b9150509295509295509295565b7f4e487b7100000000000000000000000000000000000000000000000000000000600052601160045260246000fd5b60006200054a82620003dd565b91506200055783620003dd565b9250827f7fffffffffffffffffffffffffffffffffffffffffffffffffffffffffffffff04821160008413600084131616156200059957620005986200050e565b5b817f80000000000000000000000000000000000000000000000000000000000000000583126000841260008413161615620005d957620005d86200050e565b5b827f800000000000000000000000000000000000000000000000000000000000000005821260008413600084121616156200061957620006186200050e565b5b827f7fffffffffffffffffffffffffffffffffffffffffffffffffffffffffffffff05821260008412600084121616156200065957620006586200050e565b5b828202905092915050565b7f4e487b7100000000000000000000000000000000000000000000000000000000600052602260045260246000fd5b60006002820490506001821680620006ac57607f821691505b60208210811415620006c357620006c262000664565b5b50919050565b612a1f80620006d96000396000f3fe6080604052600436106101145760003560e01c80638b7afe2e116100a0578063b56b835311610064578063b56b835314610354578063b8f7a6651461037f578063cfc2ca32146103aa578063d29a0025146103e7578063eb91d37e1461041057610114565b80638b7afe2e146102a05780638da5cb5b146102cb5780638fced626146102f657806395d89b411461030d57806397bfeb881461033857610114565b8063473fede8116100e7578063473fede8146101da5780635c25c76c146102055780635c812737146102305780637b6d79f11461025b5780638a2fd0291461027257610114565b80632ca8c6d3146101195780632f37290714610144578063419ae937146101845780634665096d146101af575b600080fd5b34801561012557600080fd5b5061012e61043b565b60405161013b91906115dd565b60405180910390f35b34801561015057600080fd5b5061016b6004803603810190610166919061166a565b61044e565b60405161017b9493929190611751565b60405180910390f35b34801561019057600080fd5b506101996104b8565b6040516101a69190611854565b60405180910390f35b3480156101bb57600080fd5b506101c4610546565b6040516101d19190611876565b60405180910390f35b3480156101e657600080fd5b506101ef61054c565b6040516101fc91906118aa565b60405180910390f35b34801561021157600080fd5b5061021a610552565b60405161022791906118aa565b60405180910390f35b34801561023c57600080fd5b50610245610558565b60405161025291906118aa565b60405180910390f35b34801561026757600080fd5b5061027061055e565b005b34801561027e57600080fd5b50610287610851565b604051610297949392919061195e565b60405180910390f35b3480156102ac57600080fd5b506102b56108fd565b6040516102c29190611876565b60405180910390f35b3480156102d757600080fd5b506102e0610903565b6040516102ed91906119cb565b60405180910390f35b34801561030257600080fd5b5061030b610929565b005b34801561031957600080fd5b50610322610b70565b60405161032f91906119e6565b60405180910390f35b610352600480360381019061034d9190611b3d565b610bfe565b005b34801561036057600080fd5b50610369610f57565b60405161037691906118aa565b60405180910390f35b34801561038b57600080fd5b50610394610f5d565b6040516103a19190611b86565b60405180910390f35b3480156103b657600080fd5b506103d160048036038101906103cc9190611bcd565b610f70565b6040516103de9190611bfa565b60405180910390f35b3480156103f357600080fd5b5061040e60048036038101906104099190611bcd565b610faf565b005b34801561041c57600080fd5b506104256110fd565b60405161043291906118aa565b60405180910390f35b600960009054906101000a900460ff1681565b60086020528060005260406000206000915090508060000160009054906101000a900473ffffffffffffffffffffffffffffffffffffffff16908060000160149054906101000a900460ff16908060010154908060020160009054906101000a900460ff16905084565b6060600b80548060200260200160405190810160405280929190818152602001828054801561053c57602002820191906000526020600020905b8160009054906101000a900473ffffffffffffffffffffffffffffffffffffffff1673ffffffffffffffffffffffffffffffffffffffff16815260200190600101908083116104f2575b5050505050905090565b60065481565b60055481565b60045481565b60075481565b60011515600860003373ffffffffffffffffffffffffffffffffffffffff1673ffffffffffffffffffffffffffffffffffffffff16815260200190815260200160002060020160009054906101000a900460ff161515146105f4576040517f08c379a00000000000000000000000000000000000000000000000000000000081526004016105eb90611c61565b60405180910390fd5b6000600860003373ffffffffffffffffffffffffffffffffffffffff1673ffffffffffffffffffffffffffffffffffffffff168152602001908152602001600020905060008160010154905080600a541015610685576040517f08c379a000000000000000000000000000000000000000000000000000000000815260040161067c90611cf3565b60405180910390fd5b60008260020160006101000a81548160ff0219169083151502179055506000826001018190555060028260000160146101000a81548160ff021916908360028111156106d4576106d36116a6565b5b02179055506001600960008282829054906101000a900460ff166106f89190611d42565b92506101000a81548160ff021916908360ff16021790555080600a60008282546107229190611d76565b925050819055506107323361119c565b60008260000160009054906101000a900473ffffffffffffffffffffffffffffffffffffffff1673ffffffffffffffffffffffffffffffffffffffff168260405161077c90611ddb565b60006040518083038185875af1925050503d80600081146107b9576040519150601f19603f3d011682016040523d82523d6000602084013e6107be565b606091505b5050905080610802576040517f08c379a00000000000000000000000000000000000000000000000000000000081526004016107f990611e3c565b60405180910390fd5b7f5c0ede0ff70e8d91413ba60230ee5b241c5f1d8c42a7ddff28700b94be01c0d4338460000160149054906101000a900460ff16604051610844929190611e5c565b60405180910390a1505050565b60606000806000600260035460045460065483805461086f90611eb4565b80601f016020809104026020016040519081016040528092919081815260200182805461089b90611eb4565b80156108e85780601f106108bd576101008083540402835291602001916108e8565b820191906000526020600020905b8154815290600101906020018083116108cb57829003601f168201915b50505050509350935093509350935090919293565b600a5481565b600160009054906101000a900473ffffffffffffffffffffffffffffffffffffffff1681565b600160009054906101000a900473ffffffffffffffffffffffffffffffffffffffff1673ffffffffffffffffffffffffffffffffffffffff163373ffffffffffffffffffffffffffffffffffffffff16146109b9576040517f08c379a00000000000000000000000000000000000000000000000000000000081526004016109b090611f58565b60405180910390fd5b60006402540be4006109c96110fd565b6109d39190611f78565b90506000600290506004546003546109eb919061208f565b8213156109fb5760009050610a18565b600454600354610a0b9190612123565b821215610a1757600190505b5b6000600960009054906101000a900460ff1660ff16905060005b600960009054906101000a900460ff1660ff168160ff161015610b61576000600b8260ff1681548110610a6857610a676121b7565b5b9060005260206000200160009054906101000a900473ffffffffffffffffffffffffffffffffffffffff1690506000600860008373ffffffffffffffffffffffffffffffffffffffff1673ffffffffffffffffffffffffffffffffffffffff16815260200190815260200160002090508060020160009054906101000a900460ff168015610b2a5750846002811115610b0457610b036116a6565b5b8160000160149054906101000a900460ff166002811115610b2857610b276116a6565b5b145b15610b3e57610b3d828260010154611332565b5b8380610b49906121e6565b94505050508080610b5990612210565b915050610a32565b50610b6b81610faf565b505050565b60028054610b7d90611eb4565b80601f0160208091040260200160405190810160405280929190818152602001828054610ba990611eb4565b8015610bf65780601f10610bcb57610100808354040283529160200191610bf6565b820191906000526020600020905b815481529060010190602001808311610bd957829003601f168201915b505050505081565b600160009054906101000a900473ffffffffffffffffffffffffffffffffffffffff1673ffffffffffffffffffffffffffffffffffffffff163373ffffffffffffffffffffffffffffffffffffffff161415610c8f576040517f08c379a0000000000000000000000000000000000000000000000000000000008152600401610c8690612286565b60405180910390fd5b60001515600860003373ffffffffffffffffffffffffffffffffffffffff1673ffffffffffffffffffffffffffffffffffffffff16815260200190815260200160002060020160009054906101000a900460ff16151514610d25576040517f08c379a0000000000000000000000000000000000000000000000000000000008152600401610d1c906122f2565b60405180910390fd5b6000610d30826114c2565b9050600b339080600181540180825580915050600190039060005260206000200160009091909190916101000a81548173ffffffffffffffffffffffffffffffffffffffff021916908373ffffffffffffffffffffffffffffffffffffffff160217905550600060405180608001604052803373ffffffffffffffffffffffffffffffffffffffff168152602001836002811115610dd157610dd06116a6565b5b815260200134815260200160011515815250905080600860003373ffffffffffffffffffffffffffffffffffffffff1673ffffffffffffffffffffffffffffffffffffffff16815260200190815260200160002060008201518160000160006101000a81548173ffffffffffffffffffffffffffffffffffffffff021916908373ffffffffffffffffffffffffffffffffffffffff16021790555060208201518160000160146101000a81548160ff02191690836002811115610e9757610e966116a6565b5b02179055506040820151816001015560608201518160020160006101000a81548160ff0219169083151502179055509050506001600960008282829054906101000a900460ff16610ee89190612312565b92506101000a81548160ff021916908360ff16021790555034600a6000828254610f129190612349565b925050819055507f5c0ede0ff70e8d91413ba60230ee5b241c5f1d8c42a7ddff28700b94be01c0d43383604051610f4a929190611e5c565b60405180910390a1505050565b60035481565b600160149054906101000a900460ff1681565b600b8181548110610f8057600080fd5b906000526020600020016000915054906101000a900473ffffffffffffffffffffffffffffffffffffffff1681565b60008114610ff2576040517f08c379a0000000000000000000000000000000000000000000000000000000008152600401610fe990612411565b60405180910390fd5b6000600160009054906101000a900473ffffffffffffffffffffffffffffffffffffffff1673ffffffffffffffffffffffffffffffffffffffff16600a5460405161103c90611ddb565b60006040518083038185875af1925050503d8060008114611079576040519150601f19603f3d011682016040523d82523d6000602084013e61107e565b606091505b50509050806110c2576040517f08c379a00000000000000000000000000000000000000000000000000000000081526004016110b99061247d565b60405180910390fd5b600160009054906101000a900473ffffffffffffffffffffffffffffffffffffffff1673ffffffffffffffffffffffffffffffffffffffff16ff5b60008060008054906101000a900473ffffffffffffffffffffffffffffffffffffffff1673ffffffffffffffffffffffffffffffffffffffff1663feaf968c6040518163ffffffff1660e01b815260040160a060405180830381865afa15801561116b573d6000803e3d6000fd5b505050506040513d601f19601f8201168201806040525081019061118f9190612520565b5050509150508091505090565b600080600090505b600b8054905081101561123a578273ffffffffffffffffffffffffffffffffffffffff16600b82815481106111dc576111db6121b7565b5b9060005260206000200160009054906101000a900473ffffffffffffffffffffffffffffffffffffffff1673ffffffffffffffffffffffffffffffffffffffff161415611227578091505b80806112329061259b565b9150506111a4565b50600b6001600b8054905061124f9190611d76565b815481106112605761125f6121b7565b5b9060005260206000200160009054906101000a900473ffffffffffffffffffffffffffffffffffffffff16600b828154811061129f5761129e6121b7565b5b9060005260206000200160006101000a81548173ffffffffffffffffffffffffffffffffffffffff021916908373ffffffffffffffffffffffffffffffffffffffff160217905550600b8054806112f9576112f86125e4565b5b6001900381819060005260206000200160006101000a81549073ffffffffffffffffffffffffffffffffffffffff021916905590555050565b6000600a600754836113449190612613565b61134e919061269c565b905080600a541015611395576040517f08c379a000000000000000000000000000000000000000000000000000000000815260040161138c90612719565b60405180910390fd5b80600a60008282546113a79190611d76565b9250508190555060008373ffffffffffffffffffffffffffffffffffffffff16826040516113d490611ddb565b60006040518083038185875af1925050503d8060008114611411576040519150601f19603f3d011682016040523d82523d6000602084013e611416565b606091505b5050905060008460405160200161142d91906127fe565b6040516020818303038152906040529050818190611481576040517f08c379a000000000000000000000000000000000000000000000000000000000815260040161147891906119e6565b60405180910390fd5b507fa3ca6c6f1413e28d2a8c7aaa386259e7c61bbe6970cfb14720b44ec9a0ddceed85846040516114b3929190612824565b60405180910390a15050505050565b60006040516020016114d390612899565b60405160208183030381529060405280519060200120826040516020016114fa91906128df565b60405160208183030381529060405280519060200120141561151f57600090506115bc565b60405160200161152e90612942565b604051602081830303815290604052805190602001208260405160200161155591906128df565b60405160208183030381529060405280519060200120141561157a57600190506115bc565b60006115bb576040517f08c379a00000000000000000000000000000000000000000000000000000000081526004016115b2906129c9565b60405180910390fd5b5b919050565b600060ff82169050919050565b6115d7816115c1565b82525050565b60006020820190506115f260008301846115ce565b92915050565b6000604051905090565b600080fd5b600080fd5b600073ffffffffffffffffffffffffffffffffffffffff82169050919050565b60006116378261160c565b9050919050565b6116478161162c565b811461165257600080fd5b50565b6000813590506116648161163e565b92915050565b6000602082840312156116805761167f611602565b5b600061168e84828501611655565b91505092915050565b6116a08161162c565b82525050565b7f4e487b7100000000000000000000000000000000000000000000000000000000600052602160045260246000fd5b600381106116e6576116e56116a6565b5b50565b60008190506116f7826116d5565b919050565b6000611707826116e9565b9050919050565b611717816116fc565b82525050565b6000819050919050565b6117308161171d565b82525050565b60008115159050919050565b61174b81611736565b82525050565b60006080820190506117666000830187611697565b611773602083018661170e565b6117806040830185611727565b61178d6060830184611742565b95945050505050565b600081519050919050565b600082825260208201905092915050565b6000819050602082019050919050565b6117cb8161162c565b82525050565b60006117dd83836117c2565b60208301905092915050565b6000602082019050919050565b600061180182611796565b61180b81856117a1565b9350611816836117b2565b8060005b8381101561184757815161182e88826117d1565b9750611839836117e9565b92505060018101905061181a565b5085935050505092915050565b6000602082019050818103600083015261186e81846117f6565b905092915050565b600060208201905061188b6000830184611727565b92915050565b6000819050919050565b6118a481611891565b82525050565b60006020820190506118bf600083018461189b565b92915050565b600081519050919050565b600082825260208201905092915050565b60005b838110156118ff5780820151818401526020810190506118e4565b8381111561190e576000848401525b50505050565b6000601f19601f8301169050919050565b6000611930826118c5565b61193a81856118d0565b935061194a8185602086016118e1565b61195381611914565b840191505092915050565b600060808201905081810360008301526119788187611925565b9050611987602083018661189b565b611994604083018561189b565b6119a16060830184611727565b95945050505050565b60006119b58261160c565b9050919050565b6119c5816119aa565b82525050565b60006020820190506119e060008301846119bc565b92915050565b60006020820190508181036000830152611a008184611925565b905092915050565b600080fd5b600080fd5b7f4e487b7100000000000000000000000000000000000000000000000000000000600052604160045260246000fd5b611a4a82611914565b810181811067ffffffffffffffff82111715611a6957611a68611a12565b5b80604052505050565b6000611a7c6115f8565b9050611a888282611a41565b919050565b600067ffffffffffffffff821115611aa857611aa7611a12565b5b611ab182611914565b9050602081019050919050565b82818337600083830152505050565b6000611ae0611adb84611a8d565b611a72565b905082815260208101848484011115611afc57611afb611a0d565b5b611b07848285611abe565b509392505050565b600082601f830112611b2457611b23611a08565b5b8135611b34848260208601611acd565b91505092915050565b600060208284031215611b5357611b52611602565b5b600082013567ffffffffffffffff811115611b7157611b70611607565b5b611b7d84828501611b0f565b91505092915050565b6000602082019050611b9b6000830184611742565b92915050565b611baa8161171d565b8114611bb557600080fd5b50565b600081359050611bc781611ba1565b92915050565b600060208284031215611be357611be2611602565b5b6000611bf184828501611bb8565b91505092915050565b6000602082019050611c0f6000830184611697565b92915050565b7f5573657220686173206e6f2062657420746f2063616e63656c2e000000000000600082015250565b6000611c4b601a836118d0565b9150611c5682611c15565b602082019050919050565b60006020820190508181036000830152611c7a81611c3e565b9050919050565b7f596f752061726520747279696e6720746f20776974686472617720746f6f206d60008201527f7563682045746865722e00000000000000000000000000000000000000000000602082015250565b6000611cdd602a836118d0565b9150611ce882611c81565b604082019050919050565b60006020820190508181036000830152611d0c81611cd0565b9050919050565b7f4e487b7100000000000000000000000000000000000000000000000000000000600052601160045260246000fd5b6000611d4d826115c1565b9150611d58836115c1565b925082821015611d6b57611d6a611d13565b5b828203905092915050565b6000611d818261171d565b9150611d8c8361171d565b925082821015611d9f57611d9e611d13565b5b828203905092915050565b600081905092915050565b50565b6000611dc5600083611daa565b9150611dd082611db5565b600082019050919050565b6000611de682611db8565b9150819050919050565b7f4661696c656420746f2072657475726e20457468657200000000000000000000600082015250565b6000611e266016836118d0565b9150611e3182611df0565b602082019050919050565b60006020820190508181036000830152611e5581611e19565b9050919050565b6000604082019050611e716000830185611697565b611e7e602083018461170e565b9392505050565b7f4e487b7100000000000000000000000000000000000000000000000000000000600052602260045260246000fd5b60006002820490506001821680611ecc57607f821691505b60208210811415611ee057611edf611e85565b5b50919050565b7f4f6e6c7920636f6e7472616374206f776e65722063616e207265736f6c76652060008201527f6265742e00000000000000000000000000000000000000000000000000000000602082015250565b6000611f426024836118d0565b9150611f4d82611ee6565b604082019050919050565b60006020820190508181036000830152611f7181611f35565b9050919050565b6000611f8382611891565b9150611f8e83611891565b9250827f7fffffffffffffffffffffffffffffffffffffffffffffffffffffffffffffff0482116000841360008413161615611fcd57611fcc611d13565b5b817f8000000000000000000000000000000000000000000000000000000000000000058312600084126000841316161561200a57612009611d13565b5b827f8000000000000000000000000000000000000000000000000000000000000000058212600084136000841216161561204757612046611d13565b5b827f7fffffffffffffffffffffffffffffffffffffffffffffffffffffffffffffff058212600084126000841216161561208457612083611d13565b5b828202905092915050565b600061209a82611891565b91506120a583611891565b9250817f7fffffffffffffffffffffffffffffffffffffffffffffffffffffffffffffff038313600083121516156120e0576120df611d13565b5b817f800000000000000000000000000000000000000000000000000000000000000003831260008312161561211857612117611d13565b5b828201905092915050565b600061212e82611891565b915061213983611891565b9250827f80000000000000000000000000000000000000000000000000000000000000000182126000841215161561217457612173611d13565b5b827f7fffffffffffffffffffffffffffffffffffffffffffffffffffffffffffffff0182136000841216156121ac576121ab611d13565b5b828203905092915050565b7f4e487b7100000000000000000000000000000000000000000000000000000000600052603260045260246000fd5b60006121f18261171d565b9150600082141561220557612204611d13565b5b600182039050919050565b600061221b826115c1565b915060ff82141561222f5761222e611d13565b5b600182019050919050565b7f43726561746f722063616e6e6f7420706c616365206265742e00000000000000600082015250565b60006122706019836118d0565b915061227b8261223a565b602082019050919050565b6000602082019050818103600083015261229f81612263565b9050919050565b7f5573657220616c72656164792068617320706c616365642061206265742e0000600082015250565b60006122dc601e836118d0565b91506122e7826122a6565b602082019050919050565b6000602082019050818103600083015261230b816122cf565b9050919050565b600061231d826115c1565b9150612328836115c1565b92508260ff0382111561233e5761233d611d13565b5b828201905092915050565b60006123548261171d565b915061235f8361171d565b9250827fffffffffffffffffffffffffffffffffffffffffffffffffffffffffffffffff0382111561239457612393611d13565b5b828201905092915050565b7f436f6e7472616374207374696c6c2068617320756e7265736f6c76656420626560008201527f7473000000000000000000000000000000000000000000000000000000000000602082015250565b60006123fb6022836118d0565b91506124068261239f565b604082019050919050565b6000602082019050818103600083015261242a816123ee565b9050919050565b7f4661696c656420746f2073656e64204574686572000000000000000000000000600082015250565b60006124676014836118d0565b915061247282612431565b602082019050919050565b600060208201905081810360008301526124968161245a565b9050919050565b600069ffffffffffffffffffff82169050919050565b6124bc8161249d565b81146124c757600080fd5b50565b6000815190506124d9816124b3565b92915050565b6124e881611891565b81146124f357600080fd5b50565b600081519050612505816124df565b92915050565b60008151905061251a81611ba1565b92915050565b600080600080600060a0868803121561253c5761253b611602565b5b600061254a888289016124ca565b955050602061255b888289016124f6565b945050604061256c8882890161250b565b935050606061257d8882890161250b565b925050608061258e888289016124ca565b9150509295509295909350565b60006125a68261171d565b91507fffffffffffffffffffffffffffffffffffffffffffffffffffffffffffffffff8214156125d9576125d8611d13565b5b600182019050919050565b7f4e487b7100000000000000000000000000000000000000000000000000000000600052603160045260246000fd5b600061261e8261171d565b91506126298361171d565b9250817fffffffffffffffffffffffffffffffffffffffffffffffffffffffffffffffff048311821515161561266257612661611d13565b5b828202905092915050565b7f4e487b7100000000000000000000000000000000000000000000000000000000600052601260045260246000fd5b60006126a78261171d565b91506126b28361171d565b9250826126c2576126c161266d565b5b828204905092915050565b7f496e73756666696369656e742066756e647320746f2077697468647261772e00600082015250565b6000612703601f836118d0565b915061270e826126cd565b602082019050919050565b60006020820190508181036000830152612732816126f6565b9050919050565b600081905092915050565b7f4661696c656420746f2073656e6420457468657220746f206265742077696e6e60008201527f6572207769746820616464726573733a20000000000000000000000000000000602082015250565b60006127a0603183612739565b91506127ab82612744565b603182019050919050565b60008160601b9050919050565b60006127ce826127b6565b9050919050565b60006127e0826127c3565b9050919050565b6127f86127f38261162c565b6127d5565b82525050565b600061280982612793565b915061281582846127e7565b60148201915081905092915050565b60006040820190506128396000830185611697565b6128466020830184611727565b9392505050565b7f6f76657200000000000000000000000000000000000000000000000000000000600082015250565b6000612883600483612739565b915061288e8261284d565b600482019050919050565b60006128a482612876565b9150819050919050565b60006128b9826118c5565b6128c38185612739565b93506128d38185602086016118e1565b80840191505092915050565b60006128eb82846128ae565b915081905092915050565b7f756e646572000000000000000000000000000000000000000000000000000000600082015250565b600061292c600583612739565b9150612937826128f6565b600582019050919050565b600061294d8261291f565b9150819050919050565b7f53696465206f6620626574206d757374206265206569746865723a20276f766560008201527f7227206f722027756e646572272e000000000000000000000000000000000000602082015250565b60006129b3602e836118d0565b91506129be82612957565b604082019050919050565b600060208201905081810360008301526129e2816129a6565b905091905056fea2646970667358221220fd893cae33ac4db4930f9af25911b1cf395edbbe555b8b0bf3d37e8ce31917a864736f6c634300080b0033",
  "immutableReferences": {},
  "source": "// SPDX-License-Identifier: UNLICENSED\npragma solidity 0.8.11;\n\nimport \"@chainlink/contracts/src/v0.8/interfaces/AggregatorV3Interface.sol\";\n\n/// @title Bet factory contract.\n/// @author Fermin Carranza\n/// @notice Bet contract. Only ETH/USD currently supported.\ncontract Bet {\n    /// Events - Publicize events to listeners.\n    event LogUserPlacedBet(address _address, SideOfBet _side);\n    event LogUserCancelledBet(address _address, SideOfBet _side);\n    event LogPayoutToUser(address _payout, uint _amount);\n\n    enum SideOfBet { OVER, UNDER, NONE }\n\n    /// Chainlink price feed\n    AggregatorV3Interface internal priceFeed;\n\n    /// Structure that represents a placed bet by a user.\n    struct PlacedBet {\n        address bettor;\n        SideOfBet side;\n        uint betSize;\n        bool isBetting;\n    }\n\n    /// Storage variables.\n    address payable public owner = payable(msg.sender);\n    bool public isLive = true;\n    string public symbol;\n    int public line;\n    int public spread;\n    int public maxBetSize;\n    uint public expiration;\n    int public payoutMultiplier; // Divide by 10 for float\n    mapping (address => PlacedBet) public betsByUser;\n    uint8 public numberOfBets = 0;\n    uint public contractBalance;\n    address[] public usersBetting;\n\n    constructor(string memory _symbol, int _line, int _spread, int _maxBetSize, int _multiplier, uint _expiration) {\n        symbol = _symbol;\n        line = _line * 10**18;\n        spread = _spread * 10*18;\n        maxBetSize = _maxBetSize * 10**18;\n        payoutMultiplier = _multiplier;\n        expiration = _expiration;\n        priceFeed = AggregatorV3Interface(0x9326BFA02ADD2366b30bacB125260Af641031331);\n        // Rinkeby: 0x8A753747A1Fa494EC906cE90E9f37563A8AF630e\n        // Kovan:0x9326BFA02ADD2366b30bacB125260Af641031331\n    }\n\n    /// @notice Cancel an existing bet.\n    /// @dev Only one bet per user currently supported.\n    function cancelBet() public {\n        require(betsByUser[msg.sender].isBetting == true, \"User has no bet to cancel.\");\n        PlacedBet storage existingBet = betsByUser[msg.sender];\n        uint valueToReturn = existingBet.betSize;\n\n        require(contractBalance >= valueToReturn, \"You are trying to withdraw too much Ether.\");\n        existingBet.isBetting = false;\n        existingBet.betSize = 0;\n        existingBet.side = SideOfBet.NONE;\n\n        numberOfBets -= 1;\n        contractBalance -= valueToReturn;\n        removeFromUsersBetting(msg.sender);\n\n        (bool sent,) = existingBet.bettor.call{value: valueToReturn}(\"\");\n        require(sent, \"Failed to return Ether\");\n\n        emit LogUserPlacedBet(msg.sender, existingBet.side);\n    }\n    \n    /// @notice Place a new bet.\n    /// @dev Only one bet per user currently supported.\n    /// @param _side The side to take on the bet (over/under).\n    function placeBet(string memory _side) public payable {\n        require(msg.sender != owner, \"Creator cannot place bet.\");\n        require(betsByUser[msg.sender].isBetting == false, \"User already has placed a bet.\");\n        SideOfBet sideTaken = getSideOfBetFromString(_side);\n        usersBetting.push(msg.sender);\n        PlacedBet memory newBet = PlacedBet({\n            bettor: msg.sender,\n            side: sideTaken,\n            betSize: msg.value,\n            isBetting: true\n        });\n\n        betsByUser[msg.sender] = newBet;\n        numberOfBets += 1;\n        contractBalance += msg.value;\n\n        emit LogUserPlacedBet(msg.sender, sideTaken);\n    }\n\n    /// @notice List all users currently betting on this contract.\n    /// @return Returns an array of addresses.\n    function getAllUsersBetting() public view returns (address[] memory) {\n        return usersBetting;\n    }\n\n    /// @notice Returns bet's details.\n    /// @return Array containing: symbol, line, spread and expiration of bet.\n    function getBetDetails() public view returns (string memory, int, int, uint) {\n        return (symbol, line, spread, expiration);\n    }\n\n    /// @notice Utility method to return the enum value for side of bet taken.\n    /// @dev Internal only.\n    /// @return sideOfBet Side of bet taken.\n    function getSideOfBetFromString(string memory _side) internal pure returns (SideOfBet sideOfBet) {\n        if (keccak256(abi.encodePacked((_side))) == keccak256(abi.encodePacked((\"over\")))) {\n            return SideOfBet.OVER;\n        } else if (keccak256(abi.encodePacked((_side))) == keccak256(abi.encodePacked((\"under\")))) {\n            return SideOfBet.UNDER;\n        }\n\n        require(false, \"Side of bet must be either: 'over' or 'under'.\");\n    }\n\n    /// @notice Returns current price of security (currently only supports ETH/USD).\n    /// @dev Chainlink price feed.\n    /// @return int Returns integer value of security price.\n    function getCurrentPrice() public view returns (int) {\n        (, int price, , , ) = priceFeed.latestRoundData();\n        return price;\n        // return 3500; // Test number\n    }\n\n    /// @notice Send funds to parent contract and self destruct.\n    function kill(uint _outstandingBets) public {\n        require(_outstandingBets == 0, \"Contract still has unresolved bets\");\n        (bool success, ) = owner.call{value: contractBalance}(\"\");\n        require(success, \"Failed to send Ether\");\n        selfdestruct(owner);\n    }\n\n    /// @notice Resolves an outstanding bet contract at expiration. If winner, send corresponding funds.\n    function resolveBet() public {\n        require(msg.sender == owner, \"Only contract owner can resolve bet.\");\n        int currentPrice = getCurrentPrice() * (10**10);\n        SideOfBet winningSide = SideOfBet.NONE;\n\n        if (currentPrice > line + spread) {\n            winningSide = SideOfBet.OVER;\n        } else if (currentPrice < line - spread) {\n            winningSide = SideOfBet.UNDER;\n        }\n\n        uint outstandingBets = numberOfBets;\n        for (uint8 i = 0; i < numberOfBets; i++) {\n            address userAddress = usersBetting[i];\n            PlacedBet storage bet = betsByUser[userAddress];\n            if (bet.isBetting && bet.side == winningSide) {\n                payout(userAddress, bet.betSize);\n            }\n\n            outstandingBets--;\n        }\n\n        kill(outstandingBets);\n    }\n\n    /// @notice Send funds to winners of bet.\n    function payout(address _bettor, uint _betSize) internal {\n        uint toWithdraw = uint(_betSize) * uint(payoutMultiplier) / 10;\n        require(contractBalance >= toWithdraw, \"Insufficient funds to withdraw.\");\n\n        contractBalance -= toWithdraw;\n        (bool success, ) = _bettor.call{value: toWithdraw}(\"\");\n        string memory failMessage = string(\n            abi.encodePacked(\"Failed to send Ether to bet winner with address: \", _bettor)\n        );\n        require(success, failMessage);\n\n        emit LogPayoutToUser(_bettor, toWithdraw);\n    }\n\n    /// @notice Removes a user from current bettors if user cancels.\n    /// @dev Convenience method to remove from array.\n    function removeFromUsersBetting(address _address) internal {\n        uint256 index;\n        for (uint i = 0; i < usersBetting.length; i++) {\n            if (usersBetting[i] == _address) {\n                index = i;\n            }\n        }\n        usersBetting[index] = usersBetting[usersBetting.length - 1];\n        usersBetting.pop();\n    }\n}\n",
  "sourcePath": "/Users/efecarranza/projects/sportsbetx/contracts/Bet.sol",
  "compiler": {
    "name": "solc",
    "version": "0.8.11+commit.d7f03943.Emscripten.clang"
  },
  "schemaVersion": "3.4.4",
  "updatedAt": "2022-01-16T03:13:00.620Z",
  "devdoc": {
    "author": "Fermin Carranza",
    "kind": "dev",
    "methods": {
      "cancelBet()": {
        "details": "Only one bet per user currently supported."
      },
      "getAllUsersBetting()": {
        "returns": {
          "_0": "Returns an array of addresses."
        }
      },
      "getBetDetails()": {
        "returns": {
          "_0": "Array containing: symbol, line, spread and expiration of bet."
        }
      },
      "getCurrentPrice()": {
        "details": "Chainlink price feed.",
        "returns": {
          "_0": "int Returns integer value of security price."
        }
      },
      "placeBet(string)": {
        "details": "Only one bet per user currently supported.",
        "params": {
          "_side": "The side to take on the bet (over/under)."
        }
      }
    },
    "title": "Bet factory contract.",
    "version": 1
  },
  "userdoc": {
    "events": {
      "LogUserPlacedBet(address,uint8)": {
        "notice": "Events - Publicize events to listeners."
      }
    },
    "kind": "user",
    "methods": {
      "cancelBet()": {
        "notice": "Cancel an existing bet."
      },
      "getAllUsersBetting()": {
        "notice": "List all users currently betting on this contract."
      },
      "getBetDetails()": {
        "notice": "Returns bet's details."
      },
      "getCurrentPrice()": {
        "notice": "Returns current price of security (currently only supports ETH/USD)."
      },
      "kill(uint256)": {
        "notice": "Send funds to parent contract and self destruct."
      },
      "owner()": {
        "notice": "Storage variables."
      },
      "placeBet(string)": {
        "notice": "Place a new bet."
      },
      "resolveBet()": {
        "notice": "Resolves an outstanding bet contract at expiration. If winner, send corresponding funds."
      }
    },
    "notice": "Bet contract. Only ETH/USD currently supported.",
    "version": 1
  }
}