{
  "contractName": "BetFactory",
  "abi": [
    {
      "inputs": [],
      "name": "OnlySimulatedBackend",
      "type": "error"
    },
    {
      "anonymous": false,
      "inputs": [
        {
          "indexed": false,
          "internalType": "string",
          "name": "",
          "type": "string"
        },
        {
          "indexed": false,
          "internalType": "int256",
          "name": "line",
          "type": "int256"
        },
        {
          "indexed": false,
          "internalType": "int256",
          "name": "spread",
          "type": "int256"
        }
      ],
      "name": "LogBetCreatedFromFactory",
      "type": "event"
    },
    {
      "inputs": [
        {
          "internalType": "uint256",
          "name": "",
          "type": "uint256"
        }
      ],
      "name": "bets",
      "outputs": [
        {
          "internalType": "contract Bet",
          "name": "",
          "type": "address"
        }
      ],
      "stateMutability": "view",
      "type": "function"
    },
    {
      "inputs": [
        {
          "internalType": "uint256",
          "name": "",
          "type": "uint256"
        }
      ],
      "name": "betsMap",
      "outputs": [
        {
          "internalType": "contract Bet",
          "name": "",
          "type": "address"
        }
      ],
      "stateMutability": "view",
      "type": "function"
    },
    {
      "inputs": [],
      "name": "numberOfBets",
      "outputs": [
        {
          "internalType": "uint256",
          "name": "",
          "type": "uint256"
        }
      ],
      "stateMutability": "view",
      "type": "function"
    },
    {
      "stateMutability": "payable",
      "type": "receive"
    },
    {
      "inputs": [
        {
          "internalType": "string",
          "name": "_symbol",
          "type": "string"
        },
        {
          "internalType": "int256",
          "name": "_line",
          "type": "int256"
        },
        {
          "internalType": "int256",
          "name": "_spread",
          "type": "int256"
        },
        {
          "internalType": "int256",
          "name": "_maxBetSize",
          "type": "int256"
        },
        {
          "internalType": "int256",
          "name": "_multiplier",
          "type": "int256"
        },
        {
          "internalType": "uint256",
          "name": "_expiration",
          "type": "uint256"
        }
      ],
      "name": "createBet",
      "outputs": [],
      "stateMutability": "nonpayable",
      "type": "function"
    },
    {
      "inputs": [],
      "name": "getAllBets",
      "outputs": [
        {
          "internalType": "contract Bet[]",
          "name": "",
          "type": "address[]"
        }
      ],
      "stateMutability": "view",
      "type": "function"
    },
    {
      "inputs": [
        {
          "internalType": "uint256",
          "name": "index",
          "type": "uint256"
        }
      ],
      "name": "getBetDetails",
      "outputs": [
        {
          "internalType": "string",
          "name": "",
          "type": "string"
        },
        {
          "internalType": "int256",
          "name": "",
          "type": "int256"
        },
        {
          "internalType": "int256",
          "name": "",
          "type": "int256"
        },
        {
          "internalType": "uint256",
          "name": "",
          "type": "uint256"
        }
      ],
      "stateMutability": "view",
      "type": "function"
    },
    {
      "inputs": [],
      "name": "resolveExistingBets",
      "outputs": [],
      "stateMutability": "nonpayable",
      "type": "function"
    },
    {
      "inputs": [
        {
          "internalType": "bytes",
          "name": "",
          "type": "bytes"
        }
      ],
      "name": "checkUpkeep",
      "outputs": [
        {
          "internalType": "bool",
          "name": "upkeepNeeded",
          "type": "bool"
        },
        {
          "internalType": "bytes",
          "name": "",
          "type": "bytes"
        }
      ],
      "stateMutability": "view",
      "type": "function"
    },
    {
      "inputs": [
        {
          "internalType": "bytes",
          "name": "",
          "type": "bytes"
        }
      ],
      "name": "performUpkeep",
      "outputs": [],
      "stateMutability": "nonpayable",
      "type": "function"
    }
  ],
  "bytecode": "0x6080604052336000806101000a81548173ffffffffffffffffffffffffffffffffffffffff021916908373ffffffffffffffffffffffffffffffffffffffff16021790555034801561005057600080fd5b50614428806100606000396000f3fe608060405260043610620000975760003560e01c80634585e33b11620000615780634585e33b146200017957806369f1954c14620001a75780636e04ff0d14620001d5578063700eae73146200021a578063f72408d5146200024a576200009f565b80630636ce2714620000a457806322af00fa14620000be5780632ca8c6d314620001025780633df2967e1462000132576200009f565b366200009f57005b600080fd5b348015620000b157600080fd5b50620000bc6200028e565b005b348015620000cb57600080fd5b50620000ea6004803603810190620000e49190620008b1565b62000430565b604051620000f991906200096e565b60405180910390f35b3480156200010f57600080fd5b506200011a62000470565b6040516200012991906200099c565b60405180910390f35b3480156200013f57600080fd5b506200015e6004803603810190620001589190620008b1565b62000476565b60405162000170949392919062000a78565b60405180910390f35b3480156200018657600080fd5b50620001a560048036038101906200019f919062000b3a565b6200053b565b005b348015620001b457600080fd5b50620001d36004803603810190620001cd919062000d0c565b62000549565b005b348015620001e257600080fd5b50620002016004803603810190620001fb919062000b3a565b6200066a565b6040516200021192919062000e41565b60405180910390f35b3480156200022757600080fd5b506200023262000692565b60405162000241919062000f43565b60405180910390f35b3480156200025757600080fd5b50620002766004803603810190620002709190620008b1565b62000722565b6040516200028591906200096e565b60405180910390f35b6000600180549050905060005b818160ff1610156200042c57600060018260ff1681548110620002c357620002c262000f67565b5b9060005260206000200160009054906101000a900473ffffffffffffffffffffffffffffffffffffffff1690508073ffffffffffffffffffffffffffffffffffffffff16634665096d6040518163ffffffff1660e01b8152600401602060405180830381865afa1580156200033c573d6000803e3d6000fd5b505050506040513d601f19601f8201168201806040525081019062000362919062000fad565b42111562000415578073ffffffffffffffffffffffffffffffffffffffff16638fced6266040518163ffffffff1660e01b8152600401600060405180830381600087803b158015620003b357600080fd5b505af1158015620003c8573d6000803e3d6000fd5b50505050620003da8260ff1662000755565b60026000815480929190620003ef906200100e565b9190505550828062000401906200100e565b935050818062000411906200104a565b9250505b508080620004239062001079565b9150506200029b565b5050565b600181815481106200044157600080fd5b906000526020600020016000915054906101000a900473ffffffffffffffffffffffffffffffffffffffff1681565b60025481565b60606000806000806003600087815260200190815260200160002060009054906101000a900473ffffffffffffffffffffffffffffffffffffffff1690508073ffffffffffffffffffffffffffffffffffffffff16638a2fd0296040518163ffffffff1660e01b8152600401600060405180830381865afa15801562000500573d6000803e3d6000fd5b505050506040513d6000823e3d601f19601f820116820180604052508101906200052b91906200113d565b9450945094509450509193509193565b620005456200028e565b5050565b60008686868686866040516200055f9062000854565b6200057096959493929190620011ce565b604051809103906000f0801580156200058d573d6000803e3d6000fd5b5090506001819080600181540180825580915050600190039060005260206000200160009091909190916101000a81548173ffffffffffffffffffffffffffffffffffffffff021916908373ffffffffffffffffffffffffffffffffffffffff1602179055508060036000600254815260200190815260200160002060006101000a81548173ffffffffffffffffffffffffffffffffffffffff021916908373ffffffffffffffffffffffffffffffffffffffff160217905550600260008154809291906200065c9062001242565b919050555050505050505050565b6000606060006001805490501160405180602001604052806000815250915091509250929050565b606060018054806020026020016040519081016040528092919081815260200182805480156200071857602002820191906000526020600020905b8160009054906101000a900473ffffffffffffffffffffffffffffffffffffffff1673ffffffffffffffffffffffffffffffffffffffff1681526020019060010190808311620006cd575b5050505050905090565b60036020528060005260406000206000915054906101000a900473ffffffffffffffffffffffffffffffffffffffff1681565b600180808054905062000769919062001290565b815481106200077d576200077c62000f67565b5b9060005260206000200160009054906101000a900473ffffffffffffffffffffffffffffffffffffffff1660018281548110620007bf57620007be62000f67565b5b9060005260206000200160006101000a81548173ffffffffffffffffffffffffffffffffffffffff021916908373ffffffffffffffffffffffffffffffffffffffff16021790555060018054806200081c576200081b620012cb565b5b6001900381819060005260206000200160006101000a81549073ffffffffffffffffffffffffffffffffffffffff0219169055905550565b6130f880620012fb83390190565b6000604051905090565b600080fd5b600080fd5b6000819050919050565b6200088b8162000876565b81146200089757600080fd5b50565b600081359050620008ab8162000880565b92915050565b600060208284031215620008ca57620008c96200086c565b5b6000620008da848285016200089a565b91505092915050565b600073ffffffffffffffffffffffffffffffffffffffff82169050919050565b6000819050919050565b60006200092e620009286200092284620008e3565b62000903565b620008e3565b9050919050565b600062000942826200090d565b9050919050565b6000620009568262000935565b9050919050565b620009688162000949565b82525050565b60006020820190506200098560008301846200095d565b92915050565b620009968162000876565b82525050565b6000602082019050620009b360008301846200098b565b92915050565b600081519050919050565b600082825260208201905092915050565b60005b83811015620009f5578082015181840152602081019050620009d8565b8381111562000a05576000848401525b50505050565b6000601f19601f8301169050919050565b600062000a2982620009b9565b62000a358185620009c4565b935062000a47818560208601620009d5565b62000a528162000a0b565b840191505092915050565b6000819050919050565b62000a728162000a5d565b82525050565b6000608082019050818103600083015262000a94818762000a1c565b905062000aa5602083018662000a67565b62000ab4604083018562000a67565b62000ac360608301846200098b565b95945050505050565b600080fd5b600080fd5b600080fd5b60008083601f84011262000af45762000af362000acc565b5b8235905067ffffffffffffffff81111562000b145762000b1362000ad1565b5b60208301915083600182028301111562000b335762000b3262000ad6565b5b9250929050565b6000806020838503121562000b545762000b536200086c565b5b600083013567ffffffffffffffff81111562000b755762000b7462000871565b5b62000b838582860162000adb565b92509250509250929050565b600080fd5b7f4e487b7100000000000000000000000000000000000000000000000000000000600052604160045260246000fd5b62000bce8262000a0b565b810181811067ffffffffffffffff8211171562000bf05762000bef62000b94565b5b80604052505050565b600062000c0562000862565b905062000c13828262000bc3565b919050565b600067ffffffffffffffff82111562000c365762000c3562000b94565b5b62000c418262000a0b565b9050602081019050919050565b82818337600083830152505050565b600062000c7462000c6e8462000c18565b62000bf9565b90508281526020810184848401111562000c935762000c9262000b8f565b5b62000ca084828562000c4e565b509392505050565b600082601f83011262000cc05762000cbf62000acc565b5b813562000cd284826020860162000c5d565b91505092915050565b62000ce68162000a5d565b811462000cf257600080fd5b50565b60008135905062000d068162000cdb565b92915050565b60008060008060008060c0878903121562000d2c5762000d2b6200086c565b5b600087013567ffffffffffffffff81111562000d4d5762000d4c62000871565b5b62000d5b89828a0162000ca8565b965050602062000d6e89828a0162000cf5565b955050604062000d8189828a0162000cf5565b945050606062000d9489828a0162000cf5565b935050608062000da789828a0162000cf5565b92505060a062000dba89828a016200089a565b9150509295509295509295565b60008115159050919050565b62000dde8162000dc7565b82525050565b600081519050919050565b600082825260208201905092915050565b600062000e0d8262000de4565b62000e19818562000def565b935062000e2b818560208601620009d5565b62000e368162000a0b565b840191505092915050565b600060408201905062000e58600083018562000dd3565b818103602083015262000e6c818462000e00565b90509392505050565b600081519050919050565b600082825260208201905092915050565b6000819050602082019050919050565b62000eac8162000949565b82525050565b600062000ec0838362000ea1565b60208301905092915050565b6000602082019050919050565b600062000ee68262000e75565b62000ef2818562000e80565b935062000eff8362000e91565b8060005b8381101562000f3657815162000f1a888262000eb2565b975062000f278362000ecc565b92505060018101905062000f03565b5085935050505092915050565b6000602082019050818103600083015262000f5f818462000ed9565b905092915050565b7f4e487b7100000000000000000000000000000000000000000000000000000000600052603260045260246000fd5b60008151905062000fa78162000880565b92915050565b60006020828403121562000fc65762000fc56200086c565b5b600062000fd68482850162000f96565b91505092915050565b7f4e487b7100000000000000000000000000000000000000000000000000000000600052601160045260246000fd5b60006200101b8262000876565b9150600082141562001032576200103162000fdf565b5b600182039050919050565b600060ff82169050919050565b600062001057826200103d565b915060008214156200106e576200106d62000fdf565b5b600182039050919050565b600062001086826200103d565b915060ff8214156200109d576200109c62000fdf565b5b600182019050919050565b6000620010bf620010b98462000c18565b62000bf9565b905082815260208101848484011115620010de57620010dd62000b8f565b5b620010eb848285620009d5565b509392505050565b600082601f8301126200110b576200110a62000acc565b5b81516200111d848260208601620010a8565b91505092915050565b600081519050620011378162000cdb565b92915050565b600080600080608085870312156200115a57620011596200086c565b5b600085015167ffffffffffffffff8111156200117b576200117a62000871565b5b6200118987828801620010f3565b94505060206200119c8782880162001126565b9350506040620011af8782880162001126565b9250506060620011c28782880162000f96565b91505092959194509250565b600060c0820190508181036000830152620011ea818962000a1c565b9050620011fb602083018862000a67565b6200120a604083018762000a67565b62001219606083018662000a67565b62001228608083018562000a67565b6200123760a08301846200098b565b979650505050505050565b60006200124f8262000876565b91507fffffffffffffffffffffffffffffffffffffffffffffffffffffffffffffffff82141562001285576200128462000fdf565b5b600182019050919050565b60006200129d8262000876565b9150620012aa8362000876565b925082821015620012c057620012bf62000fdf565b5b828203905092915050565b7f4e487b7100000000000000000000000000000000000000000000000000000000600052603160045260246000fdfe608060405233600160006101000a81548173ffffffffffffffffffffffffffffffffffffffff021916908373ffffffffffffffffffffffffffffffffffffffff16021790555060018060146101000a81548160ff0219169083151502179055506000600960006101000a81548160ff021916908360ff1602179055503480156200008857600080fd5b50604051620030f8380380620030f88339818101604052810190620000ae919062000453565b8560029080519060200190620000c692919062000190565b50670de0b6b3a764000085620000dd91906200053d565b6003819055506012600a85620000f491906200053d565b6200010091906200053d565b600481905550670de0b6b3a7640000836200011c91906200053d565b6005819055508160078190555080600681905550739326bfa02add2366b30bacb125260af6410313316000806101000a81548173ffffffffffffffffffffffffffffffffffffffff021916908373ffffffffffffffffffffffffffffffffffffffff160217905550505050505050620006c9565b8280546200019e9062000693565b90600052602060002090601f016020900481019282620001c257600085556200020e565b82601f10620001dd57805160ff19168380011785556200020e565b828001600101855582156200020e579182015b828111156200020d578251825591602001919060010190620001f0565b5b5090506200021d919062000221565b5090565b5b808211156200023c57600081600090555060010162000222565b5090565b6000604051905090565b600080fd5b600080fd5b600080fd5b600080fd5b6000601f19601f8301169050919050565b7f4e487b7100000000000000000000000000000000000000000000000000000000600052604160045260246000fd5b620002a9826200025e565b810181811067ffffffffffffffff82111715620002cb57620002ca6200026f565b5b80604052505050565b6000620002e062000240565b9050620002ee82826200029e565b919050565b600067ffffffffffffffff8211156200031157620003106200026f565b5b6200031c826200025e565b9050602081019050919050565b60005b83811015620003495780820151818401526020810190506200032c565b8381111562000359576000848401525b50505050565b6000620003766200037084620002f3565b620002d4565b90508281526020810184848401111562000395576200039462000259565b5b620003a284828562000329565b509392505050565b600082601f830112620003c257620003c162000254565b5b8151620003d48482602086016200035f565b91505092915050565b6000819050919050565b620003f281620003dd565b8114620003fe57600080fd5b50565b6000815190506200041281620003e7565b92915050565b6000819050919050565b6200042d8162000418565b81146200043957600080fd5b50565b6000815190506200044d8162000422565b92915050565b60008060008060008060c087890312156200047357620004726200024a565b5b600087015167ffffffffffffffff8111156200049457620004936200024f565b5b620004a289828a01620003aa565b9650506020620004b589828a0162000401565b9550506040620004c889828a0162000401565b9450506060620004db89828a0162000401565b9350506080620004ee89828a0162000401565b92505060a06200050189828a016200043c565b9150509295509295509295565b7f4e487b7100000000000000000000000000000000000000000000000000000000600052601160045260246000fd5b60006200054a82620003dd565b91506200055783620003dd565b9250827f7fffffffffffffffffffffffffffffffffffffffffffffffffffffffffffffff04821160008413600084131616156200059957620005986200050e565b5b817f80000000000000000000000000000000000000000000000000000000000000000583126000841260008413161615620005d957620005d86200050e565b5b827f800000000000000000000000000000000000000000000000000000000000000005821260008413600084121616156200061957620006186200050e565b5b827f7fffffffffffffffffffffffffffffffffffffffffffffffffffffffffffffff05821260008412600084121616156200065957620006586200050e565b5b828202905092915050565b7f4e487b7100000000000000000000000000000000000000000000000000000000600052602260045260246000fd5b60006002820490506001821680620006ac57607f821691505b60208210811415620006c357620006c262000664565b5b50919050565b612a1f80620006d96000396000f3fe6080604052600436106101145760003560e01c80638b7afe2e116100a0578063b56b835311610064578063b56b835314610354578063b8f7a6651461037f578063cfc2ca32146103aa578063d29a0025146103e7578063eb91d37e1461041057610114565b80638b7afe2e146102a05780638da5cb5b146102cb5780638fced626146102f657806395d89b411461030d57806397bfeb881461033857610114565b8063473fede8116100e7578063473fede8146101da5780635c25c76c146102055780635c812737146102305780637b6d79f11461025b5780638a2fd0291461027257610114565b80632ca8c6d3146101195780632f37290714610144578063419ae937146101845780634665096d146101af575b600080fd5b34801561012557600080fd5b5061012e61043b565b60405161013b91906115dd565b60405180910390f35b34801561015057600080fd5b5061016b6004803603810190610166919061166a565b61044e565b60405161017b9493929190611751565b60405180910390f35b34801561019057600080fd5b506101996104b8565b6040516101a69190611854565b60405180910390f35b3480156101bb57600080fd5b506101c4610546565b6040516101d19190611876565b60405180910390f35b3480156101e657600080fd5b506101ef61054c565b6040516101fc91906118aa565b60405180910390f35b34801561021157600080fd5b5061021a610552565b60405161022791906118aa565b60405180910390f35b34801561023c57600080fd5b50610245610558565b60405161025291906118aa565b60405180910390f35b34801561026757600080fd5b5061027061055e565b005b34801561027e57600080fd5b50610287610851565b604051610297949392919061195e565b60405180910390f35b3480156102ac57600080fd5b506102b56108fd565b6040516102c29190611876565b60405180910390f35b3480156102d757600080fd5b506102e0610903565b6040516102ed91906119cb565b60405180910390f35b34801561030257600080fd5b5061030b610929565b005b34801561031957600080fd5b50610322610b70565b60405161032f91906119e6565b60405180910390f35b610352600480360381019061034d9190611b3d565b610bfe565b005b34801561036057600080fd5b50610369610f57565b60405161037691906118aa565b60405180910390f35b34801561038b57600080fd5b50610394610f5d565b6040516103a19190611b86565b60405180910390f35b3480156103b657600080fd5b506103d160048036038101906103cc9190611bcd565b610f70565b6040516103de9190611bfa565b60405180910390f35b3480156103f357600080fd5b5061040e60048036038101906104099190611bcd565b610faf565b005b34801561041c57600080fd5b506104256110fd565b60405161043291906118aa565b60405180910390f35b600960009054906101000a900460ff1681565b60086020528060005260406000206000915090508060000160009054906101000a900473ffffffffffffffffffffffffffffffffffffffff16908060000160149054906101000a900460ff16908060010154908060020160009054906101000a900460ff16905084565b6060600b80548060200260200160405190810160405280929190818152602001828054801561053c57602002820191906000526020600020905b8160009054906101000a900473ffffffffffffffffffffffffffffffffffffffff1673ffffffffffffffffffffffffffffffffffffffff16815260200190600101908083116104f2575b5050505050905090565b60065481565b60055481565b60045481565b60075481565b60011515600860003373ffffffffffffffffffffffffffffffffffffffff1673ffffffffffffffffffffffffffffffffffffffff16815260200190815260200160002060020160009054906101000a900460ff161515146105f4576040517f08c379a00000000000000000000000000000000000000000000000000000000081526004016105eb90611c61565b60405180910390fd5b6000600860003373ffffffffffffffffffffffffffffffffffffffff1673ffffffffffffffffffffffffffffffffffffffff168152602001908152602001600020905060008160010154905080600a541015610685576040517f08c379a000000000000000000000000000000000000000000000000000000000815260040161067c90611cf3565b60405180910390fd5b60008260020160006101000a81548160ff0219169083151502179055506000826001018190555060028260000160146101000a81548160ff021916908360028111156106d4576106d36116a6565b5b02179055506001600960008282829054906101000a900460ff166106f89190611d42565b92506101000a81548160ff021916908360ff16021790555080600a60008282546107229190611d76565b925050819055506107323361119c565b60008260000160009054906101000a900473ffffffffffffffffffffffffffffffffffffffff1673ffffffffffffffffffffffffffffffffffffffff168260405161077c90611ddb565b60006040518083038185875af1925050503d80600081146107b9576040519150601f19603f3d011682016040523d82523d6000602084013e6107be565b606091505b5050905080610802576040517f08c379a00000000000000000000000000000000000000000000000000000000081526004016107f990611e3c565b60405180910390fd5b7f5c0ede0ff70e8d91413ba60230ee5b241c5f1d8c42a7ddff28700b94be01c0d4338460000160149054906101000a900460ff16604051610844929190611e5c565b60405180910390a1505050565b60606000806000600260035460045460065483805461086f90611eb4565b80601f016020809104026020016040519081016040528092919081815260200182805461089b90611eb4565b80156108e85780601f106108bd576101008083540402835291602001916108e8565b820191906000526020600020905b8154815290600101906020018083116108cb57829003601f168201915b50505050509350935093509350935090919293565b600a5481565b600160009054906101000a900473ffffffffffffffffffffffffffffffffffffffff1681565b600160009054906101000a900473ffffffffffffffffffffffffffffffffffffffff1673ffffffffffffffffffffffffffffffffffffffff163373ffffffffffffffffffffffffffffffffffffffff16146109b9576040517f08c379a00000000000000000000000000000000000000000000000000000000081526004016109b090611f58565b60405180910390fd5b60006402540be4006109c96110fd565b6109d39190611f78565b90506000600290506004546003546109eb919061208f565b8213156109fb5760009050610a18565b600454600354610a0b9190612123565b821215610a1757600190505b5b6000600960009054906101000a900460ff1660ff16905060005b600960009054906101000a900460ff1660ff168160ff161015610b61576000600b8260ff1681548110610a6857610a676121b7565b5b9060005260206000200160009054906101000a900473ffffffffffffffffffffffffffffffffffffffff1690506000600860008373ffffffffffffffffffffffffffffffffffffffff1673ffffffffffffffffffffffffffffffffffffffff16815260200190815260200160002090508060020160009054906101000a900460ff168015610b2a5750846002811115610b0457610b036116a6565b5b8160000160149054906101000a900460ff166002811115610b2857610b276116a6565b5b145b15610b3e57610b3d828260010154611332565b5b8380610b49906121e6565b94505050508080610b5990612210565b915050610a32565b50610b6b81610faf565b505050565b60028054610b7d90611eb4565b80601f0160208091040260200160405190810160405280929190818152602001828054610ba990611eb4565b8015610bf65780601f10610bcb57610100808354040283529160200191610bf6565b820191906000526020600020905b815481529060010190602001808311610bd957829003601f168201915b505050505081565b600160009054906101000a900473ffffffffffffffffffffffffffffffffffffffff1673ffffffffffffffffffffffffffffffffffffffff163373ffffffffffffffffffffffffffffffffffffffff161415610c8f576040517f08c379a0000000000000000000000000000000000000000000000000000000008152600401610c8690612286565b60405180910390fd5b60001515600860003373ffffffffffffffffffffffffffffffffffffffff1673ffffffffffffffffffffffffffffffffffffffff16815260200190815260200160002060020160009054906101000a900460ff16151514610d25576040517f08c379a0000000000000000000000000000000000000000000000000000000008152600401610d1c906122f2565b60405180910390fd5b6000610d30826114c2565b9050600b339080600181540180825580915050600190039060005260206000200160009091909190916101000a81548173ffffffffffffffffffffffffffffffffffffffff021916908373ffffffffffffffffffffffffffffffffffffffff160217905550600060405180608001604052803373ffffffffffffffffffffffffffffffffffffffff168152602001836002811115610dd157610dd06116a6565b5b815260200134815260200160011515815250905080600860003373ffffffffffffffffffffffffffffffffffffffff1673ffffffffffffffffffffffffffffffffffffffff16815260200190815260200160002060008201518160000160006101000a81548173ffffffffffffffffffffffffffffffffffffffff021916908373ffffffffffffffffffffffffffffffffffffffff16021790555060208201518160000160146101000a81548160ff02191690836002811115610e9757610e966116a6565b5b02179055506040820151816001015560608201518160020160006101000a81548160ff0219169083151502179055509050506001600960008282829054906101000a900460ff16610ee89190612312565b92506101000a81548160ff021916908360ff16021790555034600a6000828254610f129190612349565b925050819055507f5c0ede0ff70e8d91413ba60230ee5b241c5f1d8c42a7ddff28700b94be01c0d43383604051610f4a929190611e5c565b60405180910390a1505050565b60035481565b600160149054906101000a900460ff1681565b600b8181548110610f8057600080fd5b906000526020600020016000915054906101000a900473ffffffffffffffffffffffffffffffffffffffff1681565b60008114610ff2576040517f08c379a0000000000000000000000000000000000000000000000000000000008152600401610fe990612411565b60405180910390fd5b6000600160009054906101000a900473ffffffffffffffffffffffffffffffffffffffff1673ffffffffffffffffffffffffffffffffffffffff16600a5460405161103c90611ddb565b60006040518083038185875af1925050503d8060008114611079576040519150601f19603f3d011682016040523d82523d6000602084013e61107e565b606091505b50509050806110c2576040517f08c379a00000000000000000000000000000000000000000000000000000000081526004016110b99061247d565b60405180910390fd5b600160009054906101000a900473ffffffffffffffffffffffffffffffffffffffff1673ffffffffffffffffffffffffffffffffffffffff16ff5b60008060008054906101000a900473ffffffffffffffffffffffffffffffffffffffff1673ffffffffffffffffffffffffffffffffffffffff1663feaf968c6040518163ffffffff1660e01b815260040160a060405180830381865afa15801561116b573d6000803e3d6000fd5b505050506040513d601f19601f8201168201806040525081019061118f9190612520565b5050509150508091505090565b600080600090505b600b8054905081101561123a578273ffffffffffffffffffffffffffffffffffffffff16600b82815481106111dc576111db6121b7565b5b9060005260206000200160009054906101000a900473ffffffffffffffffffffffffffffffffffffffff1673ffffffffffffffffffffffffffffffffffffffff161415611227578091505b80806112329061259b565b9150506111a4565b50600b6001600b8054905061124f9190611d76565b815481106112605761125f6121b7565b5b9060005260206000200160009054906101000a900473ffffffffffffffffffffffffffffffffffffffff16600b828154811061129f5761129e6121b7565b5b9060005260206000200160006101000a81548173ffffffffffffffffffffffffffffffffffffffff021916908373ffffffffffffffffffffffffffffffffffffffff160217905550600b8054806112f9576112f86125e4565b5b6001900381819060005260206000200160006101000a81549073ffffffffffffffffffffffffffffffffffffffff021916905590555050565b6000600a600754836113449190612613565b61134e919061269c565b905080600a541015611395576040517f08c379a000000000000000000000000000000000000000000000000000000000815260040161138c90612719565b60405180910390fd5b80600a60008282546113a79190611d76565b9250508190555060008373ffffffffffffffffffffffffffffffffffffffff16826040516113d490611ddb565b60006040518083038185875af1925050503d8060008114611411576040519150601f19603f3d011682016040523d82523d6000602084013e611416565b606091505b5050905060008460405160200161142d91906127fe565b6040516020818303038152906040529050818190611481576040517f08c379a000000000000000000000000000000000000000000000000000000000815260040161147891906119e6565b60405180910390fd5b507fa3ca6c6f1413e28d2a8c7aaa386259e7c61bbe6970cfb14720b44ec9a0ddceed85846040516114b3929190612824565b60405180910390a15050505050565b60006040516020016114d390612899565b60405160208183030381529060405280519060200120826040516020016114fa91906128df565b60405160208183030381529060405280519060200120141561151f57600090506115bc565b60405160200161152e90612942565b604051602081830303815290604052805190602001208260405160200161155591906128df565b60405160208183030381529060405280519060200120141561157a57600190506115bc565b60006115bb576040517f08c379a00000000000000000000000000000000000000000000000000000000081526004016115b2906129c9565b60405180910390fd5b5b919050565b600060ff82169050919050565b6115d7816115c1565b82525050565b60006020820190506115f260008301846115ce565b92915050565b6000604051905090565b600080fd5b600080fd5b600073ffffffffffffffffffffffffffffffffffffffff82169050919050565b60006116378261160c565b9050919050565b6116478161162c565b811461165257600080fd5b50565b6000813590506116648161163e565b92915050565b6000602082840312156116805761167f611602565b5b600061168e84828501611655565b91505092915050565b6116a08161162c565b82525050565b7f4e487b7100000000000000000000000000000000000000000000000000000000600052602160045260246000fd5b600381106116e6576116e56116a6565b5b50565b60008190506116f7826116d5565b919050565b6000611707826116e9565b9050919050565b611717816116fc565b82525050565b6000819050919050565b6117308161171d565b82525050565b60008115159050919050565b61174b81611736565b82525050565b60006080820190506117666000830187611697565b611773602083018661170e565b6117806040830185611727565b61178d6060830184611742565b95945050505050565b600081519050919050565b600082825260208201905092915050565b6000819050602082019050919050565b6117cb8161162c565b82525050565b60006117dd83836117c2565b60208301905092915050565b6000602082019050919050565b600061180182611796565b61180b81856117a1565b9350611816836117b2565b8060005b8381101561184757815161182e88826117d1565b9750611839836117e9565b92505060018101905061181a565b5085935050505092915050565b6000602082019050818103600083015261186e81846117f6565b905092915050565b600060208201905061188b6000830184611727565b92915050565b6000819050919050565b6118a481611891565b82525050565b60006020820190506118bf600083018461189b565b92915050565b600081519050919050565b600082825260208201905092915050565b60005b838110156118ff5780820151818401526020810190506118e4565b8381111561190e576000848401525b50505050565b6000601f19601f8301169050919050565b6000611930826118c5565b61193a81856118d0565b935061194a8185602086016118e1565b61195381611914565b840191505092915050565b600060808201905081810360008301526119788187611925565b9050611987602083018661189b565b611994604083018561189b565b6119a16060830184611727565b95945050505050565b60006119b58261160c565b9050919050565b6119c5816119aa565b82525050565b60006020820190506119e060008301846119bc565b92915050565b60006020820190508181036000830152611a008184611925565b905092915050565b600080fd5b600080fd5b7f4e487b7100000000000000000000000000000000000000000000000000000000600052604160045260246000fd5b611a4a82611914565b810181811067ffffffffffffffff82111715611a6957611a68611a12565b5b80604052505050565b6000611a7c6115f8565b9050611a888282611a41565b919050565b600067ffffffffffffffff821115611aa857611aa7611a12565b5b611ab182611914565b9050602081019050919050565b82818337600083830152505050565b6000611ae0611adb84611a8d565b611a72565b905082815260208101848484011115611afc57611afb611a0d565b5b611b07848285611abe565b509392505050565b600082601f830112611b2457611b23611a08565b5b8135611b34848260208601611acd565b91505092915050565b600060208284031215611b5357611b52611602565b5b600082013567ffffffffffffffff811115611b7157611b70611607565b5b611b7d84828501611b0f565b91505092915050565b6000602082019050611b9b6000830184611742565b92915050565b611baa8161171d565b8114611bb557600080fd5b50565b600081359050611bc781611ba1565b92915050565b600060208284031215611be357611be2611602565b5b6000611bf184828501611bb8565b91505092915050565b6000602082019050611c0f6000830184611697565b92915050565b7f5573657220686173206e6f2062657420746f2063616e63656c2e000000000000600082015250565b6000611c4b601a836118d0565b9150611c5682611c15565b602082019050919050565b60006020820190508181036000830152611c7a81611c3e565b9050919050565b7f596f752061726520747279696e6720746f20776974686472617720746f6f206d60008201527f7563682045746865722e00000000000000000000000000000000000000000000602082015250565b6000611cdd602a836118d0565b9150611ce882611c81565b604082019050919050565b60006020820190508181036000830152611d0c81611cd0565b9050919050565b7f4e487b7100000000000000000000000000000000000000000000000000000000600052601160045260246000fd5b6000611d4d826115c1565b9150611d58836115c1565b925082821015611d6b57611d6a611d13565b5b828203905092915050565b6000611d818261171d565b9150611d8c8361171d565b925082821015611d9f57611d9e611d13565b5b828203905092915050565b600081905092915050565b50565b6000611dc5600083611daa565b9150611dd082611db5565b600082019050919050565b6000611de682611db8565b9150819050919050565b7f4661696c656420746f2072657475726e20457468657200000000000000000000600082015250565b6000611e266016836118d0565b9150611e3182611df0565b602082019050919050565b60006020820190508181036000830152611e5581611e19565b9050919050565b6000604082019050611e716000830185611697565b611e7e602083018461170e565b9392505050565b7f4e487b7100000000000000000000000000000000000000000000000000000000600052602260045260246000fd5b60006002820490506001821680611ecc57607f821691505b60208210811415611ee057611edf611e85565b5b50919050565b7f4f6e6c7920636f6e7472616374206f776e65722063616e207265736f6c76652060008201527f6265742e00000000000000000000000000000000000000000000000000000000602082015250565b6000611f426024836118d0565b9150611f4d82611ee6565b604082019050919050565b60006020820190508181036000830152611f7181611f35565b9050919050565b6000611f8382611891565b9150611f8e83611891565b9250827f7fffffffffffffffffffffffffffffffffffffffffffffffffffffffffffffff0482116000841360008413161615611fcd57611fcc611d13565b5b817f8000000000000000000000000000000000000000000000000000000000000000058312600084126000841316161561200a57612009611d13565b5b827f8000000000000000000000000000000000000000000000000000000000000000058212600084136000841216161561204757612046611d13565b5b827f7fffffffffffffffffffffffffffffffffffffffffffffffffffffffffffffff058212600084126000841216161561208457612083611d13565b5b828202905092915050565b600061209a82611891565b91506120a583611891565b9250817f7fffffffffffffffffffffffffffffffffffffffffffffffffffffffffffffff038313600083121516156120e0576120df611d13565b5b817f800000000000000000000000000000000000000000000000000000000000000003831260008312161561211857612117611d13565b5b828201905092915050565b600061212e82611891565b915061213983611891565b9250827f80000000000000000000000000000000000000000000000000000000000000000182126000841215161561217457612173611d13565b5b827f7fffffffffffffffffffffffffffffffffffffffffffffffffffffffffffffff0182136000841216156121ac576121ab611d13565b5b828203905092915050565b7f4e487b7100000000000000000000000000000000000000000000000000000000600052603260045260246000fd5b60006121f18261171d565b9150600082141561220557612204611d13565b5b600182039050919050565b600061221b826115c1565b915060ff82141561222f5761222e611d13565b5b600182019050919050565b7f43726561746f722063616e6e6f7420706c616365206265742e00000000000000600082015250565b60006122706019836118d0565b915061227b8261223a565b602082019050919050565b6000602082019050818103600083015261229f81612263565b9050919050565b7f5573657220616c72656164792068617320706c616365642061206265742e0000600082015250565b60006122dc601e836118d0565b91506122e7826122a6565b602082019050919050565b6000602082019050818103600083015261230b816122cf565b9050919050565b600061231d826115c1565b9150612328836115c1565b92508260ff0382111561233e5761233d611d13565b5b828201905092915050565b60006123548261171d565b915061235f8361171d565b9250827fffffffffffffffffffffffffffffffffffffffffffffffffffffffffffffffff0382111561239457612393611d13565b5b828201905092915050565b7f436f6e7472616374207374696c6c2068617320756e7265736f6c76656420626560008201527f7473000000000000000000000000000000000000000000000000000000000000602082015250565b60006123fb6022836118d0565b91506124068261239f565b604082019050919050565b6000602082019050818103600083015261242a816123ee565b9050919050565b7f4661696c656420746f2073656e64204574686572000000000000000000000000600082015250565b60006124676014836118d0565b915061247282612431565b602082019050919050565b600060208201905081810360008301526124968161245a565b9050919050565b600069ffffffffffffffffffff82169050919050565b6124bc8161249d565b81146124c757600080fd5b50565b6000815190506124d9816124b3565b92915050565b6124e881611891565b81146124f357600080fd5b50565b600081519050612505816124df565b92915050565b60008151905061251a81611ba1565b92915050565b600080600080600060a0868803121561253c5761253b611602565b5b600061254a888289016124ca565b955050602061255b888289016124f6565b945050604061256c8882890161250b565b935050606061257d8882890161250b565b925050608061258e888289016124ca565b9150509295509295909350565b60006125a68261171d565b91507fffffffffffffffffffffffffffffffffffffffffffffffffffffffffffffffff8214156125d9576125d8611d13565b5b600182019050919050565b7f4e487b7100000000000000000000000000000000000000000000000000000000600052603160045260246000fd5b600061261e8261171d565b91506126298361171d565b9250817fffffffffffffffffffffffffffffffffffffffffffffffffffffffffffffffff048311821515161561266257612661611d13565b5b828202905092915050565b7f4e487b7100000000000000000000000000000000000000000000000000000000600052601260045260246000fd5b60006126a78261171d565b91506126b28361171d565b9250826126c2576126c161266d565b5b828204905092915050565b7f496e73756666696369656e742066756e647320746f2077697468647261772e00600082015250565b6000612703601f836118d0565b915061270e826126cd565b602082019050919050565b60006020820190508181036000830152612732816126f6565b9050919050565b600081905092915050565b7f4661696c656420746f2073656e6420457468657220746f206265742077696e6e60008201527f6572207769746820616464726573733a20000000000000000000000000000000602082015250565b60006127a0603183612739565b91506127ab82612744565b603182019050919050565b60008160601b9050919050565b60006127ce826127b6565b9050919050565b60006127e0826127c3565b9050919050565b6127f86127f38261162c565b6127d5565b82525050565b600061280982612793565b915061281582846127e7565b60148201915081905092915050565b60006040820190506128396000830185611697565b6128466020830184611727565b9392505050565b7f6f76657200000000000000000000000000000000000000000000000000000000600082015250565b6000612883600483612739565b915061288e8261284d565b600482019050919050565b60006128a482612876565b9150819050919050565b60006128b9826118c5565b6128c38185612739565b93506128d38185602086016118e1565b80840191505092915050565b60006128eb82846128ae565b915081905092915050565b7f756e646572000000000000000000000000000000000000000000000000000000600082015250565b600061292c600583612739565b9150612937826128f6565b600582019050919050565b600061294d8261291f565b9150819050919050565b7f53696465206f6620626574206d757374206265206569746865723a20276f766560008201527f7227206f722027756e646572272e000000000000000000000000000000000000602082015250565b60006129b3602e836118d0565b91506129be82612957565b604082019050919050565b600060208201905081810360008301526129e2816129a6565b905091905056fea2646970667358221220fd893cae33ac4db4930f9af25911b1cf395edbbe555b8b0bf3d37e8ce31917a864736f6c634300080b0033a2646970667358221220a4943fd8cb6b8f302e27104f1b86bff531709be48e514f8cba654e48389af50264736f6c634300080b0033",
  "immutableReferences": {},
  "source": "// SPDX-License-Identifier: UNLICENSED\npragma solidity 0.8.11;\n\nimport './Bet.sol';\nimport \"@chainlink/contracts/src/v0.8/KeeperCompatible.sol\";\n\n/// @title Bet factory contract.\n/// @author Fermin Carranza\n/// @notice Basic contract to create bets. Only ETH/USD currently supported.\n/// @dev Chainlink Keeper not currently working. Not production ready.\ncontract BetFactory is KeeperCompatible {\n    /*\n    / Events - Publicize events to external listeners.\n    */\n    event LogBetCreatedFromFactory(string, int line, int spread);\n\n    /// Storage variables\n    address private owner = msg.sender;\n    Bet[] public bets;\n    uint public numberOfBets;\n    mapping(uint256 => Bet) public betsMap;\n\n    /// Receive Ether function.\n    receive() external payable {}\n\n    /// @notice Create a new bet for users to participate in. (Only ETH/USD currently supported)\n    /// @param _symbol Ticker symbol of the security to bet on.\n    /// @param _line The price at which contract settles at expiration.\n    /// @param _spread Spread price can move from line.\n    /// @param _maxBetSize The maximum amount a user can bet (in ETH).\n    /// @param _multiplier The payout multiplier for winning bets.\n    /// @param _expiration The expiration date of the bet.\n    function createBet(string memory _symbol, int _line, int _spread, int _maxBetSize, int _multiplier, uint _expiration) public {\n        Bet _bet = new Bet(_symbol, _line, _spread, _maxBetSize, _multiplier, _expiration);\n        bets.push(_bet);\n        betsMap[numberOfBets] = _bet;\n        numberOfBets++;\n    }\n\n    /// @return Returns all outstanding bets.\n    function getAllBets() public view returns (Bet[] memory) {\n        return bets;\n    }\n\n    /// @notice Returns a specific bet's details.\n    /// @param index The ID of the bet.\n    /// @return Array containing: symbol, line, spread and expiration of bet.\n    function getBetDetails(uint index) public view returns (string memory, int, int, uint) {\n        Bet bet = betsMap[index];\n        return bet.getBetDetails();\n    }\n\n    /// @notice Resolves outstanding bets if current time is greater than expiration.\n    function resolveExistingBets() public {\n        uint _betsLength = bets.length;\n        for (uint8 _i = 0; _i < _betsLength; _i++) {\n            Bet currentBet = bets[_i];\n            if (block.timestamp > currentBet.expiration()) {\n                currentBet.resolveBet();\n                removeFromBets(_i);\n                numberOfBets--;\n                _betsLength--;\n                _i--;\n            }\n        }\n    }\n\n    /// @notice Chainlink function to check if outside data should make it into the contract.\n    /// @dev Currently not working.\n    function checkUpkeep(\n        bytes calldata /*checkData */\n    ) external override view returns (bool upkeepNeeded, bytes memory) {\n        return (bets.length > 0, bytes(''));\n    }\n\n    /// @notice Method to run if Chainlink determines the contract needs to perform an action.\n    function performUpkeep(bytes calldata) external override {\n        resolveExistingBets();\n    }\n\n    /// @notice Removes old bet from current bets array.\n    /// @param index The ID of the bet to remove.\n    /// @dev Utility method to remove old bet from current bets array.\n    function removeFromBets(uint index) internal {\n        bets[index] = bets[bets.length - 1];\n        bets.pop();\n    }\n}\n",
  "sourcePath": "/Users/efecarranza/projects/sportsbetx/contracts/BetFactory.sol",
  "compiler": {
    "name": "solc",
    "version": "0.8.11+commit.d7f03943.Emscripten.clang"
  },
  "schemaVersion": "3.4.4",
  "updatedAt": "2022-01-16T03:13:00.635Z",
  "devdoc": {
    "author": "Fermin Carranza",
    "details": "Chainlink Keeper not currently working. Not production ready.",
    "kind": "dev",
    "methods": {
      "checkUpkeep(bytes)": {
        "details": "Currently not working."
      },
      "createBet(string,int256,int256,int256,int256,uint256)": {
        "params": {
          "_expiration": "The expiration date of the bet.",
          "_line": "The price at which contract settles at expiration.",
          "_maxBetSize": "The maximum amount a user can bet (in ETH).",
          "_multiplier": "The payout multiplier for winning bets.",
          "_spread": "Spread price can move from line.",
          "_symbol": "Ticker symbol of the security to bet on."
        }
      },
      "getAllBets()": {
        "returns": {
          "_0": "Returns all outstanding bets."
        }
      },
      "getBetDetails(uint256)": {
        "params": {
          "index": "The ID of the bet."
        },
        "returns": {
          "_0": "Array containing: symbol, line, spread and expiration of bet."
        }
      }
    },
    "title": "Bet factory contract.",
    "version": 1
  },
  "userdoc": {
    "kind": "user",
    "methods": {
      "checkUpkeep(bytes)": {
        "notice": "Chainlink function to check if outside data should make it into the contract."
      },
      "createBet(string,int256,int256,int256,int256,uint256)": {
        "notice": "Create a new bet for users to participate in. (Only ETH/USD currently supported)"
      },
      "getBetDetails(uint256)": {
        "notice": "Returns a specific bet's details."
      },
      "performUpkeep(bytes)": {
        "notice": "Method to run if Chainlink determines the contract needs to perform an action."
      },
      "resolveExistingBets()": {
        "notice": "Resolves outstanding bets if current time is greater than expiration."
      }
    },
    "notice": "Basic contract to create bets. Only ETH/USD currently supported.",
    "version": 1
  }
}