{
  "contractName": "BetFactory",
  "abi": [
    {
      "inputs": [],
      "name": "OnlySimulatedBackend",
      "type": "error"
    },
    {
      "anonymous": false,
      "inputs": [
        {
          "indexed": false,
          "internalType": "string",
          "name": "symbol",
          "type": "string"
        },
        {
          "indexed": false,
          "internalType": "int256",
          "name": "line",
          "type": "int256"
        },
        {
          "indexed": false,
          "internalType": "int256",
          "name": "spread",
          "type": "int256"
        }
      ],
      "name": "LogBetCreatedFromFactory",
      "type": "event"
    },
    {
      "inputs": [
        {
          "internalType": "uint256",
          "name": "",
          "type": "uint256"
        }
      ],
      "name": "bets",
      "outputs": [
        {
          "internalType": "contract Bet",
          "name": "",
          "type": "address"
        }
      ],
      "stateMutability": "view",
      "type": "function"
    },
    {
      "inputs": [
        {
          "internalType": "uint256",
          "name": "",
          "type": "uint256"
        }
      ],
      "name": "betsMap",
      "outputs": [
        {
          "internalType": "contract Bet",
          "name": "",
          "type": "address"
        }
      ],
      "stateMutability": "view",
      "type": "function"
    },
    {
      "inputs": [],
      "name": "numberOfBets",
      "outputs": [
        {
          "internalType": "uint256",
          "name": "",
          "type": "uint256"
        }
      ],
      "stateMutability": "view",
      "type": "function"
    },
    {
      "stateMutability": "payable",
      "type": "receive"
    },
    {
      "inputs": [
        {
          "internalType": "string",
          "name": "_symbol",
          "type": "string"
        },
        {
          "internalType": "int256",
          "name": "_line",
          "type": "int256"
        },
        {
          "internalType": "int256",
          "name": "_spread",
          "type": "int256"
        },
        {
          "internalType": "int256",
          "name": "_maxBetSize",
          "type": "int256"
        },
        {
          "internalType": "int256",
          "name": "_multiplier",
          "type": "int256"
        },
        {
          "internalType": "uint256",
          "name": "_expiration",
          "type": "uint256"
        }
      ],
      "name": "createBet",
      "outputs": [],
      "stateMutability": "nonpayable",
      "type": "function"
    },
    {
      "inputs": [],
      "name": "getAllBets",
      "outputs": [
        {
          "internalType": "contract Bet[]",
          "name": "",
          "type": "address[]"
        }
      ],
      "stateMutability": "view",
      "type": "function"
    },
    {
      "inputs": [
        {
          "internalType": "uint256",
          "name": "index",
          "type": "uint256"
        }
      ],
      "name": "getBetDetails",
      "outputs": [
        {
          "internalType": "string",
          "name": "",
          "type": "string"
        },
        {
          "internalType": "int256",
          "name": "",
          "type": "int256"
        },
        {
          "internalType": "int256",
          "name": "",
          "type": "int256"
        },
        {
          "internalType": "uint256",
          "name": "",
          "type": "uint256"
        },
        {
          "internalType": "address",
          "name": "",
          "type": "address"
        }
      ],
      "stateMutability": "view",
      "type": "function"
    },
    {
      "inputs": [],
      "name": "resolveExistingBets",
      "outputs": [],
      "stateMutability": "nonpayable",
      "type": "function"
    },
    {
      "inputs": [
        {
          "internalType": "bytes",
          "name": "",
          "type": "bytes"
        }
      ],
      "name": "checkUpkeep",
      "outputs": [
        {
          "internalType": "bool",
          "name": "upkeepNeeded",
          "type": "bool"
        },
        {
          "internalType": "bytes",
          "name": "",
          "type": "bytes"
        }
      ],
      "stateMutability": "view",
      "type": "function"
    },
    {
      "inputs": [
        {
          "internalType": "bytes",
          "name": "",
          "type": "bytes"
        }
      ],
      "name": "performUpkeep",
      "outputs": [],
      "stateMutability": "nonpayable",
      "type": "function"
    }
  ],
  "bytecode": "0x6080604052336000806101000a81548173ffffffffffffffffffffffffffffffffffffffff021916908373ffffffffffffffffffffffffffffffffffffffff16021790555034801561005057600080fd5b50614539806100606000396000f3fe608060405260043610620000975760003560e01c80634585e33b11620000615780634585e33b146200017a57806369f1954c14620001a85780636e04ff0d14620001d6578063700eae73146200021b578063f72408d5146200024b576200009f565b80630636ce2714620000a457806322af00fa14620000be5780632ca8c6d314620001025780633df2967e1462000132576200009f565b366200009f57005b600080fd5b348015620000b157600080fd5b50620000bc6200028f565b005b348015620000cb57600080fd5b50620000ea6004803603810190620000e49190620008f5565b62000431565b604051620000f99190620009b2565b60405180910390f35b3480156200010f57600080fd5b506200011a62000471565b604051620001299190620009e0565b60405180910390f35b3480156200013f57600080fd5b506200015e6004803603810190620001589190620008f5565b62000477565b6040516200017195949392919062000ae1565b60405180910390f35b3480156200018757600080fd5b50620001a66004803603810190620001a0919062000bb3565b62000542565b005b348015620001b557600080fd5b50620001d46004803603810190620001ce919062000d85565b62000550565b005b348015620001e357600080fd5b50620002026004803603810190620001fc919062000bb3565b620006ae565b6040516200021292919062000eba565b60405180910390f35b3480156200022857600080fd5b5062000233620006d6565b60405162000242919062000fbc565b60405180910390f35b3480156200025857600080fd5b50620002776004803603810190620002719190620008f5565b62000766565b604051620002869190620009b2565b60405180910390f35b6000600180549050905060005b818160ff1610156200042d57600060018260ff1681548110620002c457620002c362000fe0565b5b9060005260206000200160009054906101000a900473ffffffffffffffffffffffffffffffffffffffff1690508073ffffffffffffffffffffffffffffffffffffffff16634665096d6040518163ffffffff1660e01b8152600401602060405180830381865afa1580156200033d573d6000803e3d6000fd5b505050506040513d601f19601f8201168201806040525081019062000363919062001026565b42111562000416578073ffffffffffffffffffffffffffffffffffffffff16638fced6266040518163ffffffff1660e01b8152600401600060405180830381600087803b158015620003b457600080fd5b505af1158015620003c9573d6000803e3d6000fd5b50505050620003db8260ff1662000799565b60026000815480929190620003f09062001087565b91905055508280620004029062001087565b93505081806200041290620010c3565b9250505b5080806200042490620010f2565b9150506200029c565b5050565b600181815481106200044257600080fd5b906000526020600020016000915054906101000a900473ffffffffffffffffffffffffffffffffffffffff1681565b60025481565b606060008060008060006003600088815260200190815260200160002060009054906101000a900473ffffffffffffffffffffffffffffffffffffffff1690508073ffffffffffffffffffffffffffffffffffffffff16638a2fd0296040518163ffffffff1660e01b8152600401600060405180830381865afa15801562000503573d6000803e3d6000fd5b505050506040513d6000823e3d601f19601f820116820180604052508101906200052e9190620011e7565b955095509550955095505091939590929450565b6200054c6200028f565b5050565b6000868686868686604051620005669062000898565b62000577969594939291906200128e565b604051809103906000f08015801562000594573d6000803e3d6000fd5b5090506001819080600181540180825580915050600190039060005260206000200160009091909190916101000a81548173ffffffffffffffffffffffffffffffffffffffff021916908373ffffffffffffffffffffffffffffffffffffffff1602179055508060036000600254815260200190815260200160002060006101000a81548173ffffffffffffffffffffffffffffffffffffffff021916908373ffffffffffffffffffffffffffffffffffffffff16021790555060026000815480929190620006639062001302565b91905055507f0840550f411a938efb94e557bd5a0e19473f9347fd529e440e5d7540f5236b028787876040516200069d9392919062001350565b60405180910390a150505050505050565b6000606060006001805490501160405180602001604052806000815250915091509250929050565b606060018054806020026020016040519081016040528092919081815260200182805480156200075c57602002820191906000526020600020905b8160009054906101000a900473ffffffffffffffffffffffffffffffffffffffff1673ffffffffffffffffffffffffffffffffffffffff168152602001906001019080831162000711575b5050505050905090565b60036020528060005260406000206000915054906101000a900473ffffffffffffffffffffffffffffffffffffffff1681565b6001808080549050620007ad919062001394565b81548110620007c157620007c062000fe0565b5b9060005260206000200160009054906101000a900473ffffffffffffffffffffffffffffffffffffffff166001828154811062000803576200080262000fe0565b5b9060005260206000200160006101000a81548173ffffffffffffffffffffffffffffffffffffffff021916908373ffffffffffffffffffffffffffffffffffffffff160217905550600180548062000860576200085f620013cf565b5b6001900381819060005260206000200160006101000a81549073ffffffffffffffffffffffffffffffffffffffff0219169055905550565b61310580620013ff83390190565b6000604051905090565b600080fd5b600080fd5b6000819050919050565b620008cf81620008ba565b8114620008db57600080fd5b50565b600081359050620008ef81620008c4565b92915050565b6000602082840312156200090e576200090d620008b0565b5b60006200091e84828501620008de565b91505092915050565b600073ffffffffffffffffffffffffffffffffffffffff82169050919050565b6000819050919050565b6000620009726200096c620009668462000927565b62000947565b62000927565b9050919050565b6000620009868262000951565b9050919050565b60006200099a8262000979565b9050919050565b620009ac816200098d565b82525050565b6000602082019050620009c96000830184620009a1565b92915050565b620009da81620008ba565b82525050565b6000602082019050620009f76000830184620009cf565b92915050565b600081519050919050565b600082825260208201905092915050565b60005b8381101562000a3957808201518184015260208101905062000a1c565b8381111562000a49576000848401525b50505050565b6000601f19601f8301169050919050565b600062000a6d82620009fd565b62000a79818562000a08565b935062000a8b81856020860162000a19565b62000a968162000a4f565b840191505092915050565b6000819050919050565b62000ab68162000aa1565b82525050565b600062000ac98262000927565b9050919050565b62000adb8162000abc565b82525050565b600060a082019050818103600083015262000afd818862000a60565b905062000b0e602083018762000aab565b62000b1d604083018662000aab565b62000b2c6060830185620009cf565b62000b3b608083018462000ad0565b9695505050505050565b600080fd5b600080fd5b600080fd5b60008083601f84011262000b6d5762000b6c62000b45565b5b8235905067ffffffffffffffff81111562000b8d5762000b8c62000b4a565b5b60208301915083600182028301111562000bac5762000bab62000b4f565b5b9250929050565b6000806020838503121562000bcd5762000bcc620008b0565b5b600083013567ffffffffffffffff81111562000bee5762000bed620008b5565b5b62000bfc8582860162000b54565b92509250509250929050565b600080fd5b7f4e487b7100000000000000000000000000000000000000000000000000000000600052604160045260246000fd5b62000c478262000a4f565b810181811067ffffffffffffffff8211171562000c695762000c6862000c0d565b5b80604052505050565b600062000c7e620008a6565b905062000c8c828262000c3c565b919050565b600067ffffffffffffffff82111562000caf5762000cae62000c0d565b5b62000cba8262000a4f565b9050602081019050919050565b82818337600083830152505050565b600062000ced62000ce78462000c91565b62000c72565b90508281526020810184848401111562000d0c5762000d0b62000c08565b5b62000d1984828562000cc7565b509392505050565b600082601f83011262000d395762000d3862000b45565b5b813562000d4b84826020860162000cd6565b91505092915050565b62000d5f8162000aa1565b811462000d6b57600080fd5b50565b60008135905062000d7f8162000d54565b92915050565b60008060008060008060c0878903121562000da55762000da4620008b0565b5b600087013567ffffffffffffffff81111562000dc65762000dc5620008b5565b5b62000dd489828a0162000d21565b965050602062000de789828a0162000d6e565b955050604062000dfa89828a0162000d6e565b945050606062000e0d89828a0162000d6e565b935050608062000e2089828a0162000d6e565b92505060a062000e3389828a01620008de565b9150509295509295509295565b60008115159050919050565b62000e578162000e40565b82525050565b600081519050919050565b600082825260208201905092915050565b600062000e868262000e5d565b62000e92818562000e68565b935062000ea481856020860162000a19565b62000eaf8162000a4f565b840191505092915050565b600060408201905062000ed1600083018562000e4c565b818103602083015262000ee5818462000e79565b90509392505050565b600081519050919050565b600082825260208201905092915050565b6000819050602082019050919050565b62000f25816200098d565b82525050565b600062000f39838362000f1a565b60208301905092915050565b6000602082019050919050565b600062000f5f8262000eee565b62000f6b818562000ef9565b935062000f788362000f0a565b8060005b8381101562000faf57815162000f93888262000f2b565b975062000fa08362000f45565b92505060018101905062000f7c565b5085935050505092915050565b6000602082019050818103600083015262000fd8818462000f52565b905092915050565b7f4e487b7100000000000000000000000000000000000000000000000000000000600052603260045260246000fd5b6000815190506200102081620008c4565b92915050565b6000602082840312156200103f576200103e620008b0565b5b60006200104f848285016200100f565b91505092915050565b7f4e487b7100000000000000000000000000000000000000000000000000000000600052601160045260246000fd5b60006200109482620008ba565b91506000821415620010ab57620010aa62001058565b5b600182039050919050565b600060ff82169050919050565b6000620010d082620010b6565b91506000821415620010e757620010e662001058565b5b600182039050919050565b6000620010ff82620010b6565b915060ff82141562001116576200111562001058565b5b600182019050919050565b600062001138620011328462000c91565b62000c72565b90508281526020810184848401111562001157576200115662000c08565b5b6200116484828562000a19565b509392505050565b600082601f83011262001184576200118362000b45565b5b81516200119684826020860162001121565b91505092915050565b600081519050620011b08162000d54565b92915050565b620011c18162000abc565b8114620011cd57600080fd5b50565b600081519050620011e181620011b6565b92915050565b600080600080600060a08688031215620012065762001205620008b0565b5b600086015167ffffffffffffffff811115620012275762001226620008b5565b5b62001235888289016200116c565b955050602062001248888289016200119f565b94505060406200125b888289016200119f565b93505060606200126e888289016200100f565b92505060806200128188828901620011d0565b9150509295509295909350565b600060c0820190508181036000830152620012aa818962000a60565b9050620012bb602083018862000aab565b620012ca604083018762000aab565b620012d9606083018662000aab565b620012e8608083018562000aab565b620012f760a0830184620009cf565b979650505050505050565b60006200130f82620008ba565b91507fffffffffffffffffffffffffffffffffffffffffffffffffffffffffffffffff82141562001345576200134462001058565b5b600182019050919050565b600060608201905081810360008301526200136c818662000a60565b90506200137d602083018562000aab565b6200138c604083018462000aab565b949350505050565b6000620013a182620008ba565b9150620013ae83620008ba565b925082821015620013c457620013c362001058565b5b828203905092915050565b7f4e487b7100000000000000000000000000000000000000000000000000000000600052603160045260246000fdfe608060405233600160006101000a81548173ffffffffffffffffffffffffffffffffffffffff021916908373ffffffffffffffffffffffffffffffffffffffff16021790555060018060146101000a81548160ff0219169083151502179055506000600960006101000a81548160ff021916908360ff1602179055503480156200008857600080fd5b5060405162003105380380620031058339818101604052810190620000ae91906200044c565b8560029080519060200190620000c692919062000189565b50670de0b6b3a764000085620000dd919062000536565b600381905550670de0b6b3a764000084620000f9919062000536565b600481905550670de0b6b3a76400008362000115919062000536565b6005819055508160078190555080600681905550739326bfa02add2366b30bacb125260af6410313316000806101000a81548173ffffffffffffffffffffffffffffffffffffffff021916908373ffffffffffffffffffffffffffffffffffffffff160217905550505050505050620006c2565b82805462000197906200068c565b90600052602060002090601f016020900481019282620001bb576000855562000207565b82601f10620001d657805160ff191683800117855562000207565b8280016001018555821562000207579182015b8281111562000206578251825591602001919060010190620001e9565b5b5090506200021691906200021a565b5090565b5b80821115620002355760008160009055506001016200021b565b5090565b6000604051905090565b600080fd5b600080fd5b600080fd5b600080fd5b6000601f19601f8301169050919050565b7f4e487b7100000000000000000000000000000000000000000000000000000000600052604160045260246000fd5b620002a28262000257565b810181811067ffffffffffffffff82111715620002c457620002c362000268565b5b80604052505050565b6000620002d962000239565b9050620002e7828262000297565b919050565b600067ffffffffffffffff8211156200030a576200030962000268565b5b620003158262000257565b9050602081019050919050565b60005b838110156200034257808201518184015260208101905062000325565b8381111562000352576000848401525b50505050565b60006200036f6200036984620002ec565b620002cd565b9050828152602081018484840111156200038e576200038d62000252565b5b6200039b84828562000322565b509392505050565b600082601f830112620003bb57620003ba6200024d565b5b8151620003cd84826020860162000358565b91505092915050565b6000819050919050565b620003eb81620003d6565b8114620003f757600080fd5b50565b6000815190506200040b81620003e0565b92915050565b6000819050919050565b620004268162000411565b81146200043257600080fd5b50565b60008151905062000446816200041b565b92915050565b60008060008060008060c087890312156200046c576200046b62000243565b5b600087015167ffffffffffffffff8111156200048d576200048c62000248565b5b6200049b89828a01620003a3565b9650506020620004ae89828a01620003fa565b9550506040620004c189828a01620003fa565b9450506060620004d489828a01620003fa565b9350506080620004e789828a01620003fa565b92505060a0620004fa89828a0162000435565b9150509295509295509295565b7f4e487b7100000000000000000000000000000000000000000000000000000000600052601160045260246000fd5b60006200054382620003d6565b91506200055083620003d6565b9250827f7fffffffffffffffffffffffffffffffffffffffffffffffffffffffffffffff048211600084136000841316161562000592576200059162000507565b5b817f80000000000000000000000000000000000000000000000000000000000000000583126000841260008413161615620005d257620005d162000507565b5b827f8000000000000000000000000000000000000000000000000000000000000000058212600084136000841216161562000612576200061162000507565b5b827f7fffffffffffffffffffffffffffffffffffffffffffffffffffffffffffffff058212600084126000841216161562000652576200065162000507565b5b828202905092915050565b7f4e487b7100000000000000000000000000000000000000000000000000000000600052602260045260246000fd5b60006002820490506001821680620006a557607f821691505b60208210811415620006bc57620006bb6200065d565b5b50919050565b612a3380620006d26000396000f3fe6080604052600436106101145760003560e01c80638b7afe2e116100a0578063b56b835311610064578063b56b835314610355578063b8f7a66514610380578063cfc2ca32146103ab578063d29a0025146103e8578063eb91d37e1461041157610114565b80638b7afe2e146102a15780638da5cb5b146102cc5780638fced626146102f757806395d89b411461030e57806397bfeb881461033957610114565b8063473fede8116100e7578063473fede8146101da5780635c25c76c146102055780635c812737146102305780637b6d79f11461025b5780638a2fd0291461027257610114565b80632ca8c6d3146101195780632f37290714610144578063419ae937146101845780634665096d146101af575b600080fd5b34801561012557600080fd5b5061012e61043c565b60405161013b91906115e3565b60405180910390f35b34801561015057600080fd5b5061016b60048036038101906101669190611670565b61044f565b60405161017b9493929190611757565b60405180910390f35b34801561019057600080fd5b506101996104b9565b6040516101a6919061185a565b60405180910390f35b3480156101bb57600080fd5b506101c4610547565b6040516101d1919061187c565b60405180910390f35b3480156101e657600080fd5b506101ef61054d565b6040516101fc91906118b0565b60405180910390f35b34801561021157600080fd5b5061021a610553565b60405161022791906118b0565b60405180910390f35b34801561023c57600080fd5b50610245610559565b60405161025291906118b0565b60405180910390f35b34801561026757600080fd5b5061027061055f565b005b34801561027e57600080fd5b50610287610852565b604051610298959493929190611964565b60405180910390f35b3480156102ad57600080fd5b506102b6610903565b6040516102c3919061187c565b60405180910390f35b3480156102d857600080fd5b506102e1610909565b6040516102ee91906119df565b60405180910390f35b34801561030357600080fd5b5061030c61092f565b005b34801561031a57600080fd5b50610323610b76565b60405161033091906119fa565b60405180910390f35b610353600480360381019061034e9190611b51565b610c04565b005b34801561036157600080fd5b5061036a610f5d565b60405161037791906118b0565b60405180910390f35b34801561038c57600080fd5b50610395610f63565b6040516103a29190611b9a565b60405180910390f35b3480156103b757600080fd5b506103d260048036038101906103cd9190611be1565b610f76565b6040516103df9190611c0e565b60405180910390f35b3480156103f457600080fd5b5061040f600480360381019061040a9190611be1565b610fb5565b005b34801561041d57600080fd5b50610426611103565b60405161043391906118b0565b60405180910390f35b600960009054906101000a900460ff1681565b60086020528060005260406000206000915090508060000160009054906101000a900473ffffffffffffffffffffffffffffffffffffffff16908060000160149054906101000a900460ff16908060010154908060020160009054906101000a900460ff16905084565b6060600b80548060200260200160405190810160405280929190818152602001828054801561053d57602002820191906000526020600020905b8160009054906101000a900473ffffffffffffffffffffffffffffffffffffffff1673ffffffffffffffffffffffffffffffffffffffff16815260200190600101908083116104f3575b5050505050905090565b60065481565b60055481565b60045481565b60075481565b60011515600860003373ffffffffffffffffffffffffffffffffffffffff1673ffffffffffffffffffffffffffffffffffffffff16815260200190815260200160002060020160009054906101000a900460ff161515146105f5576040517f08c379a00000000000000000000000000000000000000000000000000000000081526004016105ec90611c75565b60405180910390fd5b6000600860003373ffffffffffffffffffffffffffffffffffffffff1673ffffffffffffffffffffffffffffffffffffffff168152602001908152602001600020905060008160010154905080600a541015610686576040517f08c379a000000000000000000000000000000000000000000000000000000000815260040161067d90611d07565b60405180910390fd5b60008260020160006101000a81548160ff0219169083151502179055506000826001018190555060028260000160146101000a81548160ff021916908360028111156106d5576106d46116ac565b5b02179055506001600960008282829054906101000a900460ff166106f99190611d56565b92506101000a81548160ff021916908360ff16021790555080600a60008282546107239190611d8a565b92505081905550610733336111a2565b60008260000160009054906101000a900473ffffffffffffffffffffffffffffffffffffffff1673ffffffffffffffffffffffffffffffffffffffff168260405161077d90611def565b60006040518083038185875af1925050503d80600081146107ba576040519150601f19603f3d011682016040523d82523d6000602084013e6107bf565b606091505b5050905080610803576040517f08c379a00000000000000000000000000000000000000000000000000000000081526004016107fa90611e50565b60405180910390fd5b7f5c0ede0ff70e8d91413ba60230ee5b241c5f1d8c42a7ddff28700b94be01c0d4338460000160149054906101000a900460ff16604051610845929190611e70565b60405180910390a1505050565b606060008060008060026003546004546006543084805461087290611ec8565b80601f016020809104026020016040519081016040528092919081815260200182805461089e90611ec8565b80156108eb5780601f106108c0576101008083540402835291602001916108eb565b820191906000526020600020905b8154815290600101906020018083116108ce57829003601f168201915b50505050509450945094509450945094509091929394565b600a5481565b600160009054906101000a900473ffffffffffffffffffffffffffffffffffffffff1681565b600160009054906101000a900473ffffffffffffffffffffffffffffffffffffffff1673ffffffffffffffffffffffffffffffffffffffff163373ffffffffffffffffffffffffffffffffffffffff16146109bf576040517f08c379a00000000000000000000000000000000000000000000000000000000081526004016109b690611f6c565b60405180910390fd5b60006402540be4006109cf611103565b6109d99190611f8c565b90506000600290506004546003546109f191906120a3565b821315610a015760009050610a1e565b600454600354610a119190612137565b821215610a1d57600190505b5b6000600960009054906101000a900460ff1660ff16905060005b600960009054906101000a900460ff1660ff168160ff161015610b67576000600b8260ff1681548110610a6e57610a6d6121cb565b5b9060005260206000200160009054906101000a900473ffffffffffffffffffffffffffffffffffffffff1690506000600860008373ffffffffffffffffffffffffffffffffffffffff1673ffffffffffffffffffffffffffffffffffffffff16815260200190815260200160002090508060020160009054906101000a900460ff168015610b305750846002811115610b0a57610b096116ac565b5b8160000160149054906101000a900460ff166002811115610b2e57610b2d6116ac565b5b145b15610b4457610b43828260010154611338565b5b8380610b4f906121fa565b94505050508080610b5f90612224565b915050610a38565b50610b7181610fb5565b505050565b60028054610b8390611ec8565b80601f0160208091040260200160405190810160405280929190818152602001828054610baf90611ec8565b8015610bfc5780601f10610bd157610100808354040283529160200191610bfc565b820191906000526020600020905b815481529060010190602001808311610bdf57829003601f168201915b505050505081565b600160009054906101000a900473ffffffffffffffffffffffffffffffffffffffff1673ffffffffffffffffffffffffffffffffffffffff163373ffffffffffffffffffffffffffffffffffffffff161415610c95576040517f08c379a0000000000000000000000000000000000000000000000000000000008152600401610c8c9061229a565b60405180910390fd5b60001515600860003373ffffffffffffffffffffffffffffffffffffffff1673ffffffffffffffffffffffffffffffffffffffff16815260200190815260200160002060020160009054906101000a900460ff16151514610d2b576040517f08c379a0000000000000000000000000000000000000000000000000000000008152600401610d2290612306565b60405180910390fd5b6000610d36826114c8565b9050600b339080600181540180825580915050600190039060005260206000200160009091909190916101000a81548173ffffffffffffffffffffffffffffffffffffffff021916908373ffffffffffffffffffffffffffffffffffffffff160217905550600060405180608001604052803373ffffffffffffffffffffffffffffffffffffffff168152602001836002811115610dd757610dd66116ac565b5b815260200134815260200160011515815250905080600860003373ffffffffffffffffffffffffffffffffffffffff1673ffffffffffffffffffffffffffffffffffffffff16815260200190815260200160002060008201518160000160006101000a81548173ffffffffffffffffffffffffffffffffffffffff021916908373ffffffffffffffffffffffffffffffffffffffff16021790555060208201518160000160146101000a81548160ff02191690836002811115610e9d57610e9c6116ac565b5b02179055506040820151816001015560608201518160020160006101000a81548160ff0219169083151502179055509050506001600960008282829054906101000a900460ff16610eee9190612326565b92506101000a81548160ff021916908360ff16021790555034600a6000828254610f18919061235d565b925050819055507f5c0ede0ff70e8d91413ba60230ee5b241c5f1d8c42a7ddff28700b94be01c0d43383604051610f50929190611e70565b60405180910390a1505050565b60035481565b600160149054906101000a900460ff1681565b600b8181548110610f8657600080fd5b906000526020600020016000915054906101000a900473ffffffffffffffffffffffffffffffffffffffff1681565b60008114610ff8576040517f08c379a0000000000000000000000000000000000000000000000000000000008152600401610fef90612425565b60405180910390fd5b6000600160009054906101000a900473ffffffffffffffffffffffffffffffffffffffff1673ffffffffffffffffffffffffffffffffffffffff16600a5460405161104290611def565b60006040518083038185875af1925050503d806000811461107f576040519150601f19603f3d011682016040523d82523d6000602084013e611084565b606091505b50509050806110c8576040517f08c379a00000000000000000000000000000000000000000000000000000000081526004016110bf90612491565b60405180910390fd5b600160009054906101000a900473ffffffffffffffffffffffffffffffffffffffff1673ffffffffffffffffffffffffffffffffffffffff16ff5b60008060008054906101000a900473ffffffffffffffffffffffffffffffffffffffff1673ffffffffffffffffffffffffffffffffffffffff1663feaf968c6040518163ffffffff1660e01b815260040160a060405180830381865afa158015611171573d6000803e3d6000fd5b505050506040513d601f19601f820116820180604052508101906111959190612534565b5050509150508091505090565b600080600090505b600b80549050811015611240578273ffffffffffffffffffffffffffffffffffffffff16600b82815481106111e2576111e16121cb565b5b9060005260206000200160009054906101000a900473ffffffffffffffffffffffffffffffffffffffff1673ffffffffffffffffffffffffffffffffffffffff16141561122d578091505b8080611238906125af565b9150506111aa565b50600b6001600b805490506112559190611d8a565b81548110611266576112656121cb565b5b9060005260206000200160009054906101000a900473ffffffffffffffffffffffffffffffffffffffff16600b82815481106112a5576112a46121cb565b5b9060005260206000200160006101000a81548173ffffffffffffffffffffffffffffffffffffffff021916908373ffffffffffffffffffffffffffffffffffffffff160217905550600b8054806112ff576112fe6125f8565b5b6001900381819060005260206000200160006101000a81549073ffffffffffffffffffffffffffffffffffffffff021916905590555050565b6000600a6007548361134a9190612627565b61135491906126b0565b905080600a54101561139b576040517f08c379a00000000000000000000000000000000000000000000000000000000081526004016113929061272d565b60405180910390fd5b80600a60008282546113ad9190611d8a565b9250508190555060008373ffffffffffffffffffffffffffffffffffffffff16826040516113da90611def565b60006040518083038185875af1925050503d8060008114611417576040519150601f19603f3d011682016040523d82523d6000602084013e61141c565b606091505b505090506000846040516020016114339190612812565b6040516020818303038152906040529050818190611487576040517f08c379a000000000000000000000000000000000000000000000000000000000815260040161147e91906119fa565b60405180910390fd5b507fa3ca6c6f1413e28d2a8c7aaa386259e7c61bbe6970cfb14720b44ec9a0ddceed85846040516114b9929190612838565b60405180910390a15050505050565b60006040516020016114d9906128ad565b604051602081830303815290604052805190602001208260405160200161150091906128f3565b60405160208183030381529060405280519060200120141561152557600090506115c2565b60405160200161153490612956565b604051602081830303815290604052805190602001208260405160200161155b91906128f3565b60405160208183030381529060405280519060200120141561158057600190506115c2565b60006115c1576040517f08c379a00000000000000000000000000000000000000000000000000000000081526004016115b8906129dd565b60405180910390fd5b5b919050565b600060ff82169050919050565b6115dd816115c7565b82525050565b60006020820190506115f860008301846115d4565b92915050565b6000604051905090565b600080fd5b600080fd5b600073ffffffffffffffffffffffffffffffffffffffff82169050919050565b600061163d82611612565b9050919050565b61164d81611632565b811461165857600080fd5b50565b60008135905061166a81611644565b92915050565b60006020828403121561168657611685611608565b5b60006116948482850161165b565b91505092915050565b6116a681611632565b82525050565b7f4e487b7100000000000000000000000000000000000000000000000000000000600052602160045260246000fd5b600381106116ec576116eb6116ac565b5b50565b60008190506116fd826116db565b919050565b600061170d826116ef565b9050919050565b61171d81611702565b82525050565b6000819050919050565b61173681611723565b82525050565b60008115159050919050565b6117518161173c565b82525050565b600060808201905061176c600083018761169d565b6117796020830186611714565b611786604083018561172d565b6117936060830184611748565b95945050505050565b600081519050919050565b600082825260208201905092915050565b6000819050602082019050919050565b6117d181611632565b82525050565b60006117e383836117c8565b60208301905092915050565b6000602082019050919050565b60006118078261179c565b61181181856117a7565b935061181c836117b8565b8060005b8381101561184d57815161183488826117d7565b975061183f836117ef565b925050600181019050611820565b5085935050505092915050565b6000602082019050818103600083015261187481846117fc565b905092915050565b6000602082019050611891600083018461172d565b92915050565b6000819050919050565b6118aa81611897565b82525050565b60006020820190506118c560008301846118a1565b92915050565b600081519050919050565b600082825260208201905092915050565b60005b838110156119055780820151818401526020810190506118ea565b83811115611914576000848401525b50505050565b6000601f19601f8301169050919050565b6000611936826118cb565b61194081856118d6565b93506119508185602086016118e7565b6119598161191a565b840191505092915050565b600060a082019050818103600083015261197e818861192b565b905061198d60208301876118a1565b61199a60408301866118a1565b6119a7606083018561172d565b6119b4608083018461169d565b9695505050505050565b60006119c982611612565b9050919050565b6119d9816119be565b82525050565b60006020820190506119f460008301846119d0565b92915050565b60006020820190508181036000830152611a14818461192b565b905092915050565b600080fd5b600080fd5b7f4e487b7100000000000000000000000000000000000000000000000000000000600052604160045260246000fd5b611a5e8261191a565b810181811067ffffffffffffffff82111715611a7d57611a7c611a26565b5b80604052505050565b6000611a906115fe565b9050611a9c8282611a55565b919050565b600067ffffffffffffffff821115611abc57611abb611a26565b5b611ac58261191a565b9050602081019050919050565b82818337600083830152505050565b6000611af4611aef84611aa1565b611a86565b905082815260208101848484011115611b1057611b0f611a21565b5b611b1b848285611ad2565b509392505050565b600082601f830112611b3857611b37611a1c565b5b8135611b48848260208601611ae1565b91505092915050565b600060208284031215611b6757611b66611608565b5b600082013567ffffffffffffffff811115611b8557611b8461160d565b5b611b9184828501611b23565b91505092915050565b6000602082019050611baf6000830184611748565b92915050565b611bbe81611723565b8114611bc957600080fd5b50565b600081359050611bdb81611bb5565b92915050565b600060208284031215611bf757611bf6611608565b5b6000611c0584828501611bcc565b91505092915050565b6000602082019050611c23600083018461169d565b92915050565b7f5573657220686173206e6f2062657420746f2063616e63656c2e000000000000600082015250565b6000611c5f601a836118d6565b9150611c6a82611c29565b602082019050919050565b60006020820190508181036000830152611c8e81611c52565b9050919050565b7f596f752061726520747279696e6720746f20776974686472617720746f6f206d60008201527f7563682045746865722e00000000000000000000000000000000000000000000602082015250565b6000611cf1602a836118d6565b9150611cfc82611c95565b604082019050919050565b60006020820190508181036000830152611d2081611ce4565b9050919050565b7f4e487b7100000000000000000000000000000000000000000000000000000000600052601160045260246000fd5b6000611d61826115c7565b9150611d6c836115c7565b925082821015611d7f57611d7e611d27565b5b828203905092915050565b6000611d9582611723565b9150611da083611723565b925082821015611db357611db2611d27565b5b828203905092915050565b600081905092915050565b50565b6000611dd9600083611dbe565b9150611de482611dc9565b600082019050919050565b6000611dfa82611dcc565b9150819050919050565b7f4661696c656420746f2072657475726e20457468657200000000000000000000600082015250565b6000611e3a6016836118d6565b9150611e4582611e04565b602082019050919050565b60006020820190508181036000830152611e6981611e2d565b9050919050565b6000604082019050611e85600083018561169d565b611e926020830184611714565b9392505050565b7f4e487b7100000000000000000000000000000000000000000000000000000000600052602260045260246000fd5b60006002820490506001821680611ee057607f821691505b60208210811415611ef457611ef3611e99565b5b50919050565b7f4f6e6c7920636f6e7472616374206f776e65722063616e207265736f6c76652060008201527f6265742e00000000000000000000000000000000000000000000000000000000602082015250565b6000611f566024836118d6565b9150611f6182611efa565b604082019050919050565b60006020820190508181036000830152611f8581611f49565b9050919050565b6000611f9782611897565b9150611fa283611897565b9250827f7fffffffffffffffffffffffffffffffffffffffffffffffffffffffffffffff0482116000841360008413161615611fe157611fe0611d27565b5b817f8000000000000000000000000000000000000000000000000000000000000000058312600084126000841316161561201e5761201d611d27565b5b827f8000000000000000000000000000000000000000000000000000000000000000058212600084136000841216161561205b5761205a611d27565b5b827f7fffffffffffffffffffffffffffffffffffffffffffffffffffffffffffffff058212600084126000841216161561209857612097611d27565b5b828202905092915050565b60006120ae82611897565b91506120b983611897565b9250817f7fffffffffffffffffffffffffffffffffffffffffffffffffffffffffffffff038313600083121516156120f4576120f3611d27565b5b817f800000000000000000000000000000000000000000000000000000000000000003831260008312161561212c5761212b611d27565b5b828201905092915050565b600061214282611897565b915061214d83611897565b9250827f80000000000000000000000000000000000000000000000000000000000000000182126000841215161561218857612187611d27565b5b827f7fffffffffffffffffffffffffffffffffffffffffffffffffffffffffffffff0182136000841216156121c0576121bf611d27565b5b828203905092915050565b7f4e487b7100000000000000000000000000000000000000000000000000000000600052603260045260246000fd5b600061220582611723565b9150600082141561221957612218611d27565b5b600182039050919050565b600061222f826115c7565b915060ff82141561224357612242611d27565b5b600182019050919050565b7f43726561746f722063616e6e6f7420706c616365206265742e00000000000000600082015250565b60006122846019836118d6565b915061228f8261224e565b602082019050919050565b600060208201905081810360008301526122b381612277565b9050919050565b7f5573657220616c72656164792068617320706c616365642061206265742e0000600082015250565b60006122f0601e836118d6565b91506122fb826122ba565b602082019050919050565b6000602082019050818103600083015261231f816122e3565b9050919050565b6000612331826115c7565b915061233c836115c7565b92508260ff0382111561235257612351611d27565b5b828201905092915050565b600061236882611723565b915061237383611723565b9250827fffffffffffffffffffffffffffffffffffffffffffffffffffffffffffffffff038211156123a8576123a7611d27565b5b828201905092915050565b7f436f6e7472616374207374696c6c2068617320756e7265736f6c76656420626560008201527f7473000000000000000000000000000000000000000000000000000000000000602082015250565b600061240f6022836118d6565b915061241a826123b3565b604082019050919050565b6000602082019050818103600083015261243e81612402565b9050919050565b7f4661696c656420746f2073656e64204574686572000000000000000000000000600082015250565b600061247b6014836118d6565b915061248682612445565b602082019050919050565b600060208201905081810360008301526124aa8161246e565b9050919050565b600069ffffffffffffffffffff82169050919050565b6124d0816124b1565b81146124db57600080fd5b50565b6000815190506124ed816124c7565b92915050565b6124fc81611897565b811461250757600080fd5b50565b600081519050612519816124f3565b92915050565b60008151905061252e81611bb5565b92915050565b600080600080600060a086880312156125505761254f611608565b5b600061255e888289016124de565b955050602061256f8882890161250a565b94505060406125808882890161251f565b93505060606125918882890161251f565b92505060806125a2888289016124de565b9150509295509295909350565b60006125ba82611723565b91507fffffffffffffffffffffffffffffffffffffffffffffffffffffffffffffffff8214156125ed576125ec611d27565b5b600182019050919050565b7f4e487b7100000000000000000000000000000000000000000000000000000000600052603160045260246000fd5b600061263282611723565b915061263d83611723565b9250817fffffffffffffffffffffffffffffffffffffffffffffffffffffffffffffffff048311821515161561267657612675611d27565b5b828202905092915050565b7f4e487b7100000000000000000000000000000000000000000000000000000000600052601260045260246000fd5b60006126bb82611723565b91506126c683611723565b9250826126d6576126d5612681565b5b828204905092915050565b7f496e73756666696369656e742066756e647320746f2077697468647261772e00600082015250565b6000612717601f836118d6565b9150612722826126e1565b602082019050919050565b600060208201905081810360008301526127468161270a565b9050919050565b600081905092915050565b7f4661696c656420746f2073656e6420457468657220746f206265742077696e6e60008201527f6572207769746820616464726573733a20000000000000000000000000000000602082015250565b60006127b460318361274d565b91506127bf82612758565b603182019050919050565b60008160601b9050919050565b60006127e2826127ca565b9050919050565b60006127f4826127d7565b9050919050565b61280c61280782611632565b6127e9565b82525050565b600061281d826127a7565b915061282982846127fb565b60148201915081905092915050565b600060408201905061284d600083018561169d565b61285a602083018461172d565b9392505050565b7f6f76657200000000000000000000000000000000000000000000000000000000600082015250565b600061289760048361274d565b91506128a282612861565b600482019050919050565b60006128b88261288a565b9150819050919050565b60006128cd826118cb565b6128d7818561274d565b93506128e78185602086016118e7565b80840191505092915050565b60006128ff82846128c2565b915081905092915050565b7f756e646572000000000000000000000000000000000000000000000000000000600082015250565b600061294060058361274d565b915061294b8261290a565b600582019050919050565b600061296182612933565b9150819050919050565b7f53696465206f6620626574206d757374206265206569746865723a20276f766560008201527f7227206f722027756e646572272e000000000000000000000000000000000000602082015250565b60006129c7602e836118d6565b91506129d28261296b565b604082019050919050565b600060208201905081810360008301526129f6816129ba565b905091905056fea264697066735822122067461b8b409adff7fec6df223714e3373bce2e705e6ffa1afe57e9f9cec28e7d64736f6c634300080b0033a264697066735822122000b046af9ab76a96a3fc5290f1807bfb22422d2bc907ea9ac5c6ea9fdbe6915564736f6c634300080b0033",
  "immutableReferences": {},
  "source": "// SPDX-License-Identifier: UNLICENSED\npragma solidity 0.8.11;\n\nimport './Bet.sol';\nimport \"@chainlink/contracts/src/v0.8/KeeperCompatible.sol\";\n\n/// @title Bet factory contract.\n/// @author Fermin Carranza\n/// @notice Basic contract to create bets. Only ETH/USD currently supported.\n/// @dev Chainlink Keeper not currently working. Not production ready.\ncontract BetFactory is KeeperCompatible {\n    /*\n    / Events - Publicize events to external listeners.\n    */\n    event LogBetCreatedFromFactory(string symbol, int line, int spread);\n\n    /// Storage variables\n    address private owner = msg.sender;\n    Bet[] public bets;\n    uint public numberOfBets;\n    mapping(uint256 => Bet) public betsMap;\n\n    /// Receive Ether function.\n    receive() external payable {}\n\n    /// @notice Create a new bet for users to participate in. (Only ETH/USD currently supported)\n    /// @param _symbol Ticker symbol of the security to bet on.\n    /// @param _line The price at which contract settles at expiration.\n    /// @param _spread Spread price can move from line.\n    /// @param _maxBetSize The maximum amount a user can bet (in ETH).\n    /// @param _multiplier The payout multiplier for winning bets.\n    /// @param _expiration The expiration date of the bet.\n    function createBet(string memory _symbol, int _line, int _spread, int _maxBetSize, int _multiplier, uint _expiration) public {\n        Bet _bet = new Bet(_symbol, _line, _spread, _maxBetSize, _multiplier, _expiration);\n        bets.push(_bet);\n        betsMap[numberOfBets] = _bet;\n        numberOfBets++;\n\n        emit LogBetCreatedFromFactory(_symbol, _line, _spread);\n    }\n\n    /// @return Returns all outstanding bets.\n    function getAllBets() public view returns (Bet[] memory) {\n        return bets;\n    }\n\n    /// @notice Returns a specific bet's details.\n    /// @param index The ID of the bet.\n    /// @return Array containing: symbol, line, spread and expiration of bet.\n    function getBetDetails(uint index) public view returns (string memory, int, int, uint, address) {\n        Bet bet = betsMap[index];\n        return bet.getBetDetails();\n    }\n\n    /// @notice Resolves outstanding bets if current time is greater than expiration.\n    function resolveExistingBets() public {\n        uint _betsLength = bets.length;\n        for (uint8 _i = 0; _i < _betsLength; _i++) {\n            Bet currentBet = bets[_i];\n            if (block.timestamp > currentBet.expiration()) {\n                currentBet.resolveBet();\n                removeFromBets(_i);\n                numberOfBets--;\n                _betsLength--;\n                _i--;\n            }\n        }\n    }\n\n    /// @notice Chainlink function to check if outside data should make it into the contract.\n    /// @dev Currently not working.\n    function checkUpkeep(\n        bytes calldata /*checkData */\n    ) external override view returns (bool upkeepNeeded, bytes memory) {\n        return (bets.length > 0, bytes(''));\n    }\n\n    /// @notice Method to run if Chainlink determines the contract needs to perform an action.\n    function performUpkeep(bytes calldata) external override {\n        resolveExistingBets();\n    }\n\n    /// @notice Removes old bet from current bets array.\n    /// @param index The ID of the bet to remove.\n    /// @dev Utility method to remove old bet from current bets array.\n    function removeFromBets(uint index) internal {\n        bets[index] = bets[bets.length - 1];\n        bets.pop();\n    }\n}\n",
  "sourcePath": "/Users/efecarranza/projects/sportsbetx/contracts/BetFactory.sol",
  "compiler": {
    "name": "solc",
    "version": "0.8.11+commit.d7f03943.Emscripten.clang"
  },
  "schemaVersion": "3.4.4",
  "updatedAt": "2022-01-17T23:08:04.358Z",
  "devdoc": {
    "author": "Fermin Carranza",
    "details": "Chainlink Keeper not currently working. Not production ready.",
    "kind": "dev",
    "methods": {
      "checkUpkeep(bytes)": {
        "details": "Currently not working."
      },
      "createBet(string,int256,int256,int256,int256,uint256)": {
        "params": {
          "_expiration": "The expiration date of the bet.",
          "_line": "The price at which contract settles at expiration.",
          "_maxBetSize": "The maximum amount a user can bet (in ETH).",
          "_multiplier": "The payout multiplier for winning bets.",
          "_spread": "Spread price can move from line.",
          "_symbol": "Ticker symbol of the security to bet on."
        }
      },
      "getAllBets()": {
        "returns": {
          "_0": "Returns all outstanding bets."
        }
      },
      "getBetDetails(uint256)": {
        "params": {
          "index": "The ID of the bet."
        },
        "returns": {
          "_0": "Array containing: symbol, line, spread and expiration of bet."
        }
      }
    },
    "title": "Bet factory contract.",
    "version": 1
  },
  "userdoc": {
    "kind": "user",
    "methods": {
      "checkUpkeep(bytes)": {
        "notice": "Chainlink function to check if outside data should make it into the contract."
      },
      "createBet(string,int256,int256,int256,int256,uint256)": {
        "notice": "Create a new bet for users to participate in. (Only ETH/USD currently supported)"
      },
      "getBetDetails(uint256)": {
        "notice": "Returns a specific bet's details."
      },
      "performUpkeep(bytes)": {
        "notice": "Method to run if Chainlink determines the contract needs to perform an action."
      },
      "resolveExistingBets()": {
        "notice": "Resolves outstanding bets if current time is greater than expiration."
      }
    },
    "notice": "Basic contract to create bets. Only ETH/USD currently supported.",
    "version": 1
  }
}