{
  "contractName": "BetFactory",
  "abi": [
    {
      "inputs": [],
      "name": "OnlySimulatedBackend",
      "type": "error"
    },
    {
      "anonymous": false,
      "inputs": [
        {
          "indexed": false,
          "internalType": "string",
          "name": "symbol",
          "type": "string"
        },
        {
          "indexed": false,
          "internalType": "int256",
          "name": "line",
          "type": "int256"
        },
        {
          "indexed": false,
          "internalType": "int256",
          "name": "spread",
          "type": "int256"
        }
      ],
      "name": "LogBetCreatedFromFactory",
      "type": "event"
    },
    {
      "inputs": [
        {
          "internalType": "uint256",
          "name": "",
          "type": "uint256"
        }
      ],
      "name": "bets",
      "outputs": [
        {
          "internalType": "contract Bet",
          "name": "",
          "type": "address"
        }
      ],
      "stateMutability": "view",
      "type": "function"
    },
    {
      "inputs": [
        {
          "internalType": "uint256",
          "name": "",
          "type": "uint256"
        }
      ],
      "name": "betsMap",
      "outputs": [
        {
          "internalType": "contract Bet",
          "name": "",
          "type": "address"
        }
      ],
      "stateMutability": "view",
      "type": "function"
    },
    {
      "inputs": [],
      "name": "numberOfBets",
      "outputs": [
        {
          "internalType": "uint256",
          "name": "",
          "type": "uint256"
        }
      ],
      "stateMutability": "view",
      "type": "function"
    },
    {
      "stateMutability": "payable",
      "type": "receive"
    },
    {
      "inputs": [
        {
          "internalType": "string",
          "name": "_symbol",
          "type": "string"
        },
        {
          "internalType": "int256",
          "name": "_line",
          "type": "int256"
        },
        {
          "internalType": "int256",
          "name": "_spread",
          "type": "int256"
        },
        {
          "internalType": "int256",
          "name": "_maxBetSize",
          "type": "int256"
        },
        {
          "internalType": "int256",
          "name": "_multiplier",
          "type": "int256"
        },
        {
          "internalType": "uint256",
          "name": "_expiration",
          "type": "uint256"
        }
      ],
      "name": "createBet",
      "outputs": [],
      "stateMutability": "nonpayable",
      "type": "function"
    },
    {
      "inputs": [],
      "name": "getAllBets",
      "outputs": [
        {
          "internalType": "contract Bet[]",
          "name": "",
          "type": "address[]"
        }
      ],
      "stateMutability": "view",
      "type": "function"
    },
    {
      "inputs": [
        {
          "internalType": "uint256",
          "name": "index",
          "type": "uint256"
        }
      ],
      "name": "getBetDetails",
      "outputs": [
        {
          "internalType": "string",
          "name": "",
          "type": "string"
        },
        {
          "internalType": "int256",
          "name": "",
          "type": "int256"
        },
        {
          "internalType": "int256",
          "name": "",
          "type": "int256"
        },
        {
          "internalType": "uint256",
          "name": "",
          "type": "uint256"
        },
        {
          "internalType": "address",
          "name": "",
          "type": "address"
        }
      ],
      "stateMutability": "view",
      "type": "function"
    },
    {
      "inputs": [],
      "name": "resolveExistingBets",
      "outputs": [],
      "stateMutability": "nonpayable",
      "type": "function"
    },
    {
      "inputs": [
        {
          "internalType": "uint256",
          "name": "index",
          "type": "uint256"
        }
      ],
      "name": "resolveBet",
      "outputs": [],
      "stateMutability": "nonpayable",
      "type": "function"
    },
    {
      "inputs": [
        {
          "internalType": "bytes",
          "name": "",
          "type": "bytes"
        }
      ],
      "name": "checkUpkeep",
      "outputs": [
        {
          "internalType": "bool",
          "name": "upkeepNeeded",
          "type": "bool"
        },
        {
          "internalType": "bytes",
          "name": "",
          "type": "bytes"
        }
      ],
      "stateMutability": "view",
      "type": "function"
    },
    {
      "inputs": [
        {
          "internalType": "bytes",
          "name": "",
          "type": "bytes"
        }
      ],
      "name": "performUpkeep",
      "outputs": [],
      "stateMutability": "nonpayable",
      "type": "function"
    }
  ],
  "bytecode": "0x6080604052336000806101000a81548173ffffffffffffffffffffffffffffffffffffffff021916908373ffffffffffffffffffffffffffffffffffffffff16021790555034801561005057600080fd5b506148a9806100606000396000f3fe608060405260043610620000a35760003560e01c80634c36c36e11620000615780634c36c36e14620001b457806369f1954c14620001e25780636e04ff0d1462000210578063700eae731462000255578063f72408d5146200028557620000ab565b80630636ce2714620000b057806322af00fa14620000ca5780632ca8c6d3146200010e5780633df2967e146200013e5780634585e33b146200018657620000ab565b36620000ab57005b600080fd5b348015620000bd57600080fd5b50620000c8620002c9565b005b348015620000d757600080fd5b50620000f66004803603810190620000f0919062000b98565b62000540565b60405162000105919062000c55565b60405180910390f35b3480156200011b57600080fd5b506200012662000580565b60405162000135919062000c83565b60405180910390f35b3480156200014b57600080fd5b506200016a600480360381019062000164919062000b98565b62000586565b6040516200017d95949392919062000d84565b60405180910390f35b3480156200019357600080fd5b50620001b26004803603810190620001ac919062000e56565b62000651565b005b348015620001c157600080fd5b50620001e06004803603810190620001da919062000b98565b6200065f565b005b348015620001ef57600080fd5b506200020e600480360381019062000208919062001028565b62000805565b005b3480156200021d57600080fd5b506200023c600480360381019062000236919062000e56565b62000963565b6040516200024c9291906200115d565b60405180910390f35b3480156200026257600080fd5b506200026d62000979565b6040516200027c91906200125f565b60405180910390f35b3480156200029257600080fd5b50620002b16004803603810190620002ab919062000b98565b62000a09565b604051620002c0919062000c55565b60405180910390f35b6000600180549050905060005b818160ff1610156200053c57600060018260ff1681548110620002fe57620002fd62001283565b5b9060005260206000200160009054906101000a900473ffffffffffffffffffffffffffffffffffffffff1690508073ffffffffffffffffffffffffffffffffffffffff16634665096d6040518163ffffffff1660e01b8152600401602060405180830381865afa15801562000377573d6000803e3d6000fd5b505050506040513d601f19601f820116820180604052508101906200039d9190620012c9565b421115620005255760008173ffffffffffffffffffffffffffffffffffffffff166040516024016040516020818303038152906040527f8fced626000000000000000000000000000000000000000000000000000000007bffffffffffffffffffffffffffffffffffffffffffffffffffffffff19166020820180517bffffffffffffffffffffffffffffffffffffffffffffffffffffffff83818316178352505050506040516200045091906200133d565b6000604051808303816000865af19150503d80600081146200048f576040519150601f19603f3d011682016040523d82523d6000602084013e62000494565b606091505b5050905080620004db576040517f08c379a0000000000000000000000000000000000000000000000000000000008152600401620004d290620013a6565b60405180910390fd5b620004e98360ff1662000a3c565b60026000815480929190620004fe90620013f7565b919050555083806200051090620013f7565b9450508280620005209062001433565b935050505b508080620005339062001462565b915050620002d6565b5050565b600181815481106200055157600080fd5b906000526020600020016000915054906101000a900473ffffffffffffffffffffffffffffffffffffffff1681565b60025481565b606060008060008060006003600088815260200190815260200160002060009054906101000a900473ffffffffffffffffffffffffffffffffffffffff1690508073ffffffffffffffffffffffffffffffffffffffff16638a2fd0296040518163ffffffff1660e01b8152600401600060405180830381865afa15801562000612573d6000803e3d6000fd5b505050506040513d6000823e3d601f19601f820116820180604052508101906200063d919062001557565b955095509550955095505091939590929450565b6200065b620002c9565b5050565b60006001828154811062000678576200067762001283565b5b9060005260206000200160009054906101000a900473ffffffffffffffffffffffffffffffffffffffff169050620006b08262000a3c565b60026000815480929190620006c590620013f7565b919050555060008173ffffffffffffffffffffffffffffffffffffffff166040516024016040516020818303038152906040527f8fced626000000000000000000000000000000000000000000000000000000007bffffffffffffffffffffffffffffffffffffffffffffffffffffffff19166020820180517bffffffffffffffffffffffffffffffffffffffffffffffffffffffff83818316178352505050506040516200077591906200133d565b6000604051808303816000865af19150503d8060008114620007b4576040519150601f19603f3d011682016040523d82523d6000602084013e620007b9565b606091505b505090508062000800576040517f08c379a0000000000000000000000000000000000000000000000000000000008152600401620007f790620013a6565b60405180910390fd5b505050565b60008686868686866040516200081b9062000b3b565b6200082c96959493929190620015fe565b604051809103906000f08015801562000849573d6000803e3d6000fd5b5090506001819080600181540180825580915050600190039060005260206000200160009091909190916101000a81548173ffffffffffffffffffffffffffffffffffffffff021916908373ffffffffffffffffffffffffffffffffffffffff1602179055508060036000600254815260200190815260200160002060006101000a81548173ffffffffffffffffffffffffffffffffffffffff021916908373ffffffffffffffffffffffffffffffffffffffff16021790555060026000815480929190620009189062001672565b91905055507f0840550f411a938efb94e557bd5a0e19473f9347fd529e440e5d7540f5236b028787876040516200095293929190620016c0565b60405180910390a150505050505050565b6000606060006001805490501191509250929050565b60606001805480602002602001604051908101604052809291908181526020018280548015620009ff57602002820191906000526020600020905b8160009054906101000a900473ffffffffffffffffffffffffffffffffffffffff1673ffffffffffffffffffffffffffffffffffffffff1681526020019060010190808311620009b4575b5050505050905090565b60036020528060005260406000206000915054906101000a900473ffffffffffffffffffffffffffffffffffffffff1681565b600180808054905062000a50919062001704565b8154811062000a645762000a6362001283565b5b9060005260206000200160009054906101000a900473ffffffffffffffffffffffffffffffffffffffff166001828154811062000aa65762000aa562001283565b5b9060005260206000200160006101000a81548173ffffffffffffffffffffffffffffffffffffffff021916908373ffffffffffffffffffffffffffffffffffffffff160217905550600180548062000b035762000b026200173f565b5b6001900381819060005260206000200160006101000a81549073ffffffffffffffffffffffffffffffffffffffff0219169055905550565b613105806200176f83390190565b6000604051905090565b600080fd5b600080fd5b6000819050919050565b62000b728162000b5d565b811462000b7e57600080fd5b50565b60008135905062000b928162000b67565b92915050565b60006020828403121562000bb15762000bb062000b53565b5b600062000bc18482850162000b81565b91505092915050565b600073ffffffffffffffffffffffffffffffffffffffff82169050919050565b6000819050919050565b600062000c1562000c0f62000c098462000bca565b62000bea565b62000bca565b9050919050565b600062000c298262000bf4565b9050919050565b600062000c3d8262000c1c565b9050919050565b62000c4f8162000c30565b82525050565b600060208201905062000c6c600083018462000c44565b92915050565b62000c7d8162000b5d565b82525050565b600060208201905062000c9a600083018462000c72565b92915050565b600081519050919050565b600082825260208201905092915050565b60005b8381101562000cdc57808201518184015260208101905062000cbf565b8381111562000cec576000848401525b50505050565b6000601f19601f8301169050919050565b600062000d108262000ca0565b62000d1c818562000cab565b935062000d2e81856020860162000cbc565b62000d398162000cf2565b840191505092915050565b6000819050919050565b62000d598162000d44565b82525050565b600062000d6c8262000bca565b9050919050565b62000d7e8162000d5f565b82525050565b600060a082019050818103600083015262000da0818862000d03565b905062000db1602083018762000d4e565b62000dc0604083018662000d4e565b62000dcf606083018562000c72565b62000dde608083018462000d73565b9695505050505050565b600080fd5b600080fd5b600080fd5b60008083601f84011262000e105762000e0f62000de8565b5b8235905067ffffffffffffffff81111562000e305762000e2f62000ded565b5b60208301915083600182028301111562000e4f5762000e4e62000df2565b5b9250929050565b6000806020838503121562000e705762000e6f62000b53565b5b600083013567ffffffffffffffff81111562000e915762000e9062000b58565b5b62000e9f8582860162000df7565b92509250509250929050565b600080fd5b7f4e487b7100000000000000000000000000000000000000000000000000000000600052604160045260246000fd5b62000eea8262000cf2565b810181811067ffffffffffffffff8211171562000f0c5762000f0b62000eb0565b5b80604052505050565b600062000f2162000b49565b905062000f2f828262000edf565b919050565b600067ffffffffffffffff82111562000f525762000f5162000eb0565b5b62000f5d8262000cf2565b9050602081019050919050565b82818337600083830152505050565b600062000f9062000f8a8462000f34565b62000f15565b90508281526020810184848401111562000faf5762000fae62000eab565b5b62000fbc84828562000f6a565b509392505050565b600082601f83011262000fdc5762000fdb62000de8565b5b813562000fee84826020860162000f79565b91505092915050565b620010028162000d44565b81146200100e57600080fd5b50565b600081359050620010228162000ff7565b92915050565b60008060008060008060c0878903121562001048576200104762000b53565b5b600087013567ffffffffffffffff81111562001069576200106862000b58565b5b6200107789828a0162000fc4565b96505060206200108a89828a0162001011565b95505060406200109d89828a0162001011565b9450506060620010b089828a0162001011565b9350506080620010c389828a0162001011565b92505060a0620010d689828a0162000b81565b9150509295509295509295565b60008115159050919050565b620010fa81620010e3565b82525050565b600081519050919050565b600082825260208201905092915050565b6000620011298262001100565b6200113581856200110b565b93506200114781856020860162000cbc565b620011528162000cf2565b840191505092915050565b6000604082019050620011746000830185620010ef565b81810360208301526200118881846200111c565b90509392505050565b600081519050919050565b600082825260208201905092915050565b6000819050602082019050919050565b620011c88162000c30565b82525050565b6000620011dc8383620011bd565b60208301905092915050565b6000602082019050919050565b6000620012028262001191565b6200120e81856200119c565b93506200121b83620011ad565b8060005b8381101562001252578151620012368882620011ce565b97506200124383620011e8565b9250506001810190506200121f565b5085935050505092915050565b600060208201905081810360008301526200127b8184620011f5565b905092915050565b7f4e487b7100000000000000000000000000000000000000000000000000000000600052603260045260246000fd5b600081519050620012c38162000b67565b92915050565b600060208284031215620012e257620012e162000b53565b5b6000620012f284828501620012b2565b91505092915050565b600081905092915050565b6000620013138262001100565b6200131f8185620012fb565b93506200133181856020860162000cbc565b80840191505092915050565b60006200134b828462001306565b915081905092915050565b7f4974206661696c656420746f207265736f6c7665206265742e00000000000000600082015250565b60006200138e60198362000cab565b91506200139b8262001356565b602082019050919050565b60006020820190508181036000830152620013c1816200137f565b9050919050565b7f4e487b7100000000000000000000000000000000000000000000000000000000600052601160045260246000fd5b6000620014048262000b5d565b915060008214156200141b576200141a620013c8565b5b600182039050919050565b600060ff82169050919050565b6000620014408262001426565b91506000821415620014575762001456620013c8565b5b600182039050919050565b60006200146f8262001426565b915060ff821415620014865762001485620013c8565b5b600182019050919050565b6000620014a8620014a28462000f34565b62000f15565b905082815260208101848484011115620014c757620014c662000eab565b5b620014d484828562000cbc565b509392505050565b600082601f830112620014f457620014f362000de8565b5b81516200150684826020860162001491565b91505092915050565b600081519050620015208162000ff7565b92915050565b620015318162000d5f565b81146200153d57600080fd5b50565b600081519050620015518162001526565b92915050565b600080600080600060a0868803121562001576576200157562000b53565b5b600086015167ffffffffffffffff81111562001597576200159662000b58565b5b620015a588828901620014dc565b9550506020620015b8888289016200150f565b9450506040620015cb888289016200150f565b9350506060620015de88828901620012b2565b9250506080620015f18882890162001540565b9150509295509295909350565b600060c08201905081810360008301526200161a818962000d03565b90506200162b602083018862000d4e565b6200163a604083018762000d4e565b62001649606083018662000d4e565b62001658608083018562000d4e565b6200166760a083018462000c72565b979650505050505050565b60006200167f8262000b5d565b91507fffffffffffffffffffffffffffffffffffffffffffffffffffffffffffffffff821415620016b557620016b4620013c8565b5b600182019050919050565b60006060820190508181036000830152620016dc818662000d03565b9050620016ed602083018562000d4e565b620016fc604083018462000d4e565b949350505050565b6000620017118262000b5d565b91506200171e8362000b5d565b925082821015620017345762001733620013c8565b5b828203905092915050565b7f4e487b7100000000000000000000000000000000000000000000000000000000600052603160045260246000fdfe608060405233600160006101000a81548173ffffffffffffffffffffffffffffffffffffffff021916908373ffffffffffffffffffffffffffffffffffffffff16021790555060018060146101000a81548160ff0219169083151502179055506000600960006101000a81548160ff021916908360ff1602179055503480156200008857600080fd5b5060405162003105380380620031058339818101604052810190620000ae91906200044c565b8560029080519060200190620000c692919062000189565b50670de0b6b3a764000085620000dd919062000536565b600381905550670de0b6b3a764000084620000f9919062000536565b600481905550670de0b6b3a76400008362000115919062000536565b6005819055508160078190555080600681905550739326bfa02add2366b30bacb125260af6410313316000806101000a81548173ffffffffffffffffffffffffffffffffffffffff021916908373ffffffffffffffffffffffffffffffffffffffff160217905550505050505050620006c2565b82805462000197906200068c565b90600052602060002090601f016020900481019282620001bb576000855562000207565b82601f10620001d657805160ff191683800117855562000207565b8280016001018555821562000207579182015b8281111562000206578251825591602001919060010190620001e9565b5b5090506200021691906200021a565b5090565b5b80821115620002355760008160009055506001016200021b565b5090565b6000604051905090565b600080fd5b600080fd5b600080fd5b600080fd5b6000601f19601f8301169050919050565b7f4e487b7100000000000000000000000000000000000000000000000000000000600052604160045260246000fd5b620002a28262000257565b810181811067ffffffffffffffff82111715620002c457620002c362000268565b5b80604052505050565b6000620002d962000239565b9050620002e7828262000297565b919050565b600067ffffffffffffffff8211156200030a576200030962000268565b5b620003158262000257565b9050602081019050919050565b60005b838110156200034257808201518184015260208101905062000325565b8381111562000352576000848401525b50505050565b60006200036f6200036984620002ec565b620002cd565b9050828152602081018484840111156200038e576200038d62000252565b5b6200039b84828562000322565b509392505050565b600082601f830112620003bb57620003ba6200024d565b5b8151620003cd84826020860162000358565b91505092915050565b6000819050919050565b620003eb81620003d6565b8114620003f757600080fd5b50565b6000815190506200040b81620003e0565b92915050565b6000819050919050565b620004268162000411565b81146200043257600080fd5b50565b60008151905062000446816200041b565b92915050565b60008060008060008060c087890312156200046c576200046b62000243565b5b600087015167ffffffffffffffff8111156200048d576200048c62000248565b5b6200049b89828a01620003a3565b9650506020620004ae89828a01620003fa565b9550506040620004c189828a01620003fa565b9450506060620004d489828a01620003fa565b9350506080620004e789828a01620003fa565b92505060a0620004fa89828a0162000435565b9150509295509295509295565b7f4e487b7100000000000000000000000000000000000000000000000000000000600052601160045260246000fd5b60006200054382620003d6565b91506200055083620003d6565b9250827f7fffffffffffffffffffffffffffffffffffffffffffffffffffffffffffffff048211600084136000841316161562000592576200059162000507565b5b817f80000000000000000000000000000000000000000000000000000000000000000583126000841260008413161615620005d257620005d162000507565b5b827f8000000000000000000000000000000000000000000000000000000000000000058212600084136000841216161562000612576200061162000507565b5b827f7fffffffffffffffffffffffffffffffffffffffffffffffffffffffffffffff058212600084126000841216161562000652576200065162000507565b5b828202905092915050565b7f4e487b7100000000000000000000000000000000000000000000000000000000600052602260045260246000fd5b60006002820490506001821680620006a557607f821691505b60208210811415620006bc57620006bb6200065d565b5b50919050565b612a3380620006d26000396000f3fe6080604052600436106101145760003560e01c80638b7afe2e116100a0578063b56b835311610064578063b56b835314610355578063b8f7a66514610380578063cfc2ca32146103ab578063d29a0025146103e8578063eb91d37e1461041157610114565b80638b7afe2e146102a15780638da5cb5b146102cc5780638fced626146102f757806395d89b411461030e57806397bfeb881461033957610114565b8063473fede8116100e7578063473fede8146101da5780635c25c76c146102055780635c812737146102305780637b6d79f11461025b5780638a2fd0291461027257610114565b80632ca8c6d3146101195780632f37290714610144578063419ae937146101845780634665096d146101af575b600080fd5b34801561012557600080fd5b5061012e61043c565b60405161013b91906115e3565b60405180910390f35b34801561015057600080fd5b5061016b60048036038101906101669190611670565b61044f565b60405161017b9493929190611757565b60405180910390f35b34801561019057600080fd5b506101996104b9565b6040516101a6919061185a565b60405180910390f35b3480156101bb57600080fd5b506101c4610547565b6040516101d1919061187c565b60405180910390f35b3480156101e657600080fd5b506101ef61054d565b6040516101fc91906118b0565b60405180910390f35b34801561021157600080fd5b5061021a610553565b60405161022791906118b0565b60405180910390f35b34801561023c57600080fd5b50610245610559565b60405161025291906118b0565b60405180910390f35b34801561026757600080fd5b5061027061055f565b005b34801561027e57600080fd5b50610287610852565b604051610298959493929190611964565b60405180910390f35b3480156102ad57600080fd5b506102b6610903565b6040516102c3919061187c565b60405180910390f35b3480156102d857600080fd5b506102e1610909565b6040516102ee91906119df565b60405180910390f35b34801561030357600080fd5b5061030c61092f565b005b34801561031a57600080fd5b50610323610b76565b60405161033091906119fa565b60405180910390f35b610353600480360381019061034e9190611b51565b610c04565b005b34801561036157600080fd5b5061036a610f5d565b60405161037791906118b0565b60405180910390f35b34801561038c57600080fd5b50610395610f63565b6040516103a29190611b9a565b60405180910390f35b3480156103b757600080fd5b506103d260048036038101906103cd9190611be1565b610f76565b6040516103df9190611c0e565b60405180910390f35b3480156103f457600080fd5b5061040f600480360381019061040a9190611be1565b610fb5565b005b34801561041d57600080fd5b50610426611103565b60405161043391906118b0565b60405180910390f35b600960009054906101000a900460ff1681565b60086020528060005260406000206000915090508060000160009054906101000a900473ffffffffffffffffffffffffffffffffffffffff16908060000160149054906101000a900460ff16908060010154908060020160009054906101000a900460ff16905084565b6060600b80548060200260200160405190810160405280929190818152602001828054801561053d57602002820191906000526020600020905b8160009054906101000a900473ffffffffffffffffffffffffffffffffffffffff1673ffffffffffffffffffffffffffffffffffffffff16815260200190600101908083116104f3575b5050505050905090565b60065481565b60055481565b60045481565b60075481565b60011515600860003373ffffffffffffffffffffffffffffffffffffffff1673ffffffffffffffffffffffffffffffffffffffff16815260200190815260200160002060020160009054906101000a900460ff161515146105f5576040517f08c379a00000000000000000000000000000000000000000000000000000000081526004016105ec90611c75565b60405180910390fd5b6000600860003373ffffffffffffffffffffffffffffffffffffffff1673ffffffffffffffffffffffffffffffffffffffff168152602001908152602001600020905060008160010154905080600a541015610686576040517f08c379a000000000000000000000000000000000000000000000000000000000815260040161067d90611d07565b60405180910390fd5b60008260020160006101000a81548160ff0219169083151502179055506000826001018190555060028260000160146101000a81548160ff021916908360028111156106d5576106d46116ac565b5b02179055506001600960008282829054906101000a900460ff166106f99190611d56565b92506101000a81548160ff021916908360ff16021790555080600a60008282546107239190611d8a565b92505081905550610733336111a2565b60008260000160009054906101000a900473ffffffffffffffffffffffffffffffffffffffff1673ffffffffffffffffffffffffffffffffffffffff168260405161077d90611def565b60006040518083038185875af1925050503d80600081146107ba576040519150601f19603f3d011682016040523d82523d6000602084013e6107bf565b606091505b5050905080610803576040517f08c379a00000000000000000000000000000000000000000000000000000000081526004016107fa90611e50565b60405180910390fd5b7f5c0ede0ff70e8d91413ba60230ee5b241c5f1d8c42a7ddff28700b94be01c0d4338460000160149054906101000a900460ff16604051610845929190611e70565b60405180910390a1505050565b606060008060008060026003546004546006543084805461087290611ec8565b80601f016020809104026020016040519081016040528092919081815260200182805461089e90611ec8565b80156108eb5780601f106108c0576101008083540402835291602001916108eb565b820191906000526020600020905b8154815290600101906020018083116108ce57829003601f168201915b50505050509450945094509450945094509091929394565b600a5481565b600160009054906101000a900473ffffffffffffffffffffffffffffffffffffffff1681565b600160009054906101000a900473ffffffffffffffffffffffffffffffffffffffff1673ffffffffffffffffffffffffffffffffffffffff163373ffffffffffffffffffffffffffffffffffffffff16146109bf576040517f08c379a00000000000000000000000000000000000000000000000000000000081526004016109b690611f6c565b60405180910390fd5b60006402540be4006109cf611103565b6109d99190611f8c565b90506000600290506004546003546109f191906120a3565b821315610a015760009050610a1e565b600454600354610a119190612137565b821215610a1d57600190505b5b6000600960009054906101000a900460ff1660ff16905060005b600960009054906101000a900460ff1660ff168160ff161015610b67576000600b8260ff1681548110610a6e57610a6d6121cb565b5b9060005260206000200160009054906101000a900473ffffffffffffffffffffffffffffffffffffffff1690506000600860008373ffffffffffffffffffffffffffffffffffffffff1673ffffffffffffffffffffffffffffffffffffffff16815260200190815260200160002090508060020160009054906101000a900460ff168015610b305750846002811115610b0a57610b096116ac565b5b8160000160149054906101000a900460ff166002811115610b2e57610b2d6116ac565b5b145b15610b4457610b43828260010154611338565b5b8380610b4f906121fa565b94505050508080610b5f90612224565b915050610a38565b50610b7181610fb5565b505050565b60028054610b8390611ec8565b80601f0160208091040260200160405190810160405280929190818152602001828054610baf90611ec8565b8015610bfc5780601f10610bd157610100808354040283529160200191610bfc565b820191906000526020600020905b815481529060010190602001808311610bdf57829003601f168201915b505050505081565b600160009054906101000a900473ffffffffffffffffffffffffffffffffffffffff1673ffffffffffffffffffffffffffffffffffffffff163373ffffffffffffffffffffffffffffffffffffffff161415610c95576040517f08c379a0000000000000000000000000000000000000000000000000000000008152600401610c8c9061229a565b60405180910390fd5b60001515600860003373ffffffffffffffffffffffffffffffffffffffff1673ffffffffffffffffffffffffffffffffffffffff16815260200190815260200160002060020160009054906101000a900460ff16151514610d2b576040517f08c379a0000000000000000000000000000000000000000000000000000000008152600401610d2290612306565b60405180910390fd5b6000610d36826114c8565b9050600b339080600181540180825580915050600190039060005260206000200160009091909190916101000a81548173ffffffffffffffffffffffffffffffffffffffff021916908373ffffffffffffffffffffffffffffffffffffffff160217905550600060405180608001604052803373ffffffffffffffffffffffffffffffffffffffff168152602001836002811115610dd757610dd66116ac565b5b815260200134815260200160011515815250905080600860003373ffffffffffffffffffffffffffffffffffffffff1673ffffffffffffffffffffffffffffffffffffffff16815260200190815260200160002060008201518160000160006101000a81548173ffffffffffffffffffffffffffffffffffffffff021916908373ffffffffffffffffffffffffffffffffffffffff16021790555060208201518160000160146101000a81548160ff02191690836002811115610e9d57610e9c6116ac565b5b02179055506040820151816001015560608201518160020160006101000a81548160ff0219169083151502179055509050506001600960008282829054906101000a900460ff16610eee9190612326565b92506101000a81548160ff021916908360ff16021790555034600a6000828254610f18919061235d565b925050819055507f5c0ede0ff70e8d91413ba60230ee5b241c5f1d8c42a7ddff28700b94be01c0d43383604051610f50929190611e70565b60405180910390a1505050565b60035481565b600160149054906101000a900460ff1681565b600b8181548110610f8657600080fd5b906000526020600020016000915054906101000a900473ffffffffffffffffffffffffffffffffffffffff1681565b60008114610ff8576040517f08c379a0000000000000000000000000000000000000000000000000000000008152600401610fef90612425565b60405180910390fd5b6000600160009054906101000a900473ffffffffffffffffffffffffffffffffffffffff1673ffffffffffffffffffffffffffffffffffffffff16600a5460405161104290611def565b60006040518083038185875af1925050503d806000811461107f576040519150601f19603f3d011682016040523d82523d6000602084013e611084565b606091505b50509050806110c8576040517f08c379a00000000000000000000000000000000000000000000000000000000081526004016110bf90612491565b60405180910390fd5b600160009054906101000a900473ffffffffffffffffffffffffffffffffffffffff1673ffffffffffffffffffffffffffffffffffffffff16ff5b60008060008054906101000a900473ffffffffffffffffffffffffffffffffffffffff1673ffffffffffffffffffffffffffffffffffffffff1663feaf968c6040518163ffffffff1660e01b815260040160a060405180830381865afa158015611171573d6000803e3d6000fd5b505050506040513d601f19601f820116820180604052508101906111959190612534565b5050509150508091505090565b600080600090505b600b80549050811015611240578273ffffffffffffffffffffffffffffffffffffffff16600b82815481106111e2576111e16121cb565b5b9060005260206000200160009054906101000a900473ffffffffffffffffffffffffffffffffffffffff1673ffffffffffffffffffffffffffffffffffffffff16141561122d578091505b8080611238906125af565b9150506111aa565b50600b6001600b805490506112559190611d8a565b81548110611266576112656121cb565b5b9060005260206000200160009054906101000a900473ffffffffffffffffffffffffffffffffffffffff16600b82815481106112a5576112a46121cb565b5b9060005260206000200160006101000a81548173ffffffffffffffffffffffffffffffffffffffff021916908373ffffffffffffffffffffffffffffffffffffffff160217905550600b8054806112ff576112fe6125f8565b5b6001900381819060005260206000200160006101000a81549073ffffffffffffffffffffffffffffffffffffffff021916905590555050565b6000600a6007548361134a9190612627565b61135491906126b0565b905080600a54101561139b576040517f08c379a00000000000000000000000000000000000000000000000000000000081526004016113929061272d565b60405180910390fd5b80600a60008282546113ad9190611d8a565b9250508190555060008373ffffffffffffffffffffffffffffffffffffffff16826040516113da90611def565b60006040518083038185875af1925050503d8060008114611417576040519150601f19603f3d011682016040523d82523d6000602084013e61141c565b606091505b505090506000846040516020016114339190612812565b6040516020818303038152906040529050818190611487576040517f08c379a000000000000000000000000000000000000000000000000000000000815260040161147e91906119fa565b60405180910390fd5b507fa3ca6c6f1413e28d2a8c7aaa386259e7c61bbe6970cfb14720b44ec9a0ddceed85846040516114b9929190612838565b60405180910390a15050505050565b60006040516020016114d9906128ad565b604051602081830303815290604052805190602001208260405160200161150091906128f3565b60405160208183030381529060405280519060200120141561152557600090506115c2565b60405160200161153490612956565b604051602081830303815290604052805190602001208260405160200161155b91906128f3565b60405160208183030381529060405280519060200120141561158057600190506115c2565b60006115c1576040517f08c379a00000000000000000000000000000000000000000000000000000000081526004016115b8906129dd565b60405180910390fd5b5b919050565b600060ff82169050919050565b6115dd816115c7565b82525050565b60006020820190506115f860008301846115d4565b92915050565b6000604051905090565b600080fd5b600080fd5b600073ffffffffffffffffffffffffffffffffffffffff82169050919050565b600061163d82611612565b9050919050565b61164d81611632565b811461165857600080fd5b50565b60008135905061166a81611644565b92915050565b60006020828403121561168657611685611608565b5b60006116948482850161165b565b91505092915050565b6116a681611632565b82525050565b7f4e487b7100000000000000000000000000000000000000000000000000000000600052602160045260246000fd5b600381106116ec576116eb6116ac565b5b50565b60008190506116fd826116db565b919050565b600061170d826116ef565b9050919050565b61171d81611702565b82525050565b6000819050919050565b61173681611723565b82525050565b60008115159050919050565b6117518161173c565b82525050565b600060808201905061176c600083018761169d565b6117796020830186611714565b611786604083018561172d565b6117936060830184611748565b95945050505050565b600081519050919050565b600082825260208201905092915050565b6000819050602082019050919050565b6117d181611632565b82525050565b60006117e383836117c8565b60208301905092915050565b6000602082019050919050565b60006118078261179c565b61181181856117a7565b935061181c836117b8565b8060005b8381101561184d57815161183488826117d7565b975061183f836117ef565b925050600181019050611820565b5085935050505092915050565b6000602082019050818103600083015261187481846117fc565b905092915050565b6000602082019050611891600083018461172d565b92915050565b6000819050919050565b6118aa81611897565b82525050565b60006020820190506118c560008301846118a1565b92915050565b600081519050919050565b600082825260208201905092915050565b60005b838110156119055780820151818401526020810190506118ea565b83811115611914576000848401525b50505050565b6000601f19601f8301169050919050565b6000611936826118cb565b61194081856118d6565b93506119508185602086016118e7565b6119598161191a565b840191505092915050565b600060a082019050818103600083015261197e818861192b565b905061198d60208301876118a1565b61199a60408301866118a1565b6119a7606083018561172d565b6119b4608083018461169d565b9695505050505050565b60006119c982611612565b9050919050565b6119d9816119be565b82525050565b60006020820190506119f460008301846119d0565b92915050565b60006020820190508181036000830152611a14818461192b565b905092915050565b600080fd5b600080fd5b7f4e487b7100000000000000000000000000000000000000000000000000000000600052604160045260246000fd5b611a5e8261191a565b810181811067ffffffffffffffff82111715611a7d57611a7c611a26565b5b80604052505050565b6000611a906115fe565b9050611a9c8282611a55565b919050565b600067ffffffffffffffff821115611abc57611abb611a26565b5b611ac58261191a565b9050602081019050919050565b82818337600083830152505050565b6000611af4611aef84611aa1565b611a86565b905082815260208101848484011115611b1057611b0f611a21565b5b611b1b848285611ad2565b509392505050565b600082601f830112611b3857611b37611a1c565b5b8135611b48848260208601611ae1565b91505092915050565b600060208284031215611b6757611b66611608565b5b600082013567ffffffffffffffff811115611b8557611b8461160d565b5b611b9184828501611b23565b91505092915050565b6000602082019050611baf6000830184611748565b92915050565b611bbe81611723565b8114611bc957600080fd5b50565b600081359050611bdb81611bb5565b92915050565b600060208284031215611bf757611bf6611608565b5b6000611c0584828501611bcc565b91505092915050565b6000602082019050611c23600083018461169d565b92915050565b7f5573657220686173206e6f2062657420746f2063616e63656c2e000000000000600082015250565b6000611c5f601a836118d6565b9150611c6a82611c29565b602082019050919050565b60006020820190508181036000830152611c8e81611c52565b9050919050565b7f596f752061726520747279696e6720746f20776974686472617720746f6f206d60008201527f7563682045746865722e00000000000000000000000000000000000000000000602082015250565b6000611cf1602a836118d6565b9150611cfc82611c95565b604082019050919050565b60006020820190508181036000830152611d2081611ce4565b9050919050565b7f4e487b7100000000000000000000000000000000000000000000000000000000600052601160045260246000fd5b6000611d61826115c7565b9150611d6c836115c7565b925082821015611d7f57611d7e611d27565b5b828203905092915050565b6000611d9582611723565b9150611da083611723565b925082821015611db357611db2611d27565b5b828203905092915050565b600081905092915050565b50565b6000611dd9600083611dbe565b9150611de482611dc9565b600082019050919050565b6000611dfa82611dcc565b9150819050919050565b7f4661696c656420746f2072657475726e20457468657200000000000000000000600082015250565b6000611e3a6016836118d6565b9150611e4582611e04565b602082019050919050565b60006020820190508181036000830152611e6981611e2d565b9050919050565b6000604082019050611e85600083018561169d565b611e926020830184611714565b9392505050565b7f4e487b7100000000000000000000000000000000000000000000000000000000600052602260045260246000fd5b60006002820490506001821680611ee057607f821691505b60208210811415611ef457611ef3611e99565b5b50919050565b7f4f6e6c7920636f6e7472616374206f776e65722063616e207265736f6c76652060008201527f6265742e00000000000000000000000000000000000000000000000000000000602082015250565b6000611f566024836118d6565b9150611f6182611efa565b604082019050919050565b60006020820190508181036000830152611f8581611f49565b9050919050565b6000611f9782611897565b9150611fa283611897565b9250827f7fffffffffffffffffffffffffffffffffffffffffffffffffffffffffffffff0482116000841360008413161615611fe157611fe0611d27565b5b817f8000000000000000000000000000000000000000000000000000000000000000058312600084126000841316161561201e5761201d611d27565b5b827f8000000000000000000000000000000000000000000000000000000000000000058212600084136000841216161561205b5761205a611d27565b5b827f7fffffffffffffffffffffffffffffffffffffffffffffffffffffffffffffff058212600084126000841216161561209857612097611d27565b5b828202905092915050565b60006120ae82611897565b91506120b983611897565b9250817f7fffffffffffffffffffffffffffffffffffffffffffffffffffffffffffffff038313600083121516156120f4576120f3611d27565b5b817f800000000000000000000000000000000000000000000000000000000000000003831260008312161561212c5761212b611d27565b5b828201905092915050565b600061214282611897565b915061214d83611897565b9250827f80000000000000000000000000000000000000000000000000000000000000000182126000841215161561218857612187611d27565b5b827f7fffffffffffffffffffffffffffffffffffffffffffffffffffffffffffffff0182136000841216156121c0576121bf611d27565b5b828203905092915050565b7f4e487b7100000000000000000000000000000000000000000000000000000000600052603260045260246000fd5b600061220582611723565b9150600082141561221957612218611d27565b5b600182039050919050565b600061222f826115c7565b915060ff82141561224357612242611d27565b5b600182019050919050565b7f43726561746f722063616e6e6f7420706c616365206265742e00000000000000600082015250565b60006122846019836118d6565b915061228f8261224e565b602082019050919050565b600060208201905081810360008301526122b381612277565b9050919050565b7f5573657220616c72656164792068617320706c616365642061206265742e0000600082015250565b60006122f0601e836118d6565b91506122fb826122ba565b602082019050919050565b6000602082019050818103600083015261231f816122e3565b9050919050565b6000612331826115c7565b915061233c836115c7565b92508260ff0382111561235257612351611d27565b5b828201905092915050565b600061236882611723565b915061237383611723565b9250827fffffffffffffffffffffffffffffffffffffffffffffffffffffffffffffffff038211156123a8576123a7611d27565b5b828201905092915050565b7f436f6e7472616374207374696c6c2068617320756e7265736f6c76656420626560008201527f7473000000000000000000000000000000000000000000000000000000000000602082015250565b600061240f6022836118d6565b915061241a826123b3565b604082019050919050565b6000602082019050818103600083015261243e81612402565b9050919050565b7f4661696c656420746f2073656e64204574686572000000000000000000000000600082015250565b600061247b6014836118d6565b915061248682612445565b602082019050919050565b600060208201905081810360008301526124aa8161246e565b9050919050565b600069ffffffffffffffffffff82169050919050565b6124d0816124b1565b81146124db57600080fd5b50565b6000815190506124ed816124c7565b92915050565b6124fc81611897565b811461250757600080fd5b50565b600081519050612519816124f3565b92915050565b60008151905061252e81611bb5565b92915050565b600080600080600060a086880312156125505761254f611608565b5b600061255e888289016124de565b955050602061256f8882890161250a565b94505060406125808882890161251f565b93505060606125918882890161251f565b92505060806125a2888289016124de565b9150509295509295909350565b60006125ba82611723565b91507fffffffffffffffffffffffffffffffffffffffffffffffffffffffffffffffff8214156125ed576125ec611d27565b5b600182019050919050565b7f4e487b7100000000000000000000000000000000000000000000000000000000600052603160045260246000fd5b600061263282611723565b915061263d83611723565b9250817fffffffffffffffffffffffffffffffffffffffffffffffffffffffffffffffff048311821515161561267657612675611d27565b5b828202905092915050565b7f4e487b7100000000000000000000000000000000000000000000000000000000600052601260045260246000fd5b60006126bb82611723565b91506126c683611723565b9250826126d6576126d5612681565b5b828204905092915050565b7f496e73756666696369656e742066756e647320746f2077697468647261772e00600082015250565b6000612717601f836118d6565b9150612722826126e1565b602082019050919050565b600060208201905081810360008301526127468161270a565b9050919050565b600081905092915050565b7f4661696c656420746f2073656e6420457468657220746f206265742077696e6e60008201527f6572207769746820616464726573733a20000000000000000000000000000000602082015250565b60006127b460318361274d565b91506127bf82612758565b603182019050919050565b60008160601b9050919050565b60006127e2826127ca565b9050919050565b60006127f4826127d7565b9050919050565b61280c61280782611632565b6127e9565b82525050565b600061281d826127a7565b915061282982846127fb565b60148201915081905092915050565b600060408201905061284d600083018561169d565b61285a602083018461172d565b9392505050565b7f6f76657200000000000000000000000000000000000000000000000000000000600082015250565b600061289760048361274d565b91506128a282612861565b600482019050919050565b60006128b88261288a565b9150819050919050565b60006128cd826118cb565b6128d7818561274d565b93506128e78185602086016118e7565b80840191505092915050565b60006128ff82846128c2565b915081905092915050565b7f756e646572000000000000000000000000000000000000000000000000000000600082015250565b600061294060058361274d565b915061294b8261290a565b600582019050919050565b600061296182612933565b9150819050919050565b7f53696465206f6620626574206d757374206265206569746865723a20276f766560008201527f7227206f722027756e646572272e000000000000000000000000000000000000602082015250565b60006129c7602e836118d6565b91506129d28261296b565b604082019050919050565b600060208201905081810360008301526129f6816129ba565b905091905056fea264697066735822122067461b8b409adff7fec6df223714e3373bce2e705e6ffa1afe57e9f9cec28e7d64736f6c634300080b0033a264697066735822122030f891bec767f0bbebd33ff45b0ea6c1357dbcf51c9a2efafc5cd60bd97c1bc464736f6c634300080b0033",
  "immutableReferences": {},
  "source": "// SPDX-License-Identifier: UNLICENSED\npragma solidity 0.8.11;\n\nimport './Bet.sol';\nimport \"@chainlink/contracts/src/v0.8/KeeperCompatible.sol\";\n\n/// @title Bet factory contract.\n/// @author Fermin Carranza\n/// @notice Basic contract to create bets. Only ETH/USD currently supported.\n/// @dev Chainlink Keeper not currently working. Not production ready.\ncontract BetFactory is KeeperCompatible {\n    /*\n    / Events - Publicize events to external listeners.\n    */\n    event LogBetCreatedFromFactory(string symbol, int line, int spread);\n\n    /// Storage variables\n    address private owner = msg.sender;\n    Bet[] public bets;\n    uint public numberOfBets;\n    mapping(uint256 => Bet) public betsMap;\n\n    /// Receive Ether function.\n    receive() external payable {}\n\n    /// @notice Create a new bet for users to participate in. (Only ETH/USD currently supported)\n    /// @param _symbol Ticker symbol of the security to bet on.\n    /// @param _line The price at which contract settles at expiration.\n    /// @param _spread Spread price can move from line.\n    /// @param _maxBetSize The maximum amount a user can bet (in ETH).\n    /// @param _multiplier The payout multiplier for winning bets.\n    /// @param _expiration The expiration date of the bet.\n    function createBet(string memory _symbol, int _line, int _spread, int _maxBetSize, int _multiplier, uint _expiration) public {\n        Bet _bet = new Bet(_symbol, _line, _spread, _maxBetSize, _multiplier, _expiration);\n        bets.push(_bet);\n        betsMap[numberOfBets] = _bet;\n        numberOfBets++;\n\n        emit LogBetCreatedFromFactory(_symbol, _line, _spread);\n    }\n\n    /// @return Returns all outstanding bets.\n    function getAllBets() public view returns (Bet[] memory) {\n        return bets;\n    }\n\n    /// @notice Returns a specific bet's details.\n    /// @param index The ID of the bet.\n    /// @return Array containing: symbol, line, spread and expiration of bet.\n    function getBetDetails(uint index) public view returns (string memory, int, int, uint, address) {\n        Bet bet = betsMap[index];\n        return bet.getBetDetails();\n    }\n\n    /// @notice Resolves outstanding bets if current time is greater than expiration.\n    function resolveExistingBets() public {\n        uint _betsLength = bets.length;\n        for (uint8 _i = 0; _i < _betsLength; _i++) {\n            Bet currentBet = bets[_i];\n            if (block.timestamp > currentBet.expiration()) {\n                (bool success, ) = address(currentBet).call(abi.encodeWithSignature(\"resolveBet()\"));\n                require(success, \"It failed to resolve bet.\");\n                removeFromBets(_i);\n                numberOfBets--;\n                _betsLength--;\n                _i--;\n            }\n        }\n    }\n\n    /// @notice Resolves a bet by ID\n    /// @dev Used to resolve a bet and bypass the Chainlink Keeper\n    function resolveBet(uint index) public {\n        Bet currentBet = bets[index];\n        removeFromBets(index);\n        numberOfBets--;\n        (bool success, ) = address(currentBet).call(abi.encodeWithSignature(\"resolveBet()\"));\n        require(success, \"It failed to resolve bet.\");\n    }\n\n    /// @notice Chainlink function to check if outside data should make it into the contract.\n    /// @dev Currently not working.\n    function checkUpkeep(\n        bytes calldata /*checkData */\n    ) external override view returns (bool upkeepNeeded, bytes memory) {\n        upkeepNeeded = bets.length > 0;\n    }\n\n    /// @notice Method to run if Chainlink determines the contract needs to perform an action.\n    function performUpkeep(bytes calldata) external override {\n        resolveExistingBets();\n    }\n\n    /// @notice Removes old bet from current bets array.\n    /// @param index The ID of the bet to remove.\n    /// @dev Utility method to remove old bet from current bets array.\n    function removeFromBets(uint index) internal {\n        bets[index] = bets[bets.length - 1];\n        bets.pop();\n    }\n}\n",
  "sourcePath": "/Users/efecarranza/projects/sportsbetx/contracts/BetFactory.sol",
  "compiler": {
    "name": "solc",
    "version": "0.8.11+commit.d7f03943.Emscripten.clang"
  },
  "schemaVersion": "3.4.4",
  "updatedAt": "2022-01-18T23:26:39.934Z",
  "devdoc": {
    "author": "Fermin Carranza",
    "details": "Chainlink Keeper not currently working. Not production ready.",
    "kind": "dev",
    "methods": {
      "checkUpkeep(bytes)": {
        "details": "Currently not working."
      },
      "createBet(string,int256,int256,int256,int256,uint256)": {
        "params": {
          "_expiration": "The expiration date of the bet.",
          "_line": "The price at which contract settles at expiration.",
          "_maxBetSize": "The maximum amount a user can bet (in ETH).",
          "_multiplier": "The payout multiplier for winning bets.",
          "_spread": "Spread price can move from line.",
          "_symbol": "Ticker symbol of the security to bet on."
        }
      },
      "getAllBets()": {
        "returns": {
          "_0": "Returns all outstanding bets."
        }
      },
      "getBetDetails(uint256)": {
        "params": {
          "index": "The ID of the bet."
        },
        "returns": {
          "_0": "Array containing: symbol, line, spread and expiration of bet."
        }
      },
      "resolveBet(uint256)": {
        "details": "Used to resolve a bet and bypass the Chainlink Keeper"
      }
    },
    "title": "Bet factory contract.",
    "version": 1
  },
  "userdoc": {
    "kind": "user",
    "methods": {
      "checkUpkeep(bytes)": {
        "notice": "Chainlink function to check if outside data should make it into the contract."
      },
      "createBet(string,int256,int256,int256,int256,uint256)": {
        "notice": "Create a new bet for users to participate in. (Only ETH/USD currently supported)"
      },
      "getBetDetails(uint256)": {
        "notice": "Returns a specific bet's details."
      },
      "performUpkeep(bytes)": {
        "notice": "Method to run if Chainlink determines the contract needs to perform an action."
      },
      "resolveBet(uint256)": {
        "notice": "Resolves a bet by ID"
      },
      "resolveExistingBets()": {
        "notice": "Resolves outstanding bets if current time is greater than expiration."
      }
    },
    "notice": "Basic contract to create bets. Only ETH/USD currently supported.",
    "version": 1
  }
}